{
  "_format": "hh-sol-artifact-1",
  "contractName": "Diamonds",
  "sourceName": "contracts/Diamonds.sol",
  "abi": [
    {
      "inputs": [
        {
          "internalType": "address",
          "name": "universeAddress",
          "type": "address"
        },
        {
          "internalType": "address",
          "name": "defaultAdmin",
          "type": "address"
        },
        {
          "internalType": "address",
          "name": "minter",
          "type": "address"
        }
      ],
      "stateMutability": "nonpayable",
      "type": "constructor"
    },
    {
      "inputs": [],
      "name": "AccessControlBadConfirmation",
      "type": "error"
    },
    {
      "inputs": [
        {
          "internalType": "address",
          "name": "account",
          "type": "address"
        },
        {
          "internalType": "bytes32",
          "name": "neededRole",
          "type": "bytes32"
        }
      ],
      "name": "AccessControlUnauthorizedAccount",
      "type": "error"
    },
    {
      "inputs": [],
      "name": "ECDSAInvalidSignature",
      "type": "error"
    },
    {
      "inputs": [
        {
          "internalType": "uint256",
          "name": "length",
          "type": "uint256"
        }
      ],
      "name": "ECDSAInvalidSignatureLength",
      "type": "error"
    },
    {
      "inputs": [
        {
          "internalType": "bytes32",
          "name": "s",
          "type": "bytes32"
        }
      ],
      "name": "ECDSAInvalidSignatureS",
      "type": "error"
    },
    {
      "inputs": [
        {
          "internalType": "address",
          "name": "spender",
          "type": "address"
        },
        {
          "internalType": "uint256",
          "name": "allowance",
          "type": "uint256"
        },
        {
          "internalType": "uint256",
          "name": "needed",
          "type": "uint256"
        }
      ],
      "name": "ERC20InsufficientAllowance",
      "type": "error"
    },
    {
      "inputs": [
        {
          "internalType": "address",
          "name": "sender",
          "type": "address"
        },
        {
          "internalType": "uint256",
          "name": "balance",
          "type": "uint256"
        },
        {
          "internalType": "uint256",
          "name": "needed",
          "type": "uint256"
        }
      ],
      "name": "ERC20InsufficientBalance",
      "type": "error"
    },
    {
      "inputs": [
        {
          "internalType": "address",
          "name": "approver",
          "type": "address"
        }
      ],
      "name": "ERC20InvalidApprover",
      "type": "error"
    },
    {
      "inputs": [
        {
          "internalType": "address",
          "name": "receiver",
          "type": "address"
        }
      ],
      "name": "ERC20InvalidReceiver",
      "type": "error"
    },
    {
      "inputs": [
        {
          "internalType": "address",
          "name": "sender",
          "type": "address"
        }
      ],
      "name": "ERC20InvalidSender",
      "type": "error"
    },
    {
      "inputs": [
        {
          "internalType": "address",
          "name": "spender",
          "type": "address"
        }
      ],
      "name": "ERC20InvalidSpender",
      "type": "error"
    },
    {
      "inputs": [
        {
          "internalType": "uint256",
          "name": "deadline",
          "type": "uint256"
        }
      ],
      "name": "ERC2612ExpiredSignature",
      "type": "error"
    },
    {
      "inputs": [
        {
          "internalType": "address",
          "name": "signer",
          "type": "address"
        },
        {
          "internalType": "address",
          "name": "owner",
          "type": "address"
        }
      ],
      "name": "ERC2612InvalidSigner",
      "type": "error"
    },
    {
      "inputs": [
        {
          "internalType": "address",
          "name": "account",
          "type": "address"
        },
        {
          "internalType": "uint256",
          "name": "currentNonce",
          "type": "uint256"
        }
      ],
      "name": "InvalidAccountNonce",
      "type": "error"
    },
    {
      "inputs": [],
      "name": "InvalidShortString",
      "type": "error"
    },
    {
      "inputs": [
        {
          "internalType": "string",
          "name": "str",
          "type": "string"
        }
      ],
      "name": "StringTooLong",
      "type": "error"
    },
    {
      "anonymous": false,
      "inputs": [
        {
          "indexed": true,
          "internalType": "address",
          "name": "owner",
          "type": "address"
        },
        {
          "indexed": true,
          "internalType": "address",
          "name": "spender",
          "type": "address"
        },
        {
          "indexed": false,
          "internalType": "uint256",
          "name": "value",
          "type": "uint256"
        }
      ],
      "name": "Approval",
      "type": "event"
    },
    {
      "anonymous": false,
      "inputs": [
        {
          "indexed": false,
          "internalType": "address",
          "name": "from",
          "type": "address"
        },
        {
          "indexed": false,
          "internalType": "uint256",
          "name": "tokenId",
          "type": "uint256"
        },
        {
          "indexed": false,
          "internalType": "uint256",
          "name": "amount",
          "type": "uint256"
        }
      ],
      "name": "DepositToTeam",
      "type": "event"
    },
    {
      "anonymous": false,
      "inputs": [],
      "name": "EIP712DomainChanged",
      "type": "event"
    },
    {
      "anonymous": false,
      "inputs": [
        {
          "indexed": false,
          "internalType": "address",
          "name": "to",
          "type": "address"
        },
        {
          "indexed": false,
          "internalType": "uint256",
          "name": "mintPassId",
          "type": "uint256"
        },
        {
          "indexed": false,
          "internalType": "uint256",
          "name": "amount",
          "type": "uint256"
        }
      ],
      "name": "MintReward",
      "type": "event"
    },
    {
      "anonymous": false,
      "inputs": [
        {
          "indexed": true,
          "internalType": "bytes32",
          "name": "role",
          "type": "bytes32"
        },
        {
          "indexed": true,
          "internalType": "bytes32",
          "name": "previousAdminRole",
          "type": "bytes32"
        },
        {
          "indexed": true,
          "internalType": "bytes32",
          "name": "newAdminRole",
          "type": "bytes32"
        }
      ],
      "name": "RoleAdminChanged",
      "type": "event"
    },
    {
      "anonymous": false,
      "inputs": [
        {
          "indexed": true,
          "internalType": "bytes32",
          "name": "role",
          "type": "bytes32"
        },
        {
          "indexed": true,
          "internalType": "address",
          "name": "account",
          "type": "address"
        },
        {
          "indexed": true,
          "internalType": "address",
          "name": "sender",
          "type": "address"
        }
      ],
      "name": "RoleGranted",
      "type": "event"
    },
    {
      "anonymous": false,
      "inputs": [
        {
          "indexed": true,
          "internalType": "bytes32",
          "name": "role",
          "type": "bytes32"
        },
        {
          "indexed": true,
          "internalType": "address",
          "name": "account",
          "type": "address"
        },
        {
          "indexed": true,
          "internalType": "address",
          "name": "sender",
          "type": "address"
        }
      ],
      "name": "RoleRevoked",
      "type": "event"
    },
    {
      "anonymous": false,
      "inputs": [
        {
          "indexed": true,
          "internalType": "address",
          "name": "from",
          "type": "address"
        },
        {
          "indexed": true,
          "internalType": "address",
          "name": "to",
          "type": "address"
        },
        {
          "indexed": false,
          "internalType": "uint256",
          "name": "value",
          "type": "uint256"
        }
      ],
      "name": "Transfer",
      "type": "event"
    },
    {
      "anonymous": false,
      "inputs": [
        {
          "indexed": false,
          "internalType": "address",
          "name": "to",
          "type": "address"
        },
        {
          "indexed": false,
          "internalType": "uint256",
          "name": "mintPassId",
          "type": "uint256"
        },
        {
          "indexed": false,
          "internalType": "uint256",
          "name": "amount",
          "type": "uint256"
        },
        {
          "indexed": false,
          "internalType": "uint256",
          "name": "tokenId",
          "type": "uint256"
        }
      ],
      "name": "WithdrawFromTeam",
      "type": "event"
    },
    {
      "inputs": [],
      "name": "DEFAULT_ADMIN_ROLE",
      "outputs": [
        {
          "internalType": "bytes32",
          "name": "",
          "type": "bytes32"
        }
      ],
      "stateMutability": "view",
      "type": "function"
    },
    {
      "inputs": [],
      "name": "DOMAIN_SEPARATOR",
      "outputs": [
        {
          "internalType": "bytes32",
          "name": "",
          "type": "bytes32"
        }
      ],
      "stateMutability": "view",
      "type": "function"
    },
    {
      "inputs": [],
      "name": "MINTER_ROLE",
      "outputs": [
        {
          "internalType": "bytes32",
          "name": "",
          "type": "bytes32"
        }
      ],
      "stateMutability": "view",
      "type": "function"
    },
    {
      "inputs": [],
      "name": "MINT_TYPE_DIAMONDS",
      "outputs": [
        {
          "internalType": "uint256",
          "name": "",
          "type": "uint256"
        }
      ],
      "stateMutability": "view",
      "type": "function"
    },
    {
      "inputs": [],
      "name": "MINT_TYPE_WITHDRAW",
      "outputs": [
        {
          "internalType": "uint256",
          "name": "",
          "type": "uint256"
        }
      ],
      "stateMutability": "view",
      "type": "function"
    },
    {
      "inputs": [
        {
          "internalType": "address",
          "name": "owner",
          "type": "address"
        },
        {
          "internalType": "address",
          "name": "spender",
          "type": "address"
        }
      ],
      "name": "allowance",
      "outputs": [
        {
          "internalType": "uint256",
          "name": "",
          "type": "uint256"
        }
      ],
      "stateMutability": "view",
      "type": "function"
    },
    {
      "inputs": [
        {
          "internalType": "address",
          "name": "spender",
          "type": "address"
        },
        {
          "internalType": "uint256",
          "name": "value",
          "type": "uint256"
        }
      ],
      "name": "approve",
      "outputs": [
        {
          "internalType": "bool",
          "name": "",
          "type": "bool"
        }
      ],
      "stateMutability": "nonpayable",
      "type": "function"
    },
    {
      "inputs": [
        {
          "internalType": "address",
          "name": "account",
          "type": "address"
        }
      ],
      "name": "balanceOf",
      "outputs": [
        {
          "internalType": "uint256",
          "name": "",
          "type": "uint256"
        }
      ],
      "stateMutability": "view",
      "type": "function"
    },
    {
      "inputs": [
        {
          "internalType": "uint256",
          "name": "value",
          "type": "uint256"
        }
      ],
      "name": "burn",
      "outputs": [],
      "stateMutability": "nonpayable",
      "type": "function"
    },
    {
      "inputs": [
        {
          "internalType": "address",
          "name": "account",
          "type": "address"
        },
        {
          "internalType": "uint256",
          "name": "value",
          "type": "uint256"
        }
      ],
      "name": "burnFrom",
      "outputs": [],
      "stateMutability": "nonpayable",
      "type": "function"
    },
    {
      "inputs": [],
      "name": "decimals",
      "outputs": [
        {
          "internalType": "uint8",
          "name": "",
          "type": "uint8"
        }
      ],
      "stateMutability": "view",
      "type": "function"
    },
    {
      "inputs": [
        {
          "internalType": "address",
          "name": "from",
          "type": "address"
        },
        {
          "internalType": "uint256",
          "name": "amount",
          "type": "uint256"
        },
        {
          "internalType": "uint256",
          "name": "tokenId",
          "type": "uint256"
        }
      ],
      "name": "deposit",
      "outputs": [],
      "stateMutability": "nonpayable",
      "type": "function"
    },
    {
      "inputs": [],
      "name": "eip712Domain",
      "outputs": [
        {
          "internalType": "bytes1",
          "name": "fields",
          "type": "bytes1"
        },
        {
          "internalType": "string",
          "name": "name",
          "type": "string"
        },
        {
          "internalType": "string",
          "name": "version",
          "type": "string"
        },
        {
          "internalType": "uint256",
          "name": "chainId",
          "type": "uint256"
        },
        {
          "internalType": "address",
          "name": "verifyingContract",
          "type": "address"
        },
        {
          "internalType": "bytes32",
          "name": "salt",
          "type": "bytes32"
        },
        {
          "internalType": "uint256[]",
          "name": "extensions",
          "type": "uint256[]"
        }
      ],
      "stateMutability": "view",
      "type": "function"
    },
    {
      "inputs": [
        {
          "internalType": "bytes32",
          "name": "role",
          "type": "bytes32"
        }
      ],
      "name": "getRoleAdmin",
      "outputs": [
        {
          "internalType": "bytes32",
          "name": "",
          "type": "bytes32"
        }
      ],
      "stateMutability": "view",
      "type": "function"
    },
    {
      "inputs": [
        {
          "internalType": "bytes32",
          "name": "role",
          "type": "bytes32"
        },
        {
          "internalType": "address",
          "name": "account",
          "type": "address"
        }
      ],
      "name": "grantRole",
      "outputs": [],
      "stateMutability": "nonpayable",
      "type": "function"
    },
    {
      "inputs": [
        {
          "internalType": "bytes32",
          "name": "role",
          "type": "bytes32"
        },
        {
          "internalType": "address",
          "name": "account",
          "type": "address"
        }
      ],
      "name": "hasRole",
      "outputs": [
        {
          "internalType": "bool",
          "name": "",
          "type": "bool"
        }
      ],
      "stateMutability": "view",
      "type": "function"
    },
    {
      "inputs": [
        {
          "internalType": "address",
          "name": "to",
          "type": "address"
        },
        {
          "internalType": "uint256",
          "name": "mintPassId",
          "type": "uint256"
        },
        {
          "internalType": "uint256",
          "name": "amount",
          "type": "uint256"
        },
        {
          "internalType": "uint256",
          "name": "expires",
          "type": "uint256"
        },
        {
          "internalType": "uint8",
          "name": "v",
          "type": "uint8"
        },
        {
          "internalType": "bytes32",
          "name": "r",
          "type": "bytes32"
        },
        {
          "internalType": "bytes32",
          "name": "s",
          "type": "bytes32"
        }
      ],
      "name": "mint",
      "outputs": [],
      "stateMutability": "nonpayable",
      "type": "function"
    },
    {
      "inputs": [
        {
          "internalType": "uint256",
          "name": "",
          "type": "uint256"
        }
      ],
      "name": "mintPasses",
      "outputs": [
        {
          "internalType": "bool",
          "name": "",
          "type": "bool"
        }
      ],
      "stateMutability": "view",
      "type": "function"
    },
    {
      "inputs": [],
      "name": "name",
      "outputs": [
        {
          "internalType": "string",
          "name": "",
          "type": "string"
        }
      ],
      "stateMutability": "view",
      "type": "function"
    },
    {
      "inputs": [
        {
          "internalType": "address",
          "name": "owner",
          "type": "address"
        }
      ],
      "name": "nonces",
      "outputs": [
        {
          "internalType": "uint256",
          "name": "",
          "type": "uint256"
        }
      ],
      "stateMutability": "view",
      "type": "function"
    },
    {
      "inputs": [
        {
          "internalType": "address",
          "name": "owner",
          "type": "address"
        },
        {
          "internalType": "address",
          "name": "spender",
          "type": "address"
        },
        {
          "internalType": "uint256",
          "name": "value",
          "type": "uint256"
        },
        {
          "internalType": "uint256",
          "name": "deadline",
          "type": "uint256"
        },
        {
          "internalType": "uint8",
          "name": "v",
          "type": "uint8"
        },
        {
          "internalType": "bytes32",
          "name": "r",
          "type": "bytes32"
        },
        {
          "internalType": "bytes32",
          "name": "s",
          "type": "bytes32"
        }
      ],
      "name": "permit",
      "outputs": [],
      "stateMutability": "nonpayable",
      "type": "function"
    },
    {
      "inputs": [
        {
          "internalType": "bytes32",
          "name": "role",
          "type": "bytes32"
        },
        {
          "internalType": "address",
          "name": "callerConfirmation",
          "type": "address"
        }
      ],
      "name": "renounceRole",
      "outputs": [],
      "stateMutability": "nonpayable",
      "type": "function"
    },
    {
      "inputs": [
        {
          "internalType": "bytes32",
          "name": "role",
          "type": "bytes32"
        },
        {
          "internalType": "address",
          "name": "account",
          "type": "address"
        }
      ],
      "name": "revokeRole",
      "outputs": [],
      "stateMutability": "nonpayable",
      "type": "function"
    },
    {
      "inputs": [
        {
          "internalType": "bytes4",
          "name": "interfaceId",
          "type": "bytes4"
        }
      ],
      "name": "supportsInterface",
      "outputs": [
        {
          "internalType": "bool",
          "name": "",
          "type": "bool"
        }
      ],
      "stateMutability": "view",
      "type": "function"
    },
    {
      "inputs": [],
      "name": "symbol",
      "outputs": [
        {
          "internalType": "string",
          "name": "",
          "type": "string"
        }
      ],
      "stateMutability": "view",
      "type": "function"
    },
    {
      "inputs": [
        {
          "internalType": "uint256",
          "name": "",
          "type": "uint256"
        }
      ],
      "name": "teamDiamondLockExpires",
      "outputs": [
        {
          "internalType": "uint256",
          "name": "",
          "type": "uint256"
        }
      ],
      "stateMutability": "view",
      "type": "function"
    },
    {
      "inputs": [],
      "name": "totalSupply",
      "outputs": [
        {
          "internalType": "uint256",
          "name": "",
          "type": "uint256"
        }
      ],
      "stateMutability": "view",
      "type": "function"
    },
    {
      "inputs": [
        {
          "internalType": "address",
          "name": "to",
          "type": "address"
        },
        {
          "internalType": "uint256",
          "name": "value",
          "type": "uint256"
        }
      ],
      "name": "transfer",
      "outputs": [
        {
          "internalType": "bool",
          "name": "",
          "type": "bool"
        }
      ],
      "stateMutability": "nonpayable",
      "type": "function"
    },
    {
      "inputs": [
        {
          "internalType": "address",
          "name": "from",
          "type": "address"
        },
        {
          "internalType": "address",
          "name": "to",
          "type": "address"
        },
        {
          "internalType": "uint256",
          "name": "value",
          "type": "uint256"
        }
      ],
      "name": "transferFrom",
      "outputs": [
        {
          "internalType": "bool",
          "name": "",
          "type": "bool"
        }
      ],
      "stateMutability": "nonpayable",
      "type": "function"
    },
    {
      "inputs": [
        {
          "internalType": "address",
          "name": "from",
          "type": "address"
        },
        {
          "internalType": "uint256",
          "name": "amount",
          "type": "uint256"
        }
      ],
      "name": "universeBurn",
      "outputs": [],
      "stateMutability": "nonpayable",
      "type": "function"
    },
    {
      "inputs": [
        {
          "internalType": "address",
          "name": "to",
          "type": "address"
        },
        {
          "internalType": "uint256",
          "name": "mintPassId",
          "type": "uint256"
        },
        {
          "internalType": "uint256",
          "name": "amount",
          "type": "uint256"
        },
        {
          "internalType": "uint256",
          "name": "tokenId",
          "type": "uint256"
        },
        {
          "internalType": "uint256",
          "name": "expires",
          "type": "uint256"
        },
        {
          "internalType": "uint8",
          "name": "v",
          "type": "uint8"
        },
        {
          "internalType": "bytes32",
          "name": "r",
          "type": "bytes32"
        },
        {
          "internalType": "bytes32",
          "name": "s",
          "type": "bytes32"
        }
      ],
      "name": "withdraw",
      "outputs": [],
      "stateMutability": "nonpayable",
      "type": "function"
    }
  ],
  "bytecode": "0x6101606040523480156200001257600080fd5b50604051620028bb380380620028bb83398101604081905262000035916200034b565b604051806040016040528060088152602001674469616d6f6e647360c01b81525080604051806040016040528060018152602001603160f81b815250604051806040016040528060088152602001674469616d6f6e647360c01b815250604051806040016040528060078152602001661112505353d39160ca1b8152508160039081620000c391906200043a565b506004620000d282826200043a565b50620000e491508390506006620001f7565b61012052620000f5816007620001f7565b61014052815160208084019190912060e052815190820120610100524660a0526200018360e05161010051604080517f8b73c3c69bb8fe3d512ecc4cf759cc79239f7b179b0ffacaa9a75d522b39400f60208201529081019290925260608201524660808201523060a082015260009060c00160405160208183030381529060405280519060200120905090565b60805250503060c05250600980546001600160a01b0319166001600160a01b038516179055620001b560008362000230565b50620001d16000805160206200289b8339815191528262000230565b50620001ed6000805160206200289b8339815191528462000230565b505050506200057b565b600060208351101562000217576200020f83620002e2565b90506200022a565b816200022484826200043a565b5060ff90505b92915050565b60008281526005602090815260408083206001600160a01b038516845290915281205460ff16620002d95760008381526005602090815260408083206001600160a01b03861684529091529020805460ff19166001179055620002903390565b6001600160a01b0316826001600160a01b0316847f2f8788117e7eff1d82e926ec794901d17c78024a50270940304540a733656f0d60405160405180910390a45060016200022a565b5060006200022a565b600080829050601f8151111562000319578260405163305a27a960e01b815260040162000310919062000506565b60405180910390fd5b8051620003268262000556565b179392505050565b80516001600160a01b03811681146200034657600080fd5b919050565b6000806000606084860312156200036157600080fd5b6200036c846200032e565b92506200037c602085016200032e565b91506200038c604085016200032e565b90509250925092565b634e487b7160e01b600052604160045260246000fd5b600181811c90821680620003c057607f821691505b602082108103620003e157634e487b7160e01b600052602260045260246000fd5b50919050565b601f8211156200043557600081815260208120601f850160051c81016020861015620004105750805b601f850160051c820191505b8181101562000431578281556001016200041c565b5050505b505050565b81516001600160401b0381111562000456576200045662000395565b6200046e81620004678454620003ab565b84620003e7565b602080601f831160018114620004a657600084156200048d5750858301515b600019600386901b1c1916600185901b17855562000431565b600085815260208120601f198616915b82811015620004d757888601518255948401946001909101908401620004b6565b5085821015620004f65787850151600019600388901b60f8161c191681555b5050505050600190811b01905550565b600060208083528351808285015260005b81811015620005355785810183015185820160400152820162000517565b506000604082860101526040601f19601f8301168501019250505092915050565b80516020808301519190811015620003e15760001960209190910360031b1b16919050565b60805160a05160c05160e0516101005161012051610140516122c5620005d660003960006116c70152600061169a015260006115830152600061155b015260006114b6015260006114e00152600061150a01526122c56000f3fe608060405234801561001057600080fd5b50600436106101e55760003560e01c806342966c681161010f578063a217fddf116100a2578063d505accf11610071578063d505accf14610453578063d539139314610466578063d547741f1461048d578063dd62ed3e146104a057600080fd5b8063a217fddf1461040d578063a9059cbb14610415578063af95f9fb14610428578063cd8b73cb1461044b57600080fd5b80637ecebe00116100de5780637ecebe001461039157806384b0196e146103a457806391d14854146103bf57806395d89b411461040557600080fd5b806342966c68146103225780635f3317a01461033557806370a082311461034857806379cc67901461037e57600080fd5b8063281b813f1161018757806330fd5f6d1161015657806330fd5f6d146102e5578063313ce567146102f85780633644e5151461030757806336568abe1461030f57600080fd5b8063281b813f146102975780632ebea1ee146102aa5780632f2ff15d146102ca578063301440f1146102dd57600080fd5b80630efe6a8b116101c35780630efe6a8b1461023a57806318160ddd1461024f57806323b872dd14610261578063248a9ca31461027457600080fd5b806301ffc9a7146101ea57806306fdde0314610212578063095ea7b314610227575b600080fd5b6101fd6101f8366004611dd9565b6104e6565b60405190151581526020015b60405180910390f35b61021a61057f565b6040516102099190611e86565b6101fd610235366004611ec2565b610611565b61024d610248366004611eec565b610629565b005b6002545b604051908152602001610209565b6101fd61026f366004611f1f565b61068f565b610253610282366004611f5b565b60009081526005602052604090206001015490565b61024d6102a5366004611ec2565b6106b3565b6102536102b8366004611f5b565b600a6020526000908152604090205481565b61024d6102d8366004611f74565b6106e7565b610253600481565b61024d6102f3366004611fb1565b610712565b60405160128152602001610209565b610253610ab6565b61024d61031d366004611f74565b610ac5565b61024d610330366004611f5b565b610b1e565b61024d61034336600461201e565b610b2b565b610253610356366004612081565b73ffffffffffffffffffffffffffffffffffffffff1660009081526020819052604090205490565b61024d61038c366004611ec2565b610ea1565b61025361039f366004612081565b610eba565b6103ac610ee5565b604051610209979695949392919061209c565b6101fd6103cd366004611f74565b600091825260056020908152604080842073ffffffffffffffffffffffffffffffffffffffff93909316845291905290205460ff1690565b61021a610f47565b610253600081565b6101fd610423366004611ec2565b610f56565b6101fd610436366004611f5b565b600b6020526000908152604090205460ff1681565b610253600381565b61024d61046136600461215b565b610f64565b6102537f9f2df0fed2c77648de5860a4cc508cd0818c85b8b8a1ab4ceeef8d981c8956a681565b61024d61049b366004611f74565b611105565b6102536104ae3660046121a9565b73ffffffffffffffffffffffffffffffffffffffff918216600090815260016020908152604080832093909416825291909152205490565b60007fffffffff0000000000000000000000000000000000000000000000000000000082167f7965db0b00000000000000000000000000000000000000000000000000000000148061057957507f01ffc9a7000000000000000000000000000000000000000000000000000000007fffffffff000000000000000000000000000000000000000000000000000000008316145b92915050565b60606003805461058e906121d3565b80601f01602080910402602001604051908101604052809291908181526020018280546105ba906121d3565b80156106075780601f106105dc57610100808354040283529160200191610607565b820191906000526020600020905b8154815290600101906020018083116105ea57829003601f168201915b5050505050905090565b60003361061f81858561112a565b5060019392505050565b6040805173ffffffffffffffffffffffffffffffffffffffff85168152602081018390529081018390527f08060332c5952766525fee26ad1fe19feedf45b7a2fbf2a141de9c37ae5cfdc49060600160405180910390a161068a8383611137565b505050565b60003361069d858285611193565b6106a885858561125d565b506001949350505050565b7f9f2df0fed2c77648de5860a4cc508cd0818c85b8b8a1ab4ceeef8d981c8956a66106dd81611308565b61068a8383611137565b60008281526005602052604090206001015461070281611308565b61070c8383611312565b50505050565b73ffffffffffffffffffffffffffffffffffffffff88163314610796576040517f08c379a000000000000000000000000000000000000000000000000000000000815260206004820152600d60248201527f57726f6e672077616c6c65742e0000000000000000000000000000000000000060448201526064015b60405180910390fd5b6000878152600b602052604090205460ff161561080f576040517f08c379a000000000000000000000000000000000000000000000000000000000815260206004820152601760248201527f4d696e74207061737320616c726561647920757365642e000000000000000000604482015260640161078d565b6040805160208101899052908101879052606081018690526080810185905273ffffffffffffffffffffffffffffffffffffffff891660a0820152600360c082015260009060e0016040516020818303038152906040528051906020012090506000816040516020016108ae91907f19457468657265756d205369676e6564204d6573736167653a0a3332000000008152601c810191909152603c0190565b60405160208183030381529060405280519060200120905060006108d482878787611412565b73ffffffffffffffffffffffffffffffffffffffff811660009081527f15a28d26fa1bf736cf7edc9922607171ccb09c3c73b808e7772a3013e068a522602052604090205490915060ff16610985576040517f08c379a000000000000000000000000000000000000000000000000000000000815260206004820152601860248201527f4d757374206265207369676e6564206279206d696e7465720000000000000000604482015260640161078d565b864211156109ef576040517f08c379a000000000000000000000000000000000000000000000000000000000815260206004820152600860248201527f457870697265642e000000000000000000000000000000000000000000000000604482015260640161078d565b6040805173ffffffffffffffffffffffffffffffffffffffff8d168152602081018c90529081018a9052606081018990527f7de2925f47bba666e5c99fe6d577634f5cf08d575bbd9a60f669e5c245bef4d59060800160405180910390a160008a8152600b6020526040902080547fffffffffffffffffffffffffffffffffffffffffffffffffffffffffffffff00166001179055610a9042610e10612226565b6000898152600a6020526040902055610aa98b8a611440565b5050505050505050505050565b6000610ac061149c565b905090565b73ffffffffffffffffffffffffffffffffffffffff81163314610b14576040517f6697b23200000000000000000000000000000000000000000000000000000000815260040160405180910390fd5b61068a82826115d4565b610b283382611137565b50565b73ffffffffffffffffffffffffffffffffffffffff87163314610baa576040517f08c379a000000000000000000000000000000000000000000000000000000000815260206004820152600d60248201527f57726f6e672077616c6c65742e00000000000000000000000000000000000000604482015260640161078d565b6000868152600b602052604090205460ff1615610c23576040517f08c379a000000000000000000000000000000000000000000000000000000000815260206004820152601760248201527f4d696e74207061737320616c726561647920757365642e000000000000000000604482015260640161078d565b60408051602081018890529081018690526060810185905273ffffffffffffffffffffffffffffffffffffffff88166080820152600460a082015260009060c001604051602081830303815290604052805190602001209050600081604051602001610cbb91907f19457468657265756d205369676e6564204d6573736167653a0a3332000000008152601c810191909152603c0190565b6040516020818303038152906040528051906020012090506000610ce182878787611412565b73ffffffffffffffffffffffffffffffffffffffff811660009081527f15a28d26fa1bf736cf7edc9922607171ccb09c3c73b808e7772a3013e068a522602052604090205490915060ff16610d92576040517f08c379a000000000000000000000000000000000000000000000000000000000815260206004820152601860248201527f4d757374206265207369676e6564206279206d696e7465720000000000000000604482015260640161078d565b86421115610dfc576040517f08c379a000000000000000000000000000000000000000000000000000000000815260206004820152600860248201527f457870697265642e000000000000000000000000000000000000000000000000604482015260640161078d565b6000898152600b602090815260409182902080547fffffffffffffffffffffffffffffffffffffffffffffffffffffffffffffff00166001179055815173ffffffffffffffffffffffffffffffffffffffff8d1681529081018b90529081018990527f6e6164e9bbef467f7f8a1f5712dfaf149ebf1622810ec53e99e131b1687fed4b9060600160405180910390a1610e958a89611440565b50505050505050505050565b610eac823383611193565b610eb68282611137565b5050565b73ffffffffffffffffffffffffffffffffffffffff8116600090815260086020526040812054610579565b600060608060008060006060610ef9611693565b610f016116c0565b604080516000808252602082019092527f0f000000000000000000000000000000000000000000000000000000000000009b939a50919850469750309650945092509050565b60606004805461058e906121d3565b60003361061f81858561125d565b83421115610fa1576040517f627913020000000000000000000000000000000000000000000000000000000081526004810185905260240161078d565b60007f6e71edae12b1b97f4d1f60370fef10105fa2faae0126114a169c64845d6126c9888888610ffb8c73ffffffffffffffffffffffffffffffffffffffff16600090815260086020526040902080546001810190915590565b60408051602081019690965273ffffffffffffffffffffffffffffffffffffffff94851690860152929091166060840152608083015260a082015260c0810186905260e0016040516020818303038152906040528051906020012090506000611063826116ed565b9050600061107382878787611412565b90508973ffffffffffffffffffffffffffffffffffffffff168173ffffffffffffffffffffffffffffffffffffffff16146110fa576040517f4b800e4600000000000000000000000000000000000000000000000000000000815273ffffffffffffffffffffffffffffffffffffffff80831660048301528b16602482015260440161078d565b610e958a8a8a61112a565b60008281526005602052604090206001015461112081611308565b61070c83836115d4565b61068a8383836001611735565b73ffffffffffffffffffffffffffffffffffffffff8216611187576040517f96c6fd1e0000000000000000000000000000000000000000000000000000000081526000600482015260240161078d565b610eb68260008361187d565b73ffffffffffffffffffffffffffffffffffffffff8381166000908152600160209081526040808320938616835292905220547fffffffffffffffffffffffffffffffffffffffffffffffffffffffffffffffff81101561070c578181101561124e576040517ffb8f41b200000000000000000000000000000000000000000000000000000000815273ffffffffffffffffffffffffffffffffffffffff84166004820152602481018290526044810183905260640161078d565b61070c84848484036000611735565b73ffffffffffffffffffffffffffffffffffffffff83166112ad576040517f96c6fd1e0000000000000000000000000000000000000000000000000000000081526000600482015260240161078d565b73ffffffffffffffffffffffffffffffffffffffff82166112fd576040517fec442f050000000000000000000000000000000000000000000000000000000081526000600482015260240161078d565b61068a83838361187d565b610b288133611a28565b600082815260056020908152604080832073ffffffffffffffffffffffffffffffffffffffff8516845290915281205460ff1661140a57600083815260056020908152604080832073ffffffffffffffffffffffffffffffffffffffff86168452909152902080547fffffffffffffffffffffffffffffffffffffffffffffffffffffffffffffff001660011790556113a83390565b73ffffffffffffffffffffffffffffffffffffffff168273ffffffffffffffffffffffffffffffffffffffff16847f2f8788117e7eff1d82e926ec794901d17c78024a50270940304540a733656f0d60405160405180910390a4506001610579565b506000610579565b60008060008061142488888888611ab0565b9250925092506114348282611baa565b50909695505050505050565b73ffffffffffffffffffffffffffffffffffffffff8216611490576040517fec442f050000000000000000000000000000000000000000000000000000000081526000600482015260240161078d565b610eb66000838361187d565b60003073ffffffffffffffffffffffffffffffffffffffff7f00000000000000000000000000000000000000000000000000000000000000001614801561150257507f000000000000000000000000000000000000000000000000000000000000000046145b1561152c57507f000000000000000000000000000000000000000000000000000000000000000090565b610ac0604080517f8b73c3c69bb8fe3d512ecc4cf759cc79239f7b179b0ffacaa9a75d522b39400f60208201527f0000000000000000000000000000000000000000000000000000000000000000918101919091527f000000000000000000000000000000000000000000000000000000000000000060608201524660808201523060a082015260009060c00160405160208183030381529060405280519060200120905090565b600082815260056020908152604080832073ffffffffffffffffffffffffffffffffffffffff8516845290915281205460ff161561140a57600083815260056020908152604080832073ffffffffffffffffffffffffffffffffffffffff8616808552925280832080547fffffffffffffffffffffffffffffffffffffffffffffffffffffffffffffff0016905551339286917ff6391f5c32d9c69d2a47ea670b442974b53935d1edc7fd64eb21e047a839171b9190a4506001610579565b6060610ac07f00000000000000000000000000000000000000000000000000000000000000006006611cae565b6060610ac07f00000000000000000000000000000000000000000000000000000000000000006007611cae565b60006105796116fa61149c565b836040517f19010000000000000000000000000000000000000000000000000000000000008152600281019290925260228201526042902090565b73ffffffffffffffffffffffffffffffffffffffff8416611785576040517fe602df050000000000000000000000000000000000000000000000000000000081526000600482015260240161078d565b73ffffffffffffffffffffffffffffffffffffffff83166117d5576040517f94280d620000000000000000000000000000000000000000000000000000000081526000600482015260240161078d565b73ffffffffffffffffffffffffffffffffffffffff8085166000908152600160209081526040808320938716835292905220829055801561070c578273ffffffffffffffffffffffffffffffffffffffff168473ffffffffffffffffffffffffffffffffffffffff167f8c5be1e5ebec7d5bd14f71427d1e84f3dd0314c0f7b2291e5b200ac8c7c3b9258460405161186f91815260200190565b60405180910390a350505050565b73ffffffffffffffffffffffffffffffffffffffff83166118b55780600260008282546118aa9190612226565b909155506119679050565b73ffffffffffffffffffffffffffffffffffffffff83166000908152602081905260409020548181101561193b576040517fe450d38c00000000000000000000000000000000000000000000000000000000815273ffffffffffffffffffffffffffffffffffffffff85166004820152602481018290526044810183905260640161078d565b73ffffffffffffffffffffffffffffffffffffffff841660009081526020819052604090209082900390555b73ffffffffffffffffffffffffffffffffffffffff8216611990576002805482900390556119bc565b73ffffffffffffffffffffffffffffffffffffffff821660009081526020819052604090208054820190555b8173ffffffffffffffffffffffffffffffffffffffff168373ffffffffffffffffffffffffffffffffffffffff167fddf252ad1be2c89b69c2b068fc378daa952ba7f163c4a11628f55a4df523b3ef83604051611a1b91815260200190565b60405180910390a3505050565b600082815260056020908152604080832073ffffffffffffffffffffffffffffffffffffffff8516845290915290205460ff16610eb6576040517fe2517d3f00000000000000000000000000000000000000000000000000000000815273ffffffffffffffffffffffffffffffffffffffff821660048201526024810183905260440161078d565b600080807f7fffffffffffffffffffffffffffffff5d576e7357a4501ddfe92f46681b20a0841115611aeb5750600091506003905082611ba0565b604080516000808252602082018084528a905260ff891692820192909252606081018790526080810186905260019060a0016020604051602081039080840390855afa158015611b3f573d6000803e3d6000fd5b50506040517fffffffffffffffffffffffffffffffffffffffffffffffffffffffffffffffe0015191505073ffffffffffffffffffffffffffffffffffffffff8116611b9657506000925060019150829050611ba0565b9250600091508190505b9450945094915050565b6000826003811115611bbe57611bbe612260565b03611bc7575050565b6001826003811115611bdb57611bdb612260565b03611c12576040517ff645eedf00000000000000000000000000000000000000000000000000000000815260040160405180910390fd5b6002826003811115611c2657611c26612260565b03611c60576040517ffce698f70000000000000000000000000000000000000000000000000000000081526004810182905260240161078d565b6003826003811115611c7457611c74612260565b03610eb6576040517fd78bce0c0000000000000000000000000000000000000000000000000000000081526004810182905260240161078d565b606060ff8314611cc857611cc183611d59565b9050610579565b818054611cd4906121d3565b80601f0160208091040260200160405190810160405280929190818152602001828054611d00906121d3565b8015611d4d5780601f10611d2257610100808354040283529160200191611d4d565b820191906000526020600020905b815481529060010190602001808311611d3057829003601f168201915b50505050509050610579565b60606000611d6683611d98565b604080516020808252818301909252919250600091906020820181803683375050509182525060208101929092525090565b600060ff8216601f811115610579576040517fb3512b0c00000000000000000000000000000000000000000000000000000000815260040160405180910390fd5b600060208284031215611deb57600080fd5b81357fffffffff0000000000000000000000000000000000000000000000000000000081168114611e1b57600080fd5b9392505050565b6000815180845260005b81811015611e4857602081850181015186830182015201611e2c565b5060006020828601015260207fffffffffffffffffffffffffffffffffffffffffffffffffffffffffffffffe0601f83011685010191505092915050565b602081526000611e1b6020830184611e22565b803573ffffffffffffffffffffffffffffffffffffffff81168114611ebd57600080fd5b919050565b60008060408385031215611ed557600080fd5b611ede83611e99565b946020939093013593505050565b600080600060608486031215611f0157600080fd5b611f0a84611e99565b95602085013595506040909401359392505050565b600080600060608486031215611f3457600080fd5b611f3d84611e99565b9250611f4b60208501611e99565b9150604084013590509250925092565b600060208284031215611f6d57600080fd5b5035919050565b60008060408385031215611f8757600080fd5b82359150611f9760208401611e99565b90509250929050565b803560ff81168114611ebd57600080fd5b600080600080600080600080610100898b031215611fce57600080fd5b611fd789611e99565b97506020890135965060408901359550606089013594506080890135935061200160a08a01611fa0565b925060c0890135915060e089013590509295985092959890939650565b600080600080600080600060e0888a03121561203957600080fd5b61204288611e99565b965060208801359550604088013594506060880135935061206560808901611fa0565b925060a0880135915060c0880135905092959891949750929550565b60006020828403121561209357600080fd5b611e1b82611e99565b7fff00000000000000000000000000000000000000000000000000000000000000881681526000602060e0818401526120d860e084018a611e22565b83810360408501526120ea818a611e22565b6060850189905273ffffffffffffffffffffffffffffffffffffffff8816608086015260a0850187905284810360c0860152855180825283870192509083019060005b818110156121495783518352928401929184019160010161212d565b50909c9b505050505050505050505050565b600080600080600080600060e0888a03121561217657600080fd5b61217f88611e99565b965061218d60208901611e99565b9550604088013594506060880135935061206560808901611fa0565b600080604083850312156121bc57600080fd5b6121c583611e99565b9150611f9760208401611e99565b600181811c908216806121e757607f821691505b602082108103612220577f4e487b7100000000000000000000000000000000000000000000000000000000600052602260045260246000fd5b50919050565b80820180821115610579577f4e487b7100000000000000000000000000000000000000000000000000000000600052601160045260246000fd5b7f4e487b7100000000000000000000000000000000000000000000000000000000600052602160045260246000fdfea26469706673582212207e570e1a76905bff8cc9d11552cf018fda42424b177ffbbb8afc40383ce9a55c64736f6c634300081500339f2df0fed2c77648de5860a4cc508cd0818c85b8b8a1ab4ceeef8d981c8956a6",
  "linkReferences": {},
  "deployedLinkReferences": {}
}