{
  "_format": "hh-sol-artifact-1",
  "contractName": "Diamonds",
  "sourceName": "contracts/Diamonds.sol",
  "abi": [
    {
      "inputs": [
        {
          "internalType": "address",
          "name": "universeAddress",
          "type": "address"
        },
        {
          "internalType": "address",
          "name": "defaultAdmin",
          "type": "address"
        },
        {
          "internalType": "address",
          "name": "minter",
          "type": "address"
        }
      ],
      "stateMutability": "nonpayable",
      "type": "constructor"
    },
    {
      "inputs": [],
      "name": "AccessControlBadConfirmation",
      "type": "error"
    },
    {
      "inputs": [
        {
          "internalType": "address",
          "name": "account",
          "type": "address"
        },
        {
          "internalType": "bytes32",
          "name": "neededRole",
          "type": "bytes32"
        }
      ],
      "name": "AccessControlUnauthorizedAccount",
      "type": "error"
    },
    {
      "inputs": [],
      "name": "ECDSAInvalidSignature",
      "type": "error"
    },
    {
      "inputs": [
        {
          "internalType": "uint256",
          "name": "length",
          "type": "uint256"
        }
      ],
      "name": "ECDSAInvalidSignatureLength",
      "type": "error"
    },
    {
      "inputs": [
        {
          "internalType": "bytes32",
          "name": "s",
          "type": "bytes32"
        }
      ],
      "name": "ECDSAInvalidSignatureS",
      "type": "error"
    },
    {
      "inputs": [
        {
          "internalType": "address",
          "name": "spender",
          "type": "address"
        },
        {
          "internalType": "uint256",
          "name": "allowance",
          "type": "uint256"
        },
        {
          "internalType": "uint256",
          "name": "needed",
          "type": "uint256"
        }
      ],
      "name": "ERC20InsufficientAllowance",
      "type": "error"
    },
    {
      "inputs": [
        {
          "internalType": "address",
          "name": "sender",
          "type": "address"
        },
        {
          "internalType": "uint256",
          "name": "balance",
          "type": "uint256"
        },
        {
          "internalType": "uint256",
          "name": "needed",
          "type": "uint256"
        }
      ],
      "name": "ERC20InsufficientBalance",
      "type": "error"
    },
    {
      "inputs": [
        {
          "internalType": "address",
          "name": "approver",
          "type": "address"
        }
      ],
      "name": "ERC20InvalidApprover",
      "type": "error"
    },
    {
      "inputs": [
        {
          "internalType": "address",
          "name": "receiver",
          "type": "address"
        }
      ],
      "name": "ERC20InvalidReceiver",
      "type": "error"
    },
    {
      "inputs": [
        {
          "internalType": "address",
          "name": "sender",
          "type": "address"
        }
      ],
      "name": "ERC20InvalidSender",
      "type": "error"
    },
    {
      "inputs": [
        {
          "internalType": "address",
          "name": "spender",
          "type": "address"
        }
      ],
      "name": "ERC20InvalidSpender",
      "type": "error"
    },
    {
      "inputs": [
        {
          "internalType": "uint256",
          "name": "deadline",
          "type": "uint256"
        }
      ],
      "name": "ERC2612ExpiredSignature",
      "type": "error"
    },
    {
      "inputs": [
        {
          "internalType": "address",
          "name": "signer",
          "type": "address"
        },
        {
          "internalType": "address",
          "name": "owner",
          "type": "address"
        }
      ],
      "name": "ERC2612InvalidSigner",
      "type": "error"
    },
    {
      "inputs": [
        {
          "internalType": "address",
          "name": "account",
          "type": "address"
        },
        {
          "internalType": "uint256",
          "name": "currentNonce",
          "type": "uint256"
        }
      ],
      "name": "InvalidAccountNonce",
      "type": "error"
    },
    {
      "inputs": [],
      "name": "InvalidShortString",
      "type": "error"
    },
    {
      "inputs": [
        {
          "internalType": "string",
          "name": "str",
          "type": "string"
        }
      ],
      "name": "StringTooLong",
      "type": "error"
    },
    {
      "anonymous": false,
      "inputs": [
        {
          "indexed": true,
          "internalType": "address",
          "name": "owner",
          "type": "address"
        },
        {
          "indexed": true,
          "internalType": "address",
          "name": "spender",
          "type": "address"
        },
        {
          "indexed": false,
          "internalType": "uint256",
          "name": "value",
          "type": "uint256"
        }
      ],
      "name": "Approval",
      "type": "event"
    },
    {
      "anonymous": false,
      "inputs": [
        {
          "indexed": false,
          "internalType": "address",
          "name": "from",
          "type": "address"
        },
        {
          "indexed": false,
          "internalType": "uint256",
          "name": "amount",
          "type": "uint256"
        }
      ],
      "name": "DepositToTeam",
      "type": "event"
    },
    {
      "anonymous": false,
      "inputs": [],
      "name": "EIP712DomainChanged",
      "type": "event"
    },
    {
      "anonymous": false,
      "inputs": [
        {
          "indexed": false,
          "internalType": "address",
          "name": "to",
          "type": "address"
        },
        {
          "indexed": false,
          "internalType": "uint256",
          "name": "mintPassId",
          "type": "uint256"
        },
        {
          "indexed": false,
          "internalType": "uint256",
          "name": "amount",
          "type": "uint256"
        }
      ],
      "name": "MintReward",
      "type": "event"
    },
    {
      "anonymous": false,
      "inputs": [
        {
          "indexed": true,
          "internalType": "bytes32",
          "name": "role",
          "type": "bytes32"
        },
        {
          "indexed": true,
          "internalType": "bytes32",
          "name": "previousAdminRole",
          "type": "bytes32"
        },
        {
          "indexed": true,
          "internalType": "bytes32",
          "name": "newAdminRole",
          "type": "bytes32"
        }
      ],
      "name": "RoleAdminChanged",
      "type": "event"
    },
    {
      "anonymous": false,
      "inputs": [
        {
          "indexed": true,
          "internalType": "bytes32",
          "name": "role",
          "type": "bytes32"
        },
        {
          "indexed": true,
          "internalType": "address",
          "name": "account",
          "type": "address"
        },
        {
          "indexed": true,
          "internalType": "address",
          "name": "sender",
          "type": "address"
        }
      ],
      "name": "RoleGranted",
      "type": "event"
    },
    {
      "anonymous": false,
      "inputs": [
        {
          "indexed": true,
          "internalType": "bytes32",
          "name": "role",
          "type": "bytes32"
        },
        {
          "indexed": true,
          "internalType": "address",
          "name": "account",
          "type": "address"
        },
        {
          "indexed": true,
          "internalType": "address",
          "name": "sender",
          "type": "address"
        }
      ],
      "name": "RoleRevoked",
      "type": "event"
    },
    {
      "anonymous": false,
      "inputs": [
        {
          "indexed": true,
          "internalType": "address",
          "name": "from",
          "type": "address"
        },
        {
          "indexed": true,
          "internalType": "address",
          "name": "to",
          "type": "address"
        },
        {
          "indexed": false,
          "internalType": "uint256",
          "name": "value",
          "type": "uint256"
        }
      ],
      "name": "Transfer",
      "type": "event"
    },
    {
      "inputs": [],
      "name": "DEFAULT_ADMIN_ROLE",
      "outputs": [
        {
          "internalType": "bytes32",
          "name": "",
          "type": "bytes32"
        }
      ],
      "stateMutability": "view",
      "type": "function"
    },
    {
      "inputs": [],
      "name": "DOMAIN_SEPARATOR",
      "outputs": [
        {
          "internalType": "bytes32",
          "name": "",
          "type": "bytes32"
        }
      ],
      "stateMutability": "view",
      "type": "function"
    },
    {
      "inputs": [],
      "name": "MINTER_ROLE",
      "outputs": [
        {
          "internalType": "bytes32",
          "name": "",
          "type": "bytes32"
        }
      ],
      "stateMutability": "view",
      "type": "function"
    },
    {
      "inputs": [],
      "name": "MINT_TYPE_DIAMONDS",
      "outputs": [
        {
          "internalType": "uint256",
          "name": "",
          "type": "uint256"
        }
      ],
      "stateMutability": "view",
      "type": "function"
    },
    {
      "inputs": [],
      "name": "MINT_TYPE_WITHDRAW",
      "outputs": [
        {
          "internalType": "uint256",
          "name": "",
          "type": "uint256"
        }
      ],
      "stateMutability": "view",
      "type": "function"
    },
    {
      "inputs": [
        {
          "internalType": "address",
          "name": "owner",
          "type": "address"
        },
        {
          "internalType": "address",
          "name": "spender",
          "type": "address"
        }
      ],
      "name": "allowance",
      "outputs": [
        {
          "internalType": "uint256",
          "name": "",
          "type": "uint256"
        }
      ],
      "stateMutability": "view",
      "type": "function"
    },
    {
      "inputs": [
        {
          "internalType": "address",
          "name": "spender",
          "type": "address"
        },
        {
          "internalType": "uint256",
          "name": "value",
          "type": "uint256"
        }
      ],
      "name": "approve",
      "outputs": [
        {
          "internalType": "bool",
          "name": "",
          "type": "bool"
        }
      ],
      "stateMutability": "nonpayable",
      "type": "function"
    },
    {
      "inputs": [
        {
          "internalType": "address",
          "name": "account",
          "type": "address"
        }
      ],
      "name": "balanceOf",
      "outputs": [
        {
          "internalType": "uint256",
          "name": "",
          "type": "uint256"
        }
      ],
      "stateMutability": "view",
      "type": "function"
    },
    {
      "inputs": [
        {
          "internalType": "uint256",
          "name": "value",
          "type": "uint256"
        }
      ],
      "name": "burn",
      "outputs": [],
      "stateMutability": "nonpayable",
      "type": "function"
    },
    {
      "inputs": [
        {
          "internalType": "address",
          "name": "account",
          "type": "address"
        },
        {
          "internalType": "uint256",
          "name": "value",
          "type": "uint256"
        }
      ],
      "name": "burnFrom",
      "outputs": [],
      "stateMutability": "nonpayable",
      "type": "function"
    },
    {
      "inputs": [],
      "name": "decimals",
      "outputs": [
        {
          "internalType": "uint8",
          "name": "",
          "type": "uint8"
        }
      ],
      "stateMutability": "view",
      "type": "function"
    },
    {
      "inputs": [
        {
          "internalType": "address",
          "name": "from",
          "type": "address"
        },
        {
          "internalType": "uint256",
          "name": "amount",
          "type": "uint256"
        }
      ],
      "name": "deposit",
      "outputs": [],
      "stateMutability": "nonpayable",
      "type": "function"
    },
    {
      "inputs": [],
      "name": "eip712Domain",
      "outputs": [
        {
          "internalType": "bytes1",
          "name": "fields",
          "type": "bytes1"
        },
        {
          "internalType": "string",
          "name": "name",
          "type": "string"
        },
        {
          "internalType": "string",
          "name": "version",
          "type": "string"
        },
        {
          "internalType": "uint256",
          "name": "chainId",
          "type": "uint256"
        },
        {
          "internalType": "address",
          "name": "verifyingContract",
          "type": "address"
        },
        {
          "internalType": "bytes32",
          "name": "salt",
          "type": "bytes32"
        },
        {
          "internalType": "uint256[]",
          "name": "extensions",
          "type": "uint256[]"
        }
      ],
      "stateMutability": "view",
      "type": "function"
    },
    {
      "inputs": [
        {
          "internalType": "bytes32",
          "name": "role",
          "type": "bytes32"
        }
      ],
      "name": "getRoleAdmin",
      "outputs": [
        {
          "internalType": "bytes32",
          "name": "",
          "type": "bytes32"
        }
      ],
      "stateMutability": "view",
      "type": "function"
    },
    {
      "inputs": [
        {
          "internalType": "bytes32",
          "name": "role",
          "type": "bytes32"
        },
        {
          "internalType": "address",
          "name": "account",
          "type": "address"
        }
      ],
      "name": "grantRole",
      "outputs": [],
      "stateMutability": "nonpayable",
      "type": "function"
    },
    {
      "inputs": [
        {
          "internalType": "bytes32",
          "name": "role",
          "type": "bytes32"
        },
        {
          "internalType": "address",
          "name": "account",
          "type": "address"
        }
      ],
      "name": "hasRole",
      "outputs": [
        {
          "internalType": "bool",
          "name": "",
          "type": "bool"
        }
      ],
      "stateMutability": "view",
      "type": "function"
    },
    {
      "inputs": [
        {
          "internalType": "address",
          "name": "to",
          "type": "address"
        },
        {
          "internalType": "uint256",
          "name": "mintPassId",
          "type": "uint256"
        },
        {
          "internalType": "uint256",
          "name": "amount",
          "type": "uint256"
        },
        {
          "internalType": "uint256",
          "name": "expires",
          "type": "uint256"
        },
        {
          "internalType": "uint8",
          "name": "v",
          "type": "uint8"
        },
        {
          "internalType": "bytes32",
          "name": "r",
          "type": "bytes32"
        },
        {
          "internalType": "bytes32",
          "name": "s",
          "type": "bytes32"
        }
      ],
      "name": "mint",
      "outputs": [],
      "stateMutability": "nonpayable",
      "type": "function"
    },
    {
      "inputs": [
        {
          "internalType": "uint256",
          "name": "",
          "type": "uint256"
        }
      ],
      "name": "mintPasses",
      "outputs": [
        {
          "internalType": "bool",
          "name": "",
          "type": "bool"
        }
      ],
      "stateMutability": "view",
      "type": "function"
    },
    {
      "inputs": [],
      "name": "name",
      "outputs": [
        {
          "internalType": "string",
          "name": "",
          "type": "string"
        }
      ],
      "stateMutability": "view",
      "type": "function"
    },
    {
      "inputs": [
        {
          "internalType": "address",
          "name": "owner",
          "type": "address"
        }
      ],
      "name": "nonces",
      "outputs": [
        {
          "internalType": "uint256",
          "name": "",
          "type": "uint256"
        }
      ],
      "stateMutability": "view",
      "type": "function"
    },
    {
      "inputs": [
        {
          "internalType": "address",
          "name": "owner",
          "type": "address"
        },
        {
          "internalType": "address",
          "name": "spender",
          "type": "address"
        },
        {
          "internalType": "uint256",
          "name": "value",
          "type": "uint256"
        },
        {
          "internalType": "uint256",
          "name": "deadline",
          "type": "uint256"
        },
        {
          "internalType": "uint8",
          "name": "v",
          "type": "uint8"
        },
        {
          "internalType": "bytes32",
          "name": "r",
          "type": "bytes32"
        },
        {
          "internalType": "bytes32",
          "name": "s",
          "type": "bytes32"
        }
      ],
      "name": "permit",
      "outputs": [],
      "stateMutability": "nonpayable",
      "type": "function"
    },
    {
      "inputs": [
        {
          "internalType": "bytes32",
          "name": "role",
          "type": "bytes32"
        },
        {
          "internalType": "address",
          "name": "callerConfirmation",
          "type": "address"
        }
      ],
      "name": "renounceRole",
      "outputs": [],
      "stateMutability": "nonpayable",
      "type": "function"
    },
    {
      "inputs": [
        {
          "internalType": "bytes32",
          "name": "role",
          "type": "bytes32"
        },
        {
          "internalType": "address",
          "name": "account",
          "type": "address"
        }
      ],
      "name": "revokeRole",
      "outputs": [],
      "stateMutability": "nonpayable",
      "type": "function"
    },
    {
      "inputs": [
        {
          "internalType": "bytes4",
          "name": "interfaceId",
          "type": "bytes4"
        }
      ],
      "name": "supportsInterface",
      "outputs": [
        {
          "internalType": "bool",
          "name": "",
          "type": "bool"
        }
      ],
      "stateMutability": "view",
      "type": "function"
    },
    {
      "inputs": [],
      "name": "symbol",
      "outputs": [
        {
          "internalType": "string",
          "name": "",
          "type": "string"
        }
      ],
      "stateMutability": "view",
      "type": "function"
    },
    {
      "inputs": [],
      "name": "totalSupply",
      "outputs": [
        {
          "internalType": "uint256",
          "name": "",
          "type": "uint256"
        }
      ],
      "stateMutability": "view",
      "type": "function"
    },
    {
      "inputs": [
        {
          "internalType": "address",
          "name": "to",
          "type": "address"
        },
        {
          "internalType": "uint256",
          "name": "value",
          "type": "uint256"
        }
      ],
      "name": "transfer",
      "outputs": [
        {
          "internalType": "bool",
          "name": "",
          "type": "bool"
        }
      ],
      "stateMutability": "nonpayable",
      "type": "function"
    },
    {
      "inputs": [
        {
          "internalType": "address",
          "name": "from",
          "type": "address"
        },
        {
          "internalType": "address",
          "name": "to",
          "type": "address"
        },
        {
          "internalType": "uint256",
          "name": "value",
          "type": "uint256"
        }
      ],
      "name": "transferFrom",
      "outputs": [
        {
          "internalType": "bool",
          "name": "",
          "type": "bool"
        }
      ],
      "stateMutability": "nonpayable",
      "type": "function"
    }
  ],
  "bytecode": "0x6101606040523480156200001257600080fd5b50604051620023ae380380620023ae833981016040819052620000359162000340565b604051806040016040528060088152602001674469616d6f6e647360c01b81525080604051806040016040528060018152602001603160f81b815250604051806040016040528060088152602001674469616d6f6e647360c01b815250604051806040016040528060078152602001661112505353d39160ca1b8152508160039081620000c391906200042f565b506004620000d282826200042f565b50620000e491508390506006620001ec565b61012052620000f5816007620001ec565b61014052815160208084019190912060e052815190820120610100524660a0526200018360e05161010051604080517f8b73c3c69bb8fe3d512ecc4cf759cc79239f7b179b0ffacaa9a75d522b39400f60208201529081019290925260608201524660808201523060a082015260009060c00160405160208183030381529060405280519060200120905090565b60805250503060c05250600980546001600160a01b0319166001600160a01b038516179055620001b560008362000225565b50620001e27f9f2df0fed2c77648de5860a4cc508cd0818c85b8b8a1ab4ceeef8d981c8956a68262000225565b5050505062000570565b60006020835110156200020c576200020483620002d7565b90506200021f565b816200021984826200042f565b5060ff90505b92915050565b60008281526005602090815260408083206001600160a01b038516845290915281205460ff16620002ce5760008381526005602090815260408083206001600160a01b03861684529091529020805460ff19166001179055620002853390565b6001600160a01b0316826001600160a01b0316847f2f8788117e7eff1d82e926ec794901d17c78024a50270940304540a733656f0d60405160405180910390a45060016200021f565b5060006200021f565b600080829050601f815111156200030e578260405163305a27a960e01b8152600401620003059190620004fb565b60405180910390fd5b80516200031b826200054b565b179392505050565b80516001600160a01b03811681146200033b57600080fd5b919050565b6000806000606084860312156200035657600080fd5b620003618462000323565b9250620003716020850162000323565b9150620003816040850162000323565b90509250925092565b634e487b7160e01b600052604160045260246000fd5b600181811c90821680620003b557607f821691505b602082108103620003d657634e487b7160e01b600052602260045260246000fd5b50919050565b601f8211156200042a57600081815260208120601f850160051c81016020861015620004055750805b601f850160051c820191505b81811015620004265782815560010162000411565b5050505b505050565b81516001600160401b038111156200044b576200044b6200038a565b62000463816200045c8454620003a0565b84620003dc565b602080601f8311600181146200049b5760008415620004825750858301515b600019600386901b1c1916600185901b17855562000426565b600085815260208120601f198616915b82811015620004cc57888601518255948401946001909101908401620004ab565b5085821015620004eb5787850151600019600388901b60f8161c191681555b5050505050600190811b01905550565b600060208083528351808285015260005b818110156200052a578581018301518582016040015282016200050c565b506000604082860101526040601f19601f8301168501019250505092915050565b80516020808301519190811015620003d65760001960209190910360031b1b16919050565b60805160a05160c05160e051610100516101205161014051611de3620005cb6000396000611285015260006112580152600061105b0152600061103301526000610f8e01526000610fb801526000610fe20152611de36000f3fe608060405234801561001057600080fd5b50600436106101c45760003560e01c806370a08231116100f9578063a9059cbb11610097578063d505accf11610071578063d505accf146103ec578063d5391393146103ff578063d547741f14610426578063dd62ed3e1461043957600080fd5b8063a9059cbb146103ae578063af95f9fb146103c1578063cd8b73cb146103e457600080fd5b806384b0196e116100d357806384b0196e1461033d57806391d148541461035857806395d89b411461039e578063a217fddf146103a657600080fd5b806370a08231146102e157806379cc6790146103175780637ecebe001461032a57600080fd5b8063301440f11161016657806336568abe1161014057806336568abe1461029557806342966c68146102a857806347e7ef24146102bb5780635f3317a0146102ce57600080fd5b8063301440f114610276578063313ce5671461027e5780633644e5151461028d57600080fd5b806318160ddd116101a257806318160ddd1461021957806323b872dd1461022b578063248a9ca31461023e5780632f2ff15d1461026157600080fd5b806301ffc9a7146101c957806306fdde03146101f1578063095ea7b314610206575b600080fd5b6101dc6101d7366004611997565b61047f565b60405190151581526020015b60405180910390f35b6101f9610518565b6040516101e89190611a44565b6101dc610214366004611a80565b6105aa565b6002545b6040519081526020016101e8565b6101dc610239366004611aaa565b6105c2565b61021d61024c366004611ae6565b60009081526005602052604090206001015490565b61027461026f366004611aff565b6105e6565b005b61021d600481565b604051601281526020016101e8565b61021d610611565b6102746102a3366004611aff565b610620565b6102746102b6366004611ae6565b61067e565b6102746102c9366004611a80565b61068b565b6102746102dc366004611b3c565b6106e8565b61021d6102ef366004611b9f565b73ffffffffffffffffffffffffffffffffffffffff1660009081526020819052604090205490565b610274610325366004611a80565b610a63565b61021d610338366004611b9f565b610a78565b610345610aa3565b6040516101e89796959493929190611bba565b6101dc610366366004611aff565b600091825260056020908152604080842073ffffffffffffffffffffffffffffffffffffffff93909316845291905290205460ff1690565b6101f9610b05565b61021d600081565b6101dc6103bc366004611a80565b610b14565b6101dc6103cf366004611ae6565b600a6020526000908152604090205460ff1681565b61021d600381565b6102746103fa366004611c79565b610b22565b61021d7f9f2df0fed2c77648de5860a4cc508cd0818c85b8b8a1ab4ceeef8d981c8956a681565b610274610434366004611aff565b610cc3565b61021d610447366004611cc7565b73ffffffffffffffffffffffffffffffffffffffff918216600090815260016020908152604080832093909416825291909152205490565b60007fffffffff0000000000000000000000000000000000000000000000000000000082167f7965db0b00000000000000000000000000000000000000000000000000000000148061051257507f01ffc9a7000000000000000000000000000000000000000000000000000000007fffffffff000000000000000000000000000000000000000000000000000000008316145b92915050565b60606003805461052790611cf1565b80601f016020809104026020016040519081016040528092919081815260200182805461055390611cf1565b80156105a05780601f10610575576101008083540402835291602001916105a0565b820191906000526020600020905b81548152906001019060200180831161058357829003601f168201915b5050505050905090565b6000336105b8818585610ce8565b5060019392505050565b6000336105d0858285610cf5565b6105db858585610dbf565b506001949350505050565b60008281526005602052604090206001015461060181610e6a565b61060b8383610e74565b50505050565b600061061b610f74565b905090565b73ffffffffffffffffffffffffffffffffffffffff8116331461066f576040517f6697b23200000000000000000000000000000000000000000000000000000000815260040160405180910390fd5b61067982826110ac565b505050565b610688338261116b565b50565b6040805173ffffffffffffffffffffffffffffffffffffffff84168152602081018390527fa0de46d9102820311637a381d79b7d6de6e1b72a4324d8011ecab7a17a597622910160405180910390a16106e4828261116b565b5050565b73ffffffffffffffffffffffffffffffffffffffff8716331461076c576040517f08c379a000000000000000000000000000000000000000000000000000000000815260206004820152600d60248201527f57726f6e672077616c6c65742e0000000000000000000000000000000000000060448201526064015b60405180910390fd5b6000868152600a602052604090205460ff16156107e5576040517f08c379a000000000000000000000000000000000000000000000000000000000815260206004820152601760248201527f4d696e74207061737320616c726561647920757365642e0000000000000000006044820152606401610763565b60408051602081018890529081018690526060810185905273ffffffffffffffffffffffffffffffffffffffff88166080820152600460a082015260009060c00160405160208183030381529060405280519060200120905060008160405160200161087d91907f19457468657265756d205369676e6564204d6573736167653a0a3332000000008152601c810191909152603c0190565b60405160208183030381529060405280519060200120905060006108a3828787876111c7565b73ffffffffffffffffffffffffffffffffffffffff811660009081527f15a28d26fa1bf736cf7edc9922607171ccb09c3c73b808e7772a3013e068a522602052604090205490915060ff16610954576040517f08c379a000000000000000000000000000000000000000000000000000000000815260206004820152601860248201527f4d757374206265207369676e6564206279206d696e74657200000000000000006044820152606401610763565b864211156109be576040517f08c379a000000000000000000000000000000000000000000000000000000000815260206004820152600860248201527f457870697265642e0000000000000000000000000000000000000000000000006044820152606401610763565b6000898152600a602090815260409182902080547fffffffffffffffffffffffffffffffffffffffffffffffffffffffffffffff00166001179055815173ffffffffffffffffffffffffffffffffffffffff8d1681529081018b90529081018990527f6e6164e9bbef467f7f8a1f5712dfaf149ebf1622810ec53e99e131b1687fed4b9060600160405180910390a1610a578a896111f5565b50505050505050505050565b610a6e823383610cf5565b6106e4828261116b565b73ffffffffffffffffffffffffffffffffffffffff8116600090815260086020526040812054610512565b600060608060008060006060610ab7611251565b610abf61127e565b604080516000808252602082019092527f0f000000000000000000000000000000000000000000000000000000000000009b939a50919850469750309650945092509050565b60606004805461052790611cf1565b6000336105b8818585610dbf565b83421115610b5f576040517f6279130200000000000000000000000000000000000000000000000000000000815260048101859052602401610763565b60007f6e71edae12b1b97f4d1f60370fef10105fa2faae0126114a169c64845d6126c9888888610bb98c73ffffffffffffffffffffffffffffffffffffffff16600090815260086020526040902080546001810190915590565b60408051602081019690965273ffffffffffffffffffffffffffffffffffffffff94851690860152929091166060840152608083015260a082015260c0810186905260e0016040516020818303038152906040528051906020012090506000610c21826112ab565b90506000610c31828787876111c7565b90508973ffffffffffffffffffffffffffffffffffffffff168173ffffffffffffffffffffffffffffffffffffffff1614610cb8576040517f4b800e4600000000000000000000000000000000000000000000000000000000815273ffffffffffffffffffffffffffffffffffffffff80831660048301528b166024820152604401610763565b610a578a8a8a610ce8565b600082815260056020526040902060010154610cde81610e6a565b61060b83836110ac565b61067983838360016112f3565b73ffffffffffffffffffffffffffffffffffffffff8381166000908152600160209081526040808320938616835292905220547fffffffffffffffffffffffffffffffffffffffffffffffffffffffffffffffff81101561060b5781811015610db0576040517ffb8f41b200000000000000000000000000000000000000000000000000000000815273ffffffffffffffffffffffffffffffffffffffff841660048201526024810182905260448101839052606401610763565b61060b848484840360006112f3565b73ffffffffffffffffffffffffffffffffffffffff8316610e0f576040517f96c6fd1e00000000000000000000000000000000000000000000000000000000815260006004820152602401610763565b73ffffffffffffffffffffffffffffffffffffffff8216610e5f576040517fec442f0500000000000000000000000000000000000000000000000000000000815260006004820152602401610763565b61067983838361143b565b61068881336115e6565b600082815260056020908152604080832073ffffffffffffffffffffffffffffffffffffffff8516845290915281205460ff16610f6c57600083815260056020908152604080832073ffffffffffffffffffffffffffffffffffffffff86168452909152902080547fffffffffffffffffffffffffffffffffffffffffffffffffffffffffffffff00166001179055610f0a3390565b73ffffffffffffffffffffffffffffffffffffffff168273ffffffffffffffffffffffffffffffffffffffff16847f2f8788117e7eff1d82e926ec794901d17c78024a50270940304540a733656f0d60405160405180910390a4506001610512565b506000610512565b60003073ffffffffffffffffffffffffffffffffffffffff7f000000000000000000000000000000000000000000000000000000000000000016148015610fda57507f000000000000000000000000000000000000000000000000000000000000000046145b1561100457507f000000000000000000000000000000000000000000000000000000000000000090565b61061b604080517f8b73c3c69bb8fe3d512ecc4cf759cc79239f7b179b0ffacaa9a75d522b39400f60208201527f0000000000000000000000000000000000000000000000000000000000000000918101919091527f000000000000000000000000000000000000000000000000000000000000000060608201524660808201523060a082015260009060c00160405160208183030381529060405280519060200120905090565b600082815260056020908152604080832073ffffffffffffffffffffffffffffffffffffffff8516845290915281205460ff1615610f6c57600083815260056020908152604080832073ffffffffffffffffffffffffffffffffffffffff8616808552925280832080547fffffffffffffffffffffffffffffffffffffffffffffffffffffffffffffff0016905551339286917ff6391f5c32d9c69d2a47ea670b442974b53935d1edc7fd64eb21e047a839171b9190a4506001610512565b73ffffffffffffffffffffffffffffffffffffffff82166111bb576040517f96c6fd1e00000000000000000000000000000000000000000000000000000000815260006004820152602401610763565b6106e48260008361143b565b6000806000806111d98888888861166e565b9250925092506111e98282611768565b50909695505050505050565b73ffffffffffffffffffffffffffffffffffffffff8216611245576040517fec442f0500000000000000000000000000000000000000000000000000000000815260006004820152602401610763565b6106e46000838361143b565b606061061b7f0000000000000000000000000000000000000000000000000000000000000000600661186c565b606061061b7f0000000000000000000000000000000000000000000000000000000000000000600761186c565b60006105126112b8610f74565b836040517f19010000000000000000000000000000000000000000000000000000000000008152600281019290925260228201526042902090565b73ffffffffffffffffffffffffffffffffffffffff8416611343576040517fe602df0500000000000000000000000000000000000000000000000000000000815260006004820152602401610763565b73ffffffffffffffffffffffffffffffffffffffff8316611393576040517f94280d6200000000000000000000000000000000000000000000000000000000815260006004820152602401610763565b73ffffffffffffffffffffffffffffffffffffffff8085166000908152600160209081526040808320938716835292905220829055801561060b578273ffffffffffffffffffffffffffffffffffffffff168473ffffffffffffffffffffffffffffffffffffffff167f8c5be1e5ebec7d5bd14f71427d1e84f3dd0314c0f7b2291e5b200ac8c7c3b9258460405161142d91815260200190565b60405180910390a350505050565b73ffffffffffffffffffffffffffffffffffffffff83166114735780600260008282546114689190611d44565b909155506115259050565b73ffffffffffffffffffffffffffffffffffffffff8316600090815260208190526040902054818110156114f9576040517fe450d38c00000000000000000000000000000000000000000000000000000000815273ffffffffffffffffffffffffffffffffffffffff851660048201526024810182905260448101839052606401610763565b73ffffffffffffffffffffffffffffffffffffffff841660009081526020819052604090209082900390555b73ffffffffffffffffffffffffffffffffffffffff821661154e5760028054829003905561157a565b73ffffffffffffffffffffffffffffffffffffffff821660009081526020819052604090208054820190555b8173ffffffffffffffffffffffffffffffffffffffff168373ffffffffffffffffffffffffffffffffffffffff167fddf252ad1be2c89b69c2b068fc378daa952ba7f163c4a11628f55a4df523b3ef836040516115d991815260200190565b60405180910390a3505050565b600082815260056020908152604080832073ffffffffffffffffffffffffffffffffffffffff8516845290915290205460ff166106e4576040517fe2517d3f00000000000000000000000000000000000000000000000000000000815273ffffffffffffffffffffffffffffffffffffffff8216600482015260248101839052604401610763565b600080807f7fffffffffffffffffffffffffffffff5d576e7357a4501ddfe92f46681b20a08411156116a9575060009150600390508261175e565b604080516000808252602082018084528a905260ff891692820192909252606081018790526080810186905260019060a0016020604051602081039080840390855afa1580156116fd573d6000803e3d6000fd5b50506040517fffffffffffffffffffffffffffffffffffffffffffffffffffffffffffffffe0015191505073ffffffffffffffffffffffffffffffffffffffff81166117545750600092506001915082905061175e565b9250600091508190505b9450945094915050565b600082600381111561177c5761177c611d7e565b03611785575050565b600182600381111561179957611799611d7e565b036117d0576040517ff645eedf00000000000000000000000000000000000000000000000000000000815260040160405180910390fd5b60028260038111156117e4576117e4611d7e565b0361181e576040517ffce698f700000000000000000000000000000000000000000000000000000000815260048101829052602401610763565b600382600381111561183257611832611d7e565b036106e4576040517fd78bce0c00000000000000000000000000000000000000000000000000000000815260048101829052602401610763565b606060ff83146118865761187f83611917565b9050610512565b81805461189290611cf1565b80601f01602080910402602001604051908101604052809291908181526020018280546118be90611cf1565b801561190b5780601f106118e05761010080835404028352916020019161190b565b820191906000526020600020905b8154815290600101906020018083116118ee57829003601f168201915b50505050509050610512565b6060600061192483611956565b604080516020808252818301909252919250600091906020820181803683375050509182525060208101929092525090565b600060ff8216601f811115610512576040517fb3512b0c00000000000000000000000000000000000000000000000000000000815260040160405180910390fd5b6000602082840312156119a957600080fd5b81357fffffffff00000000000000000000000000000000000000000000000000000000811681146119d957600080fd5b9392505050565b6000815180845260005b81811015611a06576020818501810151868301820152016119ea565b5060006020828601015260207fffffffffffffffffffffffffffffffffffffffffffffffffffffffffffffffe0601f83011685010191505092915050565b6020815260006119d960208301846119e0565b803573ffffffffffffffffffffffffffffffffffffffff81168114611a7b57600080fd5b919050565b60008060408385031215611a9357600080fd5b611a9c83611a57565b946020939093013593505050565b600080600060608486031215611abf57600080fd5b611ac884611a57565b9250611ad660208501611a57565b9150604084013590509250925092565b600060208284031215611af857600080fd5b5035919050565b60008060408385031215611b1257600080fd5b82359150611b2260208401611a57565b90509250929050565b803560ff81168114611a7b57600080fd5b600080600080600080600060e0888a031215611b5757600080fd5b611b6088611a57565b9650602088013595506040880135945060608801359350611b8360808901611b2b565b925060a0880135915060c0880135905092959891949750929550565b600060208284031215611bb157600080fd5b6119d982611a57565b7fff00000000000000000000000000000000000000000000000000000000000000881681526000602060e081840152611bf660e084018a6119e0565b8381036040850152611c08818a6119e0565b6060850189905273ffffffffffffffffffffffffffffffffffffffff8816608086015260a0850187905284810360c0860152855180825283870192509083019060005b81811015611c6757835183529284019291840191600101611c4b565b50909c9b505050505050505050505050565b600080600080600080600060e0888a031215611c9457600080fd5b611c9d88611a57565b9650611cab60208901611a57565b95506040880135945060608801359350611b8360808901611b2b565b60008060408385031215611cda57600080fd5b611ce383611a57565b9150611b2260208401611a57565b600181811c90821680611d0557607f821691505b602082108103611d3e577f4e487b7100000000000000000000000000000000000000000000000000000000600052602260045260246000fd5b50919050565b80820180821115610512577f4e487b7100000000000000000000000000000000000000000000000000000000600052601160045260246000fd5b7f4e487b7100000000000000000000000000000000000000000000000000000000600052602160045260246000fdfea264697066735822122006d8da4b375e8475556134003d234c8e08388c9ef8ad88f8b6da0759b33f832864736f6c63430008150033",
  "linkReferences": {},
  "deployedLinkReferences": {}
}