{
  "_format": "hh3-artifact-1",
  "contractName": "Diamonds",
  "sourceName": "contracts/Diamonds.sol",
  "abi": [
    {
      "inputs": [
        {
          "internalType": "address",
          "name": "defaultAdmin",
          "type": "address"
        },
        {
          "internalType": "address",
          "name": "minter",
          "type": "address"
        }
      ],
      "stateMutability": "nonpayable",
      "type": "constructor"
    },
    {
      "inputs": [],
      "name": "AccessControlBadConfirmation",
      "type": "error"
    },
    {
      "inputs": [
        {
          "internalType": "address",
          "name": "account",
          "type": "address"
        },
        {
          "internalType": "bytes32",
          "name": "neededRole",
          "type": "bytes32"
        }
      ],
      "name": "AccessControlUnauthorizedAccount",
      "type": "error"
    },
    {
      "inputs": [],
      "name": "ECDSAInvalidSignature",
      "type": "error"
    },
    {
      "inputs": [
        {
          "internalType": "uint256",
          "name": "length",
          "type": "uint256"
        }
      ],
      "name": "ECDSAInvalidSignatureLength",
      "type": "error"
    },
    {
      "inputs": [
        {
          "internalType": "bytes32",
          "name": "s",
          "type": "bytes32"
        }
      ],
      "name": "ECDSAInvalidSignatureS",
      "type": "error"
    },
    {
      "inputs": [
        {
          "internalType": "address",
          "name": "spender",
          "type": "address"
        },
        {
          "internalType": "uint256",
          "name": "allowance",
          "type": "uint256"
        },
        {
          "internalType": "uint256",
          "name": "needed",
          "type": "uint256"
        }
      ],
      "name": "ERC20InsufficientAllowance",
      "type": "error"
    },
    {
      "inputs": [
        {
          "internalType": "address",
          "name": "sender",
          "type": "address"
        },
        {
          "internalType": "uint256",
          "name": "balance",
          "type": "uint256"
        },
        {
          "internalType": "uint256",
          "name": "needed",
          "type": "uint256"
        }
      ],
      "name": "ERC20InsufficientBalance",
      "type": "error"
    },
    {
      "inputs": [
        {
          "internalType": "address",
          "name": "approver",
          "type": "address"
        }
      ],
      "name": "ERC20InvalidApprover",
      "type": "error"
    },
    {
      "inputs": [
        {
          "internalType": "address",
          "name": "receiver",
          "type": "address"
        }
      ],
      "name": "ERC20InvalidReceiver",
      "type": "error"
    },
    {
      "inputs": [
        {
          "internalType": "address",
          "name": "sender",
          "type": "address"
        }
      ],
      "name": "ERC20InvalidSender",
      "type": "error"
    },
    {
      "inputs": [
        {
          "internalType": "address",
          "name": "spender",
          "type": "address"
        }
      ],
      "name": "ERC20InvalidSpender",
      "type": "error"
    },
    {
      "inputs": [
        {
          "internalType": "uint256",
          "name": "deadline",
          "type": "uint256"
        }
      ],
      "name": "ERC2612ExpiredSignature",
      "type": "error"
    },
    {
      "inputs": [
        {
          "internalType": "address",
          "name": "signer",
          "type": "address"
        },
        {
          "internalType": "address",
          "name": "owner",
          "type": "address"
        }
      ],
      "name": "ERC2612InvalidSigner",
      "type": "error"
    },
    {
      "inputs": [
        {
          "internalType": "address",
          "name": "account",
          "type": "address"
        },
        {
          "internalType": "uint256",
          "name": "currentNonce",
          "type": "uint256"
        }
      ],
      "name": "InvalidAccountNonce",
      "type": "error"
    },
    {
      "inputs": [],
      "name": "InvalidShortString",
      "type": "error"
    },
    {
      "inputs": [
        {
          "internalType": "string",
          "name": "str",
          "type": "string"
        }
      ],
      "name": "StringTooLong",
      "type": "error"
    },
    {
      "anonymous": false,
      "inputs": [
        {
          "indexed": true,
          "internalType": "address",
          "name": "owner",
          "type": "address"
        },
        {
          "indexed": true,
          "internalType": "address",
          "name": "spender",
          "type": "address"
        },
        {
          "indexed": false,
          "internalType": "uint256",
          "name": "value",
          "type": "uint256"
        }
      ],
      "name": "Approval",
      "type": "event"
    },
    {
      "anonymous": false,
      "inputs": [
        {
          "indexed": false,
          "internalType": "address",
          "name": "from",
          "type": "address"
        },
        {
          "indexed": false,
          "internalType": "uint256",
          "name": "amount",
          "type": "uint256"
        }
      ],
      "name": "DepositToTeam",
      "type": "event"
    },
    {
      "anonymous": false,
      "inputs": [],
      "name": "EIP712DomainChanged",
      "type": "event"
    },
    {
      "anonymous": false,
      "inputs": [
        {
          "indexed": false,
          "internalType": "address",
          "name": "to",
          "type": "address"
        },
        {
          "indexed": false,
          "internalType": "uint256",
          "name": "mintPassId",
          "type": "uint256"
        },
        {
          "indexed": false,
          "internalType": "uint256",
          "name": "amount",
          "type": "uint256"
        }
      ],
      "name": "MintReward",
      "type": "event"
    },
    {
      "anonymous": false,
      "inputs": [
        {
          "indexed": true,
          "internalType": "bytes32",
          "name": "role",
          "type": "bytes32"
        },
        {
          "indexed": true,
          "internalType": "bytes32",
          "name": "previousAdminRole",
          "type": "bytes32"
        },
        {
          "indexed": true,
          "internalType": "bytes32",
          "name": "newAdminRole",
          "type": "bytes32"
        }
      ],
      "name": "RoleAdminChanged",
      "type": "event"
    },
    {
      "anonymous": false,
      "inputs": [
        {
          "indexed": true,
          "internalType": "bytes32",
          "name": "role",
          "type": "bytes32"
        },
        {
          "indexed": true,
          "internalType": "address",
          "name": "account",
          "type": "address"
        },
        {
          "indexed": true,
          "internalType": "address",
          "name": "sender",
          "type": "address"
        }
      ],
      "name": "RoleGranted",
      "type": "event"
    },
    {
      "anonymous": false,
      "inputs": [
        {
          "indexed": true,
          "internalType": "bytes32",
          "name": "role",
          "type": "bytes32"
        },
        {
          "indexed": true,
          "internalType": "address",
          "name": "account",
          "type": "address"
        },
        {
          "indexed": true,
          "internalType": "address",
          "name": "sender",
          "type": "address"
        }
      ],
      "name": "RoleRevoked",
      "type": "event"
    },
    {
      "anonymous": false,
      "inputs": [
        {
          "indexed": true,
          "internalType": "address",
          "name": "from",
          "type": "address"
        },
        {
          "indexed": true,
          "internalType": "address",
          "name": "to",
          "type": "address"
        },
        {
          "indexed": false,
          "internalType": "uint256",
          "name": "value",
          "type": "uint256"
        }
      ],
      "name": "Transfer",
      "type": "event"
    },
    {
      "inputs": [],
      "name": "DEFAULT_ADMIN_ROLE",
      "outputs": [
        {
          "internalType": "bytes32",
          "name": "",
          "type": "bytes32"
        }
      ],
      "stateMutability": "view",
      "type": "function"
    },
    {
      "inputs": [],
      "name": "DOMAIN_SEPARATOR",
      "outputs": [
        {
          "internalType": "bytes32",
          "name": "",
          "type": "bytes32"
        }
      ],
      "stateMutability": "view",
      "type": "function"
    },
    {
      "inputs": [],
      "name": "MINTER_ROLE",
      "outputs": [
        {
          "internalType": "bytes32",
          "name": "",
          "type": "bytes32"
        }
      ],
      "stateMutability": "view",
      "type": "function"
    },
    {
      "inputs": [],
      "name": "MINT_TYPE_DIAMONDS",
      "outputs": [
        {
          "internalType": "uint256",
          "name": "",
          "type": "uint256"
        }
      ],
      "stateMutability": "view",
      "type": "function"
    },
    {
      "inputs": [
        {
          "internalType": "address",
          "name": "owner",
          "type": "address"
        },
        {
          "internalType": "address",
          "name": "spender",
          "type": "address"
        }
      ],
      "name": "allowance",
      "outputs": [
        {
          "internalType": "uint256",
          "name": "",
          "type": "uint256"
        }
      ],
      "stateMutability": "view",
      "type": "function"
    },
    {
      "inputs": [
        {
          "internalType": "address",
          "name": "spender",
          "type": "address"
        },
        {
          "internalType": "uint256",
          "name": "value",
          "type": "uint256"
        }
      ],
      "name": "approve",
      "outputs": [
        {
          "internalType": "bool",
          "name": "",
          "type": "bool"
        }
      ],
      "stateMutability": "nonpayable",
      "type": "function"
    },
    {
      "inputs": [
        {
          "internalType": "address",
          "name": "account",
          "type": "address"
        }
      ],
      "name": "balanceOf",
      "outputs": [
        {
          "internalType": "uint256",
          "name": "",
          "type": "uint256"
        }
      ],
      "stateMutability": "view",
      "type": "function"
    },
    {
      "inputs": [
        {
          "internalType": "uint256",
          "name": "value",
          "type": "uint256"
        }
      ],
      "name": "burn",
      "outputs": [],
      "stateMutability": "nonpayable",
      "type": "function"
    },
    {
      "inputs": [
        {
          "internalType": "address",
          "name": "account",
          "type": "address"
        },
        {
          "internalType": "uint256",
          "name": "value",
          "type": "uint256"
        }
      ],
      "name": "burnFrom",
      "outputs": [],
      "stateMutability": "nonpayable",
      "type": "function"
    },
    {
      "inputs": [],
      "name": "decimals",
      "outputs": [
        {
          "internalType": "uint8",
          "name": "",
          "type": "uint8"
        }
      ],
      "stateMutability": "view",
      "type": "function"
    },
    {
      "inputs": [
        {
          "internalType": "address",
          "name": "from",
          "type": "address"
        },
        {
          "internalType": "uint256",
          "name": "amount",
          "type": "uint256"
        }
      ],
      "name": "deposit",
      "outputs": [],
      "stateMutability": "nonpayable",
      "type": "function"
    },
    {
      "inputs": [],
      "name": "eip712Domain",
      "outputs": [
        {
          "internalType": "bytes1",
          "name": "fields",
          "type": "bytes1"
        },
        {
          "internalType": "string",
          "name": "name",
          "type": "string"
        },
        {
          "internalType": "string",
          "name": "version",
          "type": "string"
        },
        {
          "internalType": "uint256",
          "name": "chainId",
          "type": "uint256"
        },
        {
          "internalType": "address",
          "name": "verifyingContract",
          "type": "address"
        },
        {
          "internalType": "bytes32",
          "name": "salt",
          "type": "bytes32"
        },
        {
          "internalType": "uint256[]",
          "name": "extensions",
          "type": "uint256[]"
        }
      ],
      "stateMutability": "view",
      "type": "function"
    },
    {
      "inputs": [
        {
          "internalType": "bytes32",
          "name": "role",
          "type": "bytes32"
        }
      ],
      "name": "getRoleAdmin",
      "outputs": [
        {
          "internalType": "bytes32",
          "name": "",
          "type": "bytes32"
        }
      ],
      "stateMutability": "view",
      "type": "function"
    },
    {
      "inputs": [
        {
          "internalType": "bytes32",
          "name": "role",
          "type": "bytes32"
        },
        {
          "internalType": "address",
          "name": "account",
          "type": "address"
        }
      ],
      "name": "grantRole",
      "outputs": [],
      "stateMutability": "nonpayable",
      "type": "function"
    },
    {
      "inputs": [
        {
          "internalType": "bytes32",
          "name": "role",
          "type": "bytes32"
        },
        {
          "internalType": "address",
          "name": "account",
          "type": "address"
        }
      ],
      "name": "hasRole",
      "outputs": [
        {
          "internalType": "bool",
          "name": "",
          "type": "bool"
        }
      ],
      "stateMutability": "view",
      "type": "function"
    },
    {
      "inputs": [
        {
          "internalType": "address",
          "name": "to",
          "type": "address"
        },
        {
          "internalType": "uint256",
          "name": "mintPassId",
          "type": "uint256"
        },
        {
          "internalType": "uint256",
          "name": "amount",
          "type": "uint256"
        },
        {
          "internalType": "uint256",
          "name": "expires",
          "type": "uint256"
        },
        {
          "internalType": "uint8",
          "name": "v",
          "type": "uint8"
        },
        {
          "internalType": "bytes32",
          "name": "r",
          "type": "bytes32"
        },
        {
          "internalType": "bytes32",
          "name": "s",
          "type": "bytes32"
        }
      ],
      "name": "mint",
      "outputs": [],
      "stateMutability": "nonpayable",
      "type": "function"
    },
    {
      "inputs": [
        {
          "internalType": "uint256",
          "name": "",
          "type": "uint256"
        }
      ],
      "name": "mintPasses",
      "outputs": [
        {
          "internalType": "bool",
          "name": "",
          "type": "bool"
        }
      ],
      "stateMutability": "view",
      "type": "function"
    },
    {
      "inputs": [],
      "name": "name",
      "outputs": [
        {
          "internalType": "string",
          "name": "",
          "type": "string"
        }
      ],
      "stateMutability": "view",
      "type": "function"
    },
    {
      "inputs": [
        {
          "internalType": "address",
          "name": "owner",
          "type": "address"
        }
      ],
      "name": "nonces",
      "outputs": [
        {
          "internalType": "uint256",
          "name": "",
          "type": "uint256"
        }
      ],
      "stateMutability": "view",
      "type": "function"
    },
    {
      "inputs": [
        {
          "internalType": "address",
          "name": "owner",
          "type": "address"
        },
        {
          "internalType": "address",
          "name": "spender",
          "type": "address"
        },
        {
          "internalType": "uint256",
          "name": "value",
          "type": "uint256"
        },
        {
          "internalType": "uint256",
          "name": "deadline",
          "type": "uint256"
        },
        {
          "internalType": "uint8",
          "name": "v",
          "type": "uint8"
        },
        {
          "internalType": "bytes32",
          "name": "r",
          "type": "bytes32"
        },
        {
          "internalType": "bytes32",
          "name": "s",
          "type": "bytes32"
        }
      ],
      "name": "permit",
      "outputs": [],
      "stateMutability": "nonpayable",
      "type": "function"
    },
    {
      "inputs": [
        {
          "internalType": "bytes32",
          "name": "role",
          "type": "bytes32"
        },
        {
          "internalType": "address",
          "name": "callerConfirmation",
          "type": "address"
        }
      ],
      "name": "renounceRole",
      "outputs": [],
      "stateMutability": "nonpayable",
      "type": "function"
    },
    {
      "inputs": [
        {
          "internalType": "bytes32",
          "name": "role",
          "type": "bytes32"
        },
        {
          "internalType": "address",
          "name": "account",
          "type": "address"
        }
      ],
      "name": "revokeRole",
      "outputs": [],
      "stateMutability": "nonpayable",
      "type": "function"
    },
    {
      "inputs": [
        {
          "internalType": "bytes4",
          "name": "interfaceId",
          "type": "bytes4"
        }
      ],
      "name": "supportsInterface",
      "outputs": [
        {
          "internalType": "bool",
          "name": "",
          "type": "bool"
        }
      ],
      "stateMutability": "view",
      "type": "function"
    },
    {
      "inputs": [],
      "name": "symbol",
      "outputs": [
        {
          "internalType": "string",
          "name": "",
          "type": "string"
        }
      ],
      "stateMutability": "view",
      "type": "function"
    },
    {
      "inputs": [],
      "name": "totalSupply",
      "outputs": [
        {
          "internalType": "uint256",
          "name": "",
          "type": "uint256"
        }
      ],
      "stateMutability": "view",
      "type": "function"
    },
    {
      "inputs": [
        {
          "internalType": "address",
          "name": "to",
          "type": "address"
        },
        {
          "internalType": "uint256",
          "name": "value",
          "type": "uint256"
        }
      ],
      "name": "transfer",
      "outputs": [
        {
          "internalType": "bool",
          "name": "",
          "type": "bool"
        }
      ],
      "stateMutability": "nonpayable",
      "type": "function"
    },
    {
      "inputs": [
        {
          "internalType": "address",
          "name": "from",
          "type": "address"
        },
        {
          "internalType": "address",
          "name": "to",
          "type": "address"
        },
        {
          "internalType": "uint256",
          "name": "value",
          "type": "uint256"
        }
      ],
      "name": "transferFrom",
      "outputs": [
        {
          "internalType": "bool",
          "name": "",
          "type": "bool"
        }
      ],
      "stateMutability": "nonpayable",
      "type": "function"
    }
  ],
  "bytecode": "0x61016060405234801562000011575f80fd5b50604051620022e0380380620022e0833981016040819052620000349162000305565b604051806060016040528060218152602001620022bf6021913980604051806040016040528060018152602001603160f81b815250604051806060016040528060218152602001620022bf602191396040805180820190915260048152631150931160e21b60208201526003620000ac8382620003db565b506004620000bb8282620003db565b50620000cd91508390506006620001b7565b61012052620000de816007620001b7565b61014052815160208084019190912060e052815190820120610100524660a0526200016b60e05161010051604080517f8b73c3c69bb8fe3d512ecc4cf759cc79239f7b179b0ffacaa9a75d522b39400f60208201529081019290925260608201524660808201523060a08201525f9060c00160405160208183030381529060405280519060200120905090565b60805250503060c05250620001815f83620001ef565b50620001ae7f9f2df0fed2c77648de5860a4cc508cd0818c85b8b8a1ab4ceeef8d981c8956a682620001ef565b50505062000514565b5f602083511015620001d657620001ce836200029e565b9050620001e9565b81620001e38482620003db565b5060ff90505b92915050565b5f8281526005602090815260408083206001600160a01b038516845290915281205460ff1662000296575f8381526005602090815260408083206001600160a01b03861684529091529020805460ff191660011790556200024d3390565b6001600160a01b0316826001600160a01b0316847f2f8788117e7eff1d82e926ec794901d17c78024a50270940304540a733656f0d60405160405180910390a4506001620001e9565b505f620001e9565b5f80829050601f81511115620002d4578260405163305a27a960e01b8152600401620002cb9190620004a3565b60405180910390fd5b8051620002e182620004f0565b179392505050565b80516001600160a01b038116811462000300575f80fd5b919050565b5f806040838503121562000317575f80fd5b6200032283620002e9565b91506200033260208401620002e9565b90509250929050565b634e487b7160e01b5f52604160045260245ffd5b600181811c908216806200036457607f821691505b6020821081036200038357634e487b7160e01b5f52602260045260245ffd5b50919050565b601f821115620003d6575f81815260208120601f850160051c81016020861015620003b15750805b601f850160051c820191505b81811015620003d257828155600101620003bd565b5050505b505050565b81516001600160401b03811115620003f757620003f76200033b565b6200040f816200040884546200034f565b8462000389565b602080601f83116001811462000445575f84156200042d5750858301515b5f19600386901b1c1916600185901b178555620003d2565b5f85815260208120601f198616915b82811015620004755788860151825594840194600190910190840162000454565b50858210156200049357878501515f19600388901b60f8161c191681555b5050505050600190811b01905550565b5f6020808352835180828501525f5b81811015620004d057858101830151858201604001528201620004b2565b505f604082860101526040601f19601f8301168501019250505092915050565b8051602080830151919081101562000383575f1960209190910360031b1b16919050565b60805160a05160c05160e051610100516101205161014051611d59620005665f395f61123901525f61120c01525f61101801525f610ff001525f610f4b01525f610f7501525f610f9f0152611d595ff3fe608060405234801561000f575f80fd5b50600436106101b0575f3560e01c80635f3317a0116100f3578063a217fddf11610093578063d505accf1161006e578063d505accf146103ca578063d5391393146103dd578063d547741f14610404578063dd62ed3e14610417575f80fd5b8063a217fddf1461038e578063a9059cbb14610395578063af95f9fb146103a8575f80fd5b80637ecebe00116100ce5780637ecebe001461031357806384b0196e1461032657806391d148541461034157806395d89b4114610386575f80fd5b80635f3317a0146102b857806370a08231146102cb57806379cc679014610300575f80fd5b80632f2ff15d1161015e5780633644e515116101395780633644e5151461027757806336568abe1461027f57806342966c681461029257806347e7ef24146102a5575f80fd5b80632f2ff15d1461024b578063301440f114610260578063313ce56714610268575f80fd5b806318160ddd1161018e57806318160ddd1461020457806323b872dd14610216578063248a9ca314610229575f80fd5b806301ffc9a7146101b457806306fdde03146101dc578063095ea7b3146101f1575b5f80fd5b6101c76101c2366004611935565b61045c565b60405190151581526020015b60405180910390f35b6101e46104f4565b6040516101d391906119dc565b6101c76101ff366004611a16565b610584565b6002545b6040519081526020016101d3565b6101c7610224366004611a3e565b61059b565b610208610237366004611a77565b5f9081526005602052604090206001015490565b61025e610259366004611a8e565b6105be565b005b610208600181565b604051601281526020016101d3565b6102086105e8565b61025e61028d366004611a8e565b6105f6565b61025e6102a0366004611a77565b610654565b61025e6102b3366004611a16565b610661565b61025e6102c6366004611ac8565b6106be565b6102086102d9366004611b26565b73ffffffffffffffffffffffffffffffffffffffff165f9081526020819052604090205490565b61025e61030e366004611a16565b610a33565b610208610321366004611b26565b610a48565b61032e610a72565b6040516101d39796959493929190611b3f565b6101c761034f366004611a8e565b5f91825260056020908152604080842073ffffffffffffffffffffffffffffffffffffffff93909316845291905290205460ff1690565b6101e4610ad0565b6102085f81565b6101c76103a3366004611a16565b610adf565b6101c76103b6366004611a77565b60096020525f908152604090205460ff1681565b61025e6103d8366004611bfc565b610aec565b6102087f9f2df0fed2c77648de5860a4cc508cd0818c85b8b8a1ab4ceeef8d981c8956a681565b61025e610412366004611a8e565b610c89565b610208610425366004611c45565b73ffffffffffffffffffffffffffffffffffffffff9182165f90815260016020908152604080832093909416825291909152205490565b5f7fffffffff0000000000000000000000000000000000000000000000000000000082167f7965db0b0000000000000000000000000000000000000000000000000000000014806104ee57507f01ffc9a7000000000000000000000000000000000000000000000000000000007fffffffff000000000000000000000000000000000000000000000000000000008316145b92915050565b60606003805461050390611c6d565b80601f016020809104026020016040519081016040528092919081815260200182805461052f90611c6d565b801561057a5780601f106105515761010080835404028352916020019161057a565b820191905f5260205f20905b81548152906001019060200180831161055d57829003601f168201915b5050505050905090565b5f33610591818585610cad565b5060019392505050565b5f336105a8858285610cba565b6105b3858585610d82565b506001949350505050565b5f828152600560205260409020600101546105d881610e2b565b6105e28383610e35565b50505050565b5f6105f1610f32565b905090565b73ffffffffffffffffffffffffffffffffffffffff81163314610645576040517f6697b23200000000000000000000000000000000000000000000000000000000815260040160405180910390fd5b61064f8282611068565b505050565b61065e3382611125565b50565b6040805173ffffffffffffffffffffffffffffffffffffffff84168152602081018390527fa0de46d9102820311637a381d79b7d6de6e1b72a4324d8011ecab7a17a597622910160405180910390a16106ba8282611125565b5050565b73ffffffffffffffffffffffffffffffffffffffff87163314610742576040517f08c379a000000000000000000000000000000000000000000000000000000000815260206004820152600d60248201527f57726f6e672077616c6c65742e0000000000000000000000000000000000000060448201526064015b60405180910390fd5b5f8681526009602052604090205460ff16156107ba576040517f08c379a000000000000000000000000000000000000000000000000000000000815260206004820152601760248201527f4d696e74207061737320616c726561647920757365642e0000000000000000006044820152606401610739565b60408051602081018890529081018690526060810185905273ffffffffffffffffffffffffffffffffffffffff88166080820152600160a08201525f9060c0016040516020818303038152906040528051906020012090505f8160405160200161085091907f19457468657265756d205369676e6564204d6573736167653a0a3332000000008152601c810191909152603c0190565b6040516020818303038152906040528051906020012090505f6108758287878761117f565b73ffffffffffffffffffffffffffffffffffffffff81165f9081527f15a28d26fa1bf736cf7edc9922607171ccb09c3c73b808e7772a3013e068a522602052604090205490915060ff16610925576040517f08c379a000000000000000000000000000000000000000000000000000000000815260206004820152601860248201527f4d757374206265207369676e6564206279206d696e74657200000000000000006044820152606401610739565b8642111561098f576040517f08c379a000000000000000000000000000000000000000000000000000000000815260206004820152600860248201527f457870697265642e0000000000000000000000000000000000000000000000006044820152606401610739565b5f8981526009602090815260409182902080547fffffffffffffffffffffffffffffffffffffffffffffffffffffffffffffff00166001179055815173ffffffffffffffffffffffffffffffffffffffff8d1681529081018b90529081018990527f6e6164e9bbef467f7f8a1f5712dfaf149ebf1622810ec53e99e131b1687fed4b9060600160405180910390a1610a278a896111ab565b50505050505050505050565b610a3e823383610cba565b6106ba8282611125565b73ffffffffffffffffffffffffffffffffffffffff81165f908152600860205260408120546104ee565b5f6060805f805f6060610a83611205565b610a8b611232565b604080515f808252602082019092527f0f000000000000000000000000000000000000000000000000000000000000009b939a50919850469750309650945092509050565b60606004805461050390611c6d565b5f33610591818585610d82565b83421115610b29576040517f6279130200000000000000000000000000000000000000000000000000000000815260048101859052602401610739565b5f7f6e71edae12b1b97f4d1f60370fef10105fa2faae0126114a169c64845d6126c9888888610b818c73ffffffffffffffffffffffffffffffffffffffff165f90815260086020526040902080546001810190915590565b60408051602081019690965273ffffffffffffffffffffffffffffffffffffffff94851690860152929091166060840152608083015260a082015260c0810186905260e0016040516020818303038152906040528051906020012090505f610be88261125f565b90505f610bf78287878761117f565b90508973ffffffffffffffffffffffffffffffffffffffff168173ffffffffffffffffffffffffffffffffffffffff1614610c7e576040517f4b800e4600000000000000000000000000000000000000000000000000000000815273ffffffffffffffffffffffffffffffffffffffff80831660048301528b166024820152604401610739565b610a278a8a8a610cad565b5f82815260056020526040902060010154610ca381610e2b565b6105e28383611068565b61064f83838360016112a6565b73ffffffffffffffffffffffffffffffffffffffff8381165f908152600160209081526040808320938616835292905220547fffffffffffffffffffffffffffffffffffffffffffffffffffffffffffffffff8110156105e25781811015610d74576040517ffb8f41b200000000000000000000000000000000000000000000000000000000815273ffffffffffffffffffffffffffffffffffffffff841660048201526024810182905260448101839052606401610739565b6105e284848484035f6112a6565b73ffffffffffffffffffffffffffffffffffffffff8316610dd1576040517f96c6fd1e0000000000000000000000000000000000000000000000000000000081525f6004820152602401610739565b73ffffffffffffffffffffffffffffffffffffffff8216610e20576040517fec442f050000000000000000000000000000000000000000000000000000000081525f6004820152602401610739565b61064f8383836113eb565b61065e8133611592565b5f82815260056020908152604080832073ffffffffffffffffffffffffffffffffffffffff8516845290915281205460ff16610f2b575f83815260056020908152604080832073ffffffffffffffffffffffffffffffffffffffff86168452909152902080547fffffffffffffffffffffffffffffffffffffffffffffffffffffffffffffff00166001179055610ec93390565b73ffffffffffffffffffffffffffffffffffffffff168273ffffffffffffffffffffffffffffffffffffffff16847f2f8788117e7eff1d82e926ec794901d17c78024a50270940304540a733656f0d60405160405180910390a45060016104ee565b505f6104ee565b5f3073ffffffffffffffffffffffffffffffffffffffff7f000000000000000000000000000000000000000000000000000000000000000016148015610f9757507f000000000000000000000000000000000000000000000000000000000000000046145b15610fc157507f000000000000000000000000000000000000000000000000000000000000000090565b6105f1604080517f8b73c3c69bb8fe3d512ecc4cf759cc79239f7b179b0ffacaa9a75d522b39400f60208201527f0000000000000000000000000000000000000000000000000000000000000000918101919091527f000000000000000000000000000000000000000000000000000000000000000060608201524660808201523060a08201525f9060c00160405160208183030381529060405280519060200120905090565b5f82815260056020908152604080832073ffffffffffffffffffffffffffffffffffffffff8516845290915281205460ff1615610f2b575f83815260056020908152604080832073ffffffffffffffffffffffffffffffffffffffff8616808552925280832080547fffffffffffffffffffffffffffffffffffffffffffffffffffffffffffffff0016905551339286917ff6391f5c32d9c69d2a47ea670b442974b53935d1edc7fd64eb21e047a839171b9190a45060016104ee565b73ffffffffffffffffffffffffffffffffffffffff8216611174576040517f96c6fd1e0000000000000000000000000000000000000000000000000000000081525f6004820152602401610739565b6106ba825f836113eb565b5f805f8061118f88888888611619565b92509250925061119f828261170c565b50909695505050505050565b73ffffffffffffffffffffffffffffffffffffffff82166111fa576040517fec442f050000000000000000000000000000000000000000000000000000000081525f6004820152602401610739565b6106ba5f83836113eb565b60606105f17f0000000000000000000000000000000000000000000000000000000000000000600661180f565b60606105f17f0000000000000000000000000000000000000000000000000000000000000000600761180f565b5f6104ee61126b610f32565b836040517f19010000000000000000000000000000000000000000000000000000000000008152600281019290925260228201526042902090565b73ffffffffffffffffffffffffffffffffffffffff84166112f5576040517fe602df050000000000000000000000000000000000000000000000000000000081525f6004820152602401610739565b73ffffffffffffffffffffffffffffffffffffffff8316611344576040517f94280d620000000000000000000000000000000000000000000000000000000081525f6004820152602401610739565b73ffffffffffffffffffffffffffffffffffffffff8085165f90815260016020908152604080832093871683529290522082905580156105e2578273ffffffffffffffffffffffffffffffffffffffff168473ffffffffffffffffffffffffffffffffffffffff167f8c5be1e5ebec7d5bd14f71427d1e84f3dd0314c0f7b2291e5b200ac8c7c3b925846040516113dd91815260200190565b60405180910390a350505050565b73ffffffffffffffffffffffffffffffffffffffff8316611422578060025f8282546114179190611cbe565b909155506114d29050565b73ffffffffffffffffffffffffffffffffffffffff83165f90815260208190526040902054818110156114a7576040517fe450d38c00000000000000000000000000000000000000000000000000000000815273ffffffffffffffffffffffffffffffffffffffff851660048201526024810182905260448101839052606401610739565b73ffffffffffffffffffffffffffffffffffffffff84165f9081526020819052604090209082900390555b73ffffffffffffffffffffffffffffffffffffffff82166114fb57600280548290039055611526565b73ffffffffffffffffffffffffffffffffffffffff82165f9081526020819052604090208054820190555b8173ffffffffffffffffffffffffffffffffffffffff168373ffffffffffffffffffffffffffffffffffffffff167fddf252ad1be2c89b69c2b068fc378daa952ba7f163c4a11628f55a4df523b3ef8360405161158591815260200190565b60405180910390a3505050565b5f82815260056020908152604080832073ffffffffffffffffffffffffffffffffffffffff8516845290915290205460ff166106ba576040517fe2517d3f00000000000000000000000000000000000000000000000000000000815273ffffffffffffffffffffffffffffffffffffffff8216600482015260248101839052604401610739565b5f80807f7fffffffffffffffffffffffffffffff5d576e7357a4501ddfe92f46681b20a084111561165257505f91506003905082611702565b604080515f808252602082018084528a905260ff891692820192909252606081018790526080810186905260019060a0016020604051602081039080840390855afa1580156116a3573d5f803e3d5ffd5b50506040517fffffffffffffffffffffffffffffffffffffffffffffffffffffffffffffffe0015191505073ffffffffffffffffffffffffffffffffffffffff81166116f957505f925060019150829050611702565b92505f91508190505b9450945094915050565b5f82600381111561171f5761171f611cf6565b03611728575050565b600182600381111561173c5761173c611cf6565b03611773576040517ff645eedf00000000000000000000000000000000000000000000000000000000815260040160405180910390fd5b600282600381111561178757611787611cf6565b036117c1576040517ffce698f700000000000000000000000000000000000000000000000000000000815260048101829052602401610739565b60038260038111156117d5576117d5611cf6565b036106ba576040517fd78bce0c00000000000000000000000000000000000000000000000000000000815260048101829052602401610739565b606060ff831461182957611822836118b8565b90506104ee565b81805461183590611c6d565b80601f016020809104026020016040519081016040528092919081815260200182805461186190611c6d565b80156118ac5780601f10611883576101008083540402835291602001916118ac565b820191905f5260205f20905b81548152906001019060200180831161188f57829003601f168201915b505050505090506104ee565b60605f6118c4836118f5565b6040805160208082528183019092529192505f91906020820181803683375050509182525060208101929092525090565b5f60ff8216601f8111156104ee576040517fb3512b0c00000000000000000000000000000000000000000000000000000000815260040160405180910390fd5b5f60208284031215611945575f80fd5b81357fffffffff0000000000000000000000000000000000000000000000000000000081168114611974575f80fd5b9392505050565b5f81518084525f5b8181101561199f57602081850181015186830182015201611983565b505f6020828601015260207fffffffffffffffffffffffffffffffffffffffffffffffffffffffffffffffe0601f83011685010191505092915050565b602081525f611974602083018461197b565b803573ffffffffffffffffffffffffffffffffffffffff81168114611a11575f80fd5b919050565b5f8060408385031215611a27575f80fd5b611a30836119ee565b946020939093013593505050565b5f805f60608486031215611a50575f80fd5b611a59846119ee565b9250611a67602085016119ee565b9150604084013590509250925092565b5f60208284031215611a87575f80fd5b5035919050565b5f8060408385031215611a9f575f80fd5b82359150611aaf602084016119ee565b90509250929050565b803560ff81168114611a11575f80fd5b5f805f805f805f60e0888a031215611ade575f80fd5b611ae7886119ee565b9650602088013595506040880135945060608801359350611b0a60808901611ab8565b925060a0880135915060c0880135905092959891949750929550565b5f60208284031215611b36575f80fd5b611974826119ee565b7fff00000000000000000000000000000000000000000000000000000000000000881681525f602060e081840152611b7a60e084018a61197b565b8381036040850152611b8c818a61197b565b6060850189905273ffffffffffffffffffffffffffffffffffffffff8816608086015260a0850187905284810360c086015285518082528387019250908301905f5b81811015611bea57835183529284019291840191600101611bce565b50909c9b505050505050505050505050565b5f805f805f805f60e0888a031215611c12575f80fd5b611c1b886119ee565b9650611c29602089016119ee565b95506040880135945060608801359350611b0a60808901611ab8565b5f8060408385031215611c56575f80fd5b611c5f836119ee565b9150611aaf602084016119ee565b600181811c90821680611c8157607f821691505b602082108103611cb8577f4e487b71000000000000000000000000000000000000000000000000000000005f52602260045260245ffd5b50919050565b808201808211156104ee577f4e487b71000000000000000000000000000000000000000000000000000000005f52601160045260245ffd5b7f4e487b71000000000000000000000000000000000000000000000000000000005f52602160045260245ffdfea26469706673582212202732103206fe9650381559948cc4ccdd1fcfaefe71829d4ce8b9437c5a404c5564736f6c63430008150033457468657265756d204261736562616c6c204c6561677565204469616d6f6e6473",
  "linkReferences": {},
  "deployedLinkReferences": {},
  "immutableReferences": {
    "3658": [
      {
        "length": 32,
        "start": 3999
      }
    ],
    "3660": [
      {
        "length": 32,
        "start": 3957
      }
    ],
    "3662": [
      {
        "length": 32,
        "start": 3915
      }
    ],
    "3664": [
      {
        "length": 32,
        "start": 4080
      }
    ],
    "3666": [
      {
        "length": 32,
        "start": 4120
      }
    ],
    "3669": [
      {
        "length": 32,
        "start": 4620
      }
    ],
    "3672": [
      {
        "length": 32,
        "start": 4665
      }
    ]
  },
  "inputSourceName": "project/contracts/Diamonds.sol",
  "buildInfoId": "solc-0_8_21-01635e889ba6c40c9ebf98ff78fc54a4075ec8af"
}