{
  "_format": "hh-sol-artifact-1",
  "contractName": "Universe",
  "sourceName": "contracts/Universe.sol",
  "abi": [
    {
      "inputs": [
        {
          "internalType": "address",
          "name": "defaultAdmin",
          "type": "address"
        },
        {
          "internalType": "address",
          "name": "minter",
          "type": "address"
        },
        {
          "internalType": "string",
          "name": "ipfsCid",
          "type": "string"
        }
      ],
      "stateMutability": "nonpayable",
      "type": "constructor"
    },
    {
      "inputs": [],
      "name": "AccessControlBadConfirmation",
      "type": "error"
    },
    {
      "inputs": [
        {
          "internalType": "address",
          "name": "account",
          "type": "address"
        },
        {
          "internalType": "bytes32",
          "name": "neededRole",
          "type": "bytes32"
        }
      ],
      "name": "AccessControlUnauthorizedAccount",
      "type": "error"
    },
    {
      "inputs": [],
      "name": "ECDSAInvalidSignature",
      "type": "error"
    },
    {
      "inputs": [
        {
          "internalType": "uint256",
          "name": "length",
          "type": "uint256"
        }
      ],
      "name": "ECDSAInvalidSignatureLength",
      "type": "error"
    },
    {
      "inputs": [
        {
          "internalType": "bytes32",
          "name": "s",
          "type": "bytes32"
        }
      ],
      "name": "ECDSAInvalidSignatureS",
      "type": "error"
    },
    {
      "inputs": [
        {
          "internalType": "address",
          "name": "sender",
          "type": "address"
        },
        {
          "internalType": "uint256",
          "name": "tokenId",
          "type": "uint256"
        },
        {
          "internalType": "address",
          "name": "owner",
          "type": "address"
        }
      ],
      "name": "ERC721IncorrectOwner",
      "type": "error"
    },
    {
      "inputs": [
        {
          "internalType": "address",
          "name": "operator",
          "type": "address"
        },
        {
          "internalType": "uint256",
          "name": "tokenId",
          "type": "uint256"
        }
      ],
      "name": "ERC721InsufficientApproval",
      "type": "error"
    },
    {
      "inputs": [
        {
          "internalType": "address",
          "name": "approver",
          "type": "address"
        }
      ],
      "name": "ERC721InvalidApprover",
      "type": "error"
    },
    {
      "inputs": [
        {
          "internalType": "address",
          "name": "operator",
          "type": "address"
        }
      ],
      "name": "ERC721InvalidOperator",
      "type": "error"
    },
    {
      "inputs": [
        {
          "internalType": "address",
          "name": "owner",
          "type": "address"
        }
      ],
      "name": "ERC721InvalidOwner",
      "type": "error"
    },
    {
      "inputs": [
        {
          "internalType": "address",
          "name": "receiver",
          "type": "address"
        }
      ],
      "name": "ERC721InvalidReceiver",
      "type": "error"
    },
    {
      "inputs": [
        {
          "internalType": "address",
          "name": "sender",
          "type": "address"
        }
      ],
      "name": "ERC721InvalidSender",
      "type": "error"
    },
    {
      "inputs": [
        {
          "internalType": "uint256",
          "name": "tokenId",
          "type": "uint256"
        }
      ],
      "name": "ERC721NonexistentToken",
      "type": "error"
    },
    {
      "anonymous": false,
      "inputs": [
        {
          "indexed": true,
          "internalType": "address",
          "name": "owner",
          "type": "address"
        },
        {
          "indexed": true,
          "internalType": "address",
          "name": "approved",
          "type": "address"
        },
        {
          "indexed": true,
          "internalType": "uint256",
          "name": "tokenId",
          "type": "uint256"
        }
      ],
      "name": "Approval",
      "type": "event"
    },
    {
      "anonymous": false,
      "inputs": [
        {
          "indexed": true,
          "internalType": "address",
          "name": "owner",
          "type": "address"
        },
        {
          "indexed": true,
          "internalType": "address",
          "name": "operator",
          "type": "address"
        },
        {
          "indexed": false,
          "internalType": "bool",
          "name": "approved",
          "type": "bool"
        }
      ],
      "name": "ApprovalForAll",
      "type": "event"
    },
    {
      "anonymous": false,
      "inputs": [
        {
          "indexed": false,
          "internalType": "uint256",
          "name": "_fromTokenId",
          "type": "uint256"
        },
        {
          "indexed": false,
          "internalType": "uint256",
          "name": "_toTokenId",
          "type": "uint256"
        }
      ],
      "name": "BatchMetadataUpdate",
      "type": "event"
    },
    {
      "anonymous": false,
      "inputs": [
        {
          "indexed": false,
          "internalType": "uint256",
          "name": "_tokenId",
          "type": "uint256"
        }
      ],
      "name": "MetadataUpdate",
      "type": "event"
    },
    {
      "anonymous": false,
      "inputs": [
        {
          "indexed": true,
          "internalType": "bytes32",
          "name": "role",
          "type": "bytes32"
        },
        {
          "indexed": true,
          "internalType": "bytes32",
          "name": "previousAdminRole",
          "type": "bytes32"
        },
        {
          "indexed": true,
          "internalType": "bytes32",
          "name": "newAdminRole",
          "type": "bytes32"
        }
      ],
      "name": "RoleAdminChanged",
      "type": "event"
    },
    {
      "anonymous": false,
      "inputs": [
        {
          "indexed": true,
          "internalType": "bytes32",
          "name": "role",
          "type": "bytes32"
        },
        {
          "indexed": true,
          "internalType": "address",
          "name": "account",
          "type": "address"
        },
        {
          "indexed": true,
          "internalType": "address",
          "name": "sender",
          "type": "address"
        }
      ],
      "name": "RoleGranted",
      "type": "event"
    },
    {
      "anonymous": false,
      "inputs": [
        {
          "indexed": true,
          "internalType": "bytes32",
          "name": "role",
          "type": "bytes32"
        },
        {
          "indexed": true,
          "internalType": "address",
          "name": "account",
          "type": "address"
        },
        {
          "indexed": true,
          "internalType": "address",
          "name": "sender",
          "type": "address"
        }
      ],
      "name": "RoleRevoked",
      "type": "event"
    },
    {
      "anonymous": false,
      "inputs": [
        {
          "indexed": true,
          "internalType": "address",
          "name": "from",
          "type": "address"
        },
        {
          "indexed": true,
          "internalType": "address",
          "name": "to",
          "type": "address"
        },
        {
          "indexed": true,
          "internalType": "uint256",
          "name": "tokenId",
          "type": "uint256"
        }
      ],
      "name": "Transfer",
      "type": "event"
    },
    {
      "inputs": [],
      "name": "DEFAULT_ADMIN_ROLE",
      "outputs": [
        {
          "internalType": "bytes32",
          "name": "",
          "type": "bytes32"
        }
      ],
      "stateMutability": "view",
      "type": "function"
    },
    {
      "inputs": [],
      "name": "MINTER_ROLE",
      "outputs": [
        {
          "internalType": "bytes32",
          "name": "",
          "type": "bytes32"
        }
      ],
      "stateMutability": "view",
      "type": "function"
    },
    {
      "inputs": [
        {
          "internalType": "address",
          "name": "to",
          "type": "address"
        },
        {
          "internalType": "uint256",
          "name": "tokenId",
          "type": "uint256"
        }
      ],
      "name": "approve",
      "outputs": [],
      "stateMutability": "nonpayable",
      "type": "function"
    },
    {
      "inputs": [
        {
          "internalType": "address",
          "name": "owner",
          "type": "address"
        }
      ],
      "name": "balanceOf",
      "outputs": [
        {
          "internalType": "uint256",
          "name": "",
          "type": "uint256"
        }
      ],
      "stateMutability": "view",
      "type": "function"
    },
    {
      "inputs": [],
      "name": "contractURI",
      "outputs": [
        {
          "internalType": "string",
          "name": "",
          "type": "string"
        }
      ],
      "stateMutability": "view",
      "type": "function"
    },
    {
      "inputs": [
        {
          "internalType": "uint256",
          "name": "tokenId",
          "type": "uint256"
        }
      ],
      "name": "getApproved",
      "outputs": [
        {
          "internalType": "address",
          "name": "",
          "type": "address"
        }
      ],
      "stateMutability": "view",
      "type": "function"
    },
    {
      "inputs": [],
      "name": "getDiamondAddress",
      "outputs": [
        {
          "internalType": "address",
          "name": "",
          "type": "address"
        }
      ],
      "stateMutability": "view",
      "type": "function"
    },
    {
      "inputs": [],
      "name": "getIpfsCid",
      "outputs": [
        {
          "internalType": "string",
          "name": "",
          "type": "string"
        }
      ],
      "stateMutability": "view",
      "type": "function"
    },
    {
      "inputs": [
        {
          "internalType": "bytes32",
          "name": "role",
          "type": "bytes32"
        }
      ],
      "name": "getRoleAdmin",
      "outputs": [
        {
          "internalType": "bytes32",
          "name": "",
          "type": "bytes32"
        }
      ],
      "stateMutability": "view",
      "type": "function"
    },
    {
      "inputs": [
        {
          "internalType": "bytes32",
          "name": "role",
          "type": "bytes32"
        },
        {
          "internalType": "address",
          "name": "account",
          "type": "address"
        }
      ],
      "name": "grantRole",
      "outputs": [],
      "stateMutability": "nonpayable",
      "type": "function"
    },
    {
      "inputs": [
        {
          "internalType": "bytes32",
          "name": "role",
          "type": "bytes32"
        },
        {
          "internalType": "address",
          "name": "account",
          "type": "address"
        }
      ],
      "name": "hasRole",
      "outputs": [
        {
          "internalType": "bool",
          "name": "",
          "type": "bool"
        }
      ],
      "stateMutability": "view",
      "type": "function"
    },
    {
      "inputs": [
        {
          "internalType": "address",
          "name": "owner",
          "type": "address"
        },
        {
          "internalType": "address",
          "name": "operator",
          "type": "address"
        }
      ],
      "name": "isApprovedForAll",
      "outputs": [
        {
          "internalType": "bool",
          "name": "",
          "type": "bool"
        }
      ],
      "stateMutability": "view",
      "type": "function"
    },
    {
      "inputs": [
        {
          "internalType": "address",
          "name": "to",
          "type": "address"
        },
        {
          "internalType": "uint256",
          "name": "tokenId",
          "type": "uint256"
        },
        {
          "internalType": "uint256",
          "name": "cost",
          "type": "uint256"
        },
        {
          "internalType": "uint256",
          "name": "expires",
          "type": "uint256"
        },
        {
          "internalType": "uint8",
          "name": "v",
          "type": "uint8"
        },
        {
          "internalType": "bytes32",
          "name": "r",
          "type": "bytes32"
        },
        {
          "internalType": "bytes32",
          "name": "s",
          "type": "bytes32"
        }
      ],
      "name": "mint",
      "outputs": [],
      "stateMutability": "payable",
      "type": "function"
    },
    {
      "inputs": [],
      "name": "name",
      "outputs": [
        {
          "internalType": "string",
          "name": "",
          "type": "string"
        }
      ],
      "stateMutability": "view",
      "type": "function"
    },
    {
      "inputs": [
        {
          "internalType": "uint256",
          "name": "tokenId",
          "type": "uint256"
        }
      ],
      "name": "ownerOf",
      "outputs": [
        {
          "internalType": "address",
          "name": "",
          "type": "address"
        }
      ],
      "stateMutability": "view",
      "type": "function"
    },
    {
      "inputs": [
        {
          "internalType": "bytes32",
          "name": "role",
          "type": "bytes32"
        },
        {
          "internalType": "address",
          "name": "callerConfirmation",
          "type": "address"
        }
      ],
      "name": "renounceRole",
      "outputs": [],
      "stateMutability": "nonpayable",
      "type": "function"
    },
    {
      "inputs": [
        {
          "internalType": "bytes32",
          "name": "role",
          "type": "bytes32"
        },
        {
          "internalType": "address",
          "name": "account",
          "type": "address"
        }
      ],
      "name": "revokeRole",
      "outputs": [],
      "stateMutability": "nonpayable",
      "type": "function"
    },
    {
      "inputs": [
        {
          "internalType": "address",
          "name": "from",
          "type": "address"
        },
        {
          "internalType": "address",
          "name": "to",
          "type": "address"
        },
        {
          "internalType": "uint256",
          "name": "tokenId",
          "type": "uint256"
        }
      ],
      "name": "safeTransferFrom",
      "outputs": [],
      "stateMutability": "nonpayable",
      "type": "function"
    },
    {
      "inputs": [
        {
          "internalType": "address",
          "name": "from",
          "type": "address"
        },
        {
          "internalType": "address",
          "name": "to",
          "type": "address"
        },
        {
          "internalType": "uint256",
          "name": "tokenId",
          "type": "uint256"
        },
        {
          "internalType": "bytes",
          "name": "data",
          "type": "bytes"
        }
      ],
      "name": "safeTransferFrom",
      "outputs": [],
      "stateMutability": "nonpayable",
      "type": "function"
    },
    {
      "inputs": [
        {
          "internalType": "address",
          "name": "operator",
          "type": "address"
        },
        {
          "internalType": "bool",
          "name": "approved",
          "type": "bool"
        }
      ],
      "name": "setApprovalForAll",
      "outputs": [],
      "stateMutability": "nonpayable",
      "type": "function"
    },
    {
      "inputs": [
        {
          "internalType": "bytes4",
          "name": "interfaceId",
          "type": "bytes4"
        }
      ],
      "name": "supportsInterface",
      "outputs": [
        {
          "internalType": "bool",
          "name": "",
          "type": "bool"
        }
      ],
      "stateMutability": "view",
      "type": "function"
    },
    {
      "inputs": [],
      "name": "symbol",
      "outputs": [
        {
          "internalType": "string",
          "name": "",
          "type": "string"
        }
      ],
      "stateMutability": "view",
      "type": "function"
    },
    {
      "inputs": [
        {
          "internalType": "uint256",
          "name": "tokenId",
          "type": "uint256"
        }
      ],
      "name": "tokenURI",
      "outputs": [
        {
          "internalType": "string",
          "name": "",
          "type": "string"
        }
      ],
      "stateMutability": "view",
      "type": "function"
    },
    {
      "inputs": [
        {
          "internalType": "address",
          "name": "from",
          "type": "address"
        },
        {
          "internalType": "address",
          "name": "to",
          "type": "address"
        },
        {
          "internalType": "uint256",
          "name": "tokenId",
          "type": "uint256"
        }
      ],
      "name": "transferFrom",
      "outputs": [],
      "stateMutability": "nonpayable",
      "type": "function"
    },
    {
      "inputs": [
        {
          "internalType": "string",
          "name": "ipfsCid",
          "type": "string"
        }
      ],
      "name": "update",
      "outputs": [],
      "stateMutability": "nonpayable",
      "type": "function"
    },
    {
      "inputs": [],
      "name": "withdraw",
      "outputs": [],
      "stateMutability": "payable",
      "type": "function"
    }
  ],
  "bytecode": "0x60806040523480156200001157600080fd5b50604051620050f0380380620050f0833981016040819052620000349162000296565b6040518060400160405280601881526020017f457468657265756d204261736562616c6c204c656167756500000000000000008152506040518060400160405280600381526020016211509360ea1b81525081600090816200009791906200041f565b506001620000a682826200041f565b50620000b891506000905084620001a2565b50620000e57f9f2df0fed2c77648de5860a4cc508cd0818c85b8b8a1ab4ceeef8d981c8956a683620001a2565b50600a620000f482826200041f565b50600a604051602001620001099190620004eb565b604051602081830303815290604052600990816200012891906200041f565b503083836040516200013a9062000255565b6001600160a01b03938416815291831660208301529091166040820152606001604051809103906000f08015801562000177573d6000803e3d6000fd5b50600880546001600160a01b0319166001600160a01b039290921691909117905550620005a7915050565b60008281526007602090815260408083206001600160a01b038516845290915281205460ff166200024b5760008381526007602090815260408083206001600160a01b03861684529091529020805460ff19166001179055620002023390565b6001600160a01b0316826001600160a01b0316847f2f8788117e7eff1d82e926ec794901d17c78024a50270940304540a733656f0d60405160405180910390a45060016200024f565b5060005b92915050565b6123ae8062002d4283390190565b80516001600160a01b03811681146200027b57600080fd5b919050565b634e487b7160e01b600052604160045260246000fd5b600080600060608486031215620002ac57600080fd5b620002b78462000263565b92506020620002c881860162000263565b60408601519093506001600160401b0380821115620002e657600080fd5b818701915087601f830112620002fb57600080fd5b81518181111562000310576200031062000280565b604051601f8201601f19908116603f011681019083821181831017156200033b576200033b62000280565b816040528281528a868487010111156200035457600080fd5b600093505b8284101562000378578484018601518185018701529285019262000359565b60008684830101528096505050505050509250925092565b600181811c90821680620003a557607f821691505b602082108103620003c657634e487b7160e01b600052602260045260246000fd5b50919050565b601f8211156200041a57600081815260208120601f850160051c81016020861015620003f55750805b601f850160051c820191505b81811015620004165782815560010162000401565b5050505b505050565b81516001600160401b038111156200043b576200043b62000280565b62000453816200044c845462000390565b84620003cc565b602080601f8311600181146200048b5760008415620004725750858301515b600019600386901b1c1916600185901b17855562000416565b600085815260208120601f198616915b82811015620004bc578886015182559484019460019091019084016200049b565b5085821015620004db5787850151600019600388901b60f8161c191681555b5050505050600190811b01905550565b66697066733a2f2f60c81b815260006007600084546200050b8162000390565b60018281168015620005265760018114620005405762000575565b60ff19841688870152821515830288018601945062000575565b8860005260208060002060005b858110156200056a5781548b82018a01529084019082016200054d565b505050858389010194505b50507f2f636f6e74726163744d657461646174612e6a736f6e0000000000000000000083525050601601949350505050565b61278b80620005b76000396000f3fe6080604052600436106101a15760003560e01c80636013c44c116100e1578063a22cb4651161008a578063d539139311610064578063d5391393146104ba578063d547741f146104ee578063e8a3d4851461050e578063e985e9c51461052357600080fd5b8063a22cb4651461045a578063b88d4fde1461047a578063c87b56dd1461049a57600080fd5b806391d14854116100bb57806391d14854146103dd57806395d89b4114610430578063a217fddf1461044557600080fd5b80636013c44c146103725780636352211e1461039d57806370a08231146103bd57600080fd5b80632f2ff15d1161014e5780633d7403a3116101285780633d7403a31461030a57806342842e0e1461032a57806354181ded1461034a5780635f3317a01461035f57600080fd5b80632f2ff15d146102c257806336568abe146102e25780633ccfd60b1461030257600080fd5b8063095ea7b31161017f578063095ea7b31461024257806323b872dd14610264578063248a9ca31461028457600080fd5b806301ffc9a7146101a657806306fdde03146101db578063081812fc146101fd575b600080fd5b3480156101b257600080fd5b506101c66101c1366004611f19565b610579565b60405190151581526020015b60405180910390f35b3480156101e757600080fd5b506101f061058a565b6040516101d29190611fab565b34801561020957600080fd5b5061021d610218366004611fbe565b61061c565b60405173ffffffffffffffffffffffffffffffffffffffff90911681526020016101d2565b34801561024e57600080fd5b5061026261025d366004612000565b610652565b005b34801561027057600080fd5b5061026261027f36600461202a565b610661565b34801561029057600080fd5b506102b461029f366004611fbe565b60009081526007602052604090206001015490565b6040519081526020016101d2565b3480156102ce57600080fd5b506102626102dd366004612066565b610757565b3480156102ee57600080fd5b506102626102fd366004612066565b61077c565b6102626107da565b34801561031657600080fd5b50610262610325366004612155565b61083a565b34801561033657600080fd5b5061026261034536600461202a565b6108fe565b34801561035657600080fd5b506101f0610919565b61026261036d36600461219e565b610928565b34801561037e57600080fd5b5060085473ffffffffffffffffffffffffffffffffffffffff1661021d565b3480156103a957600080fd5b5061021d6103b8366004611fbe565b610c66565b3480156103c957600080fd5b506102b46103d836600461220a565b610c71565b3480156103e957600080fd5b506101c66103f8366004612066565b600091825260076020908152604080842073ffffffffffffffffffffffffffffffffffffffff93909316845291905290205460ff1690565b34801561043c57600080fd5b506101f0610cec565b34801561045157600080fd5b506102b4600081565b34801561046657600080fd5b50610262610475366004612225565b610cfb565b34801561048657600080fd5b50610262610495366004612261565b610d06565b3480156104a657600080fd5b506101f06104b5366004611fbe565b610d1e565b3480156104c657600080fd5b506102b47f9f2df0fed2c77648de5860a4cc508cd0818c85b8b8a1ab4ceeef8d981c8956a681565b3480156104fa57600080fd5b50610262610509366004612066565b610e04565b34801561051a57600080fd5b506101f0610e29565b34801561052f57600080fd5b506101c661053e3660046122dd565b73ffffffffffffffffffffffffffffffffffffffff918216600090815260056020908152604080832093909416825291909152205460ff1690565b600061058482610e38565b92915050565b60606000805461059990612307565b80601f01602080910402602001604051908101604052809291908181526020018280546105c590612307565b80156106125780601f106105e757610100808354040283529160200191610612565b820191906000526020600020905b8154815290600101906020018083116105f557829003601f168201915b5050505050905090565b600061062782610e8e565b5060008281526004602052604090205473ffffffffffffffffffffffffffffffffffffffff16610584565b61065d828233610eed565b5050565b73ffffffffffffffffffffffffffffffffffffffff82166106b6576040517f64a0ae92000000000000000000000000000000000000000000000000000000008152600060048201526024015b60405180910390fd5b60006106c3838333610efa565b90508373ffffffffffffffffffffffffffffffffffffffff168173ffffffffffffffffffffffffffffffffffffffff1614610751576040517f64283d7b00000000000000000000000000000000000000000000000000000000815273ffffffffffffffffffffffffffffffffffffffff808616600483015260248201849052821660448201526064016106ad565b50505050565b60008281526007602052604090206001015461077281611077565b6107518383611084565b73ffffffffffffffffffffffffffffffffffffffff811633146107cb576040517f6697b23200000000000000000000000000000000000000000000000000000000815260040160405180910390fd5b6107d58282611184565b505050565b60006107e581611077565b604051600090339047908381818185875af1925050503d8060008114610827576040519150601f19603f3d011682016040523d82523d6000602084013e61082c565b606091505b505090508061065d57600080fd5b7f9f2df0fed2c77648de5860a4cc508cd0818c85b8b8a1ab4ceeef8d981c8956a661086481611077565b600a61087083826123a0565b50600a604051602001610883919061254b565b604051602081830303815290604052600990816108a091906123a0565b5060408051600081527fffffffffffffffffffffffffffffffffffffffffffffffffffffffffffffffff60208201527f6bd5c950a8d8df17f772f5af37cb3655737899cbf903264b9795592da439661c910160405180910390a15050565b6107d583838360405180602001604052806000815250610d06565b6060600a805461059990612307565b73ffffffffffffffffffffffffffffffffffffffff871633146109a7576040517f08c379a000000000000000000000000000000000000000000000000000000000815260206004820152600d60248201527f57726f6e672077616c6c65742e0000000000000000000000000000000000000060448201526064016106ad565b60008681526002602052604090205473ffffffffffffffffffffffffffffffffffffffff1615610a33576040517f08c379a000000000000000000000000000000000000000000000000000000000815260206004820152601760248201527f546f6b656e20697320616c7265616479206f776e65642e00000000000000000060448201526064016106ad565b60008686868a6000604051602001610a4f9594939291906125d9565b604051602081830303815290604052805190602001209050600081604051602001610aa691907f19457468657265756d205369676e6564204d6573736167653a0a3332000000008152601c810191909152603c0190565b6040516020818303038152906040528051906020012090506000610acc82878787611243565b73ffffffffffffffffffffffffffffffffffffffff811660009081527fa4bfd7afe708e2e87e7f0e2ad9b4d545417e0f795f57b5c5ab5d799c565a04f4602052604090205490915060ff16610b7d576040517f08c379a000000000000000000000000000000000000000000000000000000000815260206004820152601860248201527f4d757374206265207369676e6564206279206d696e746572000000000000000060448201526064016106ad565b873414610be6576040517f08c379a000000000000000000000000000000000000000000000000000000000815260206004820152600e60248201527f53656e642065786163742045544800000000000000000000000000000000000060448201526064016106ad565b86421115610c50576040517f08c379a000000000000000000000000000000000000000000000000000000000815260206004820152600860248201527f457870697265642e00000000000000000000000000000000000000000000000060448201526064016106ad565b610c5a8a8a611271565b50505050505050505050565b600061058482610e8e565b600073ffffffffffffffffffffffffffffffffffffffff8216610cc3576040517f89c62b64000000000000000000000000000000000000000000000000000000008152600060048201526024016106ad565b5073ffffffffffffffffffffffffffffffffffffffff1660009081526003602052604090205490565b60606001805461059990612307565b61065d33838361128b565b610d11848484610661565b6107513385858585611388565b60008181526002602052604090205460609073ffffffffffffffffffffffffffffffffffffffff16610dd2576040517f08c379a000000000000000000000000000000000000000000000000000000000815260206004820152602f60248201527f4552433732314d657461646174613a2055524920717565727920666f72206e6f60448201527f6e6578697374656e7420746f6b656e000000000000000000000000000000000060648201526084016106ad565b600a610ddd83611581565b604051602001610dee929190612651565b6040516020818303038152906040529050919050565b600082815260076020526040902060010154610e1f81611077565b6107518383611184565b60606009805461059990612307565b60007fffffffff0000000000000000000000000000000000000000000000000000000082167f7965db0b00000000000000000000000000000000000000000000000000000000148061058457506105848261163f565b60008181526002602052604081205473ffffffffffffffffffffffffffffffffffffffff1680610584576040517f7e273289000000000000000000000000000000000000000000000000000000008152600481018490526024016106ad565b6107d58383836001611695565b60008281526002602052604081205473ffffffffffffffffffffffffffffffffffffffff90811690831615610f3457610f34818486611860565b73ffffffffffffffffffffffffffffffffffffffff811615610faa57610f5e600085600080611695565b73ffffffffffffffffffffffffffffffffffffffff8116600090815260036020526040902080547fffffffffffffffffffffffffffffffffffffffffffffffffffffffffffffffff0190555b73ffffffffffffffffffffffffffffffffffffffff851615610ff35773ffffffffffffffffffffffffffffffffffffffff85166000908152600360205260409020805460010190555b60008481526002602052604080822080547fffffffffffffffffffffffff00000000000000000000000000000000000000001673ffffffffffffffffffffffffffffffffffffffff89811691821790925591518793918516917fddf252ad1be2c89b69c2b068fc378daa952ba7f163c4a11628f55a4df523b3ef91a4949350505050565b6110818133611910565b50565b600082815260076020908152604080832073ffffffffffffffffffffffffffffffffffffffff8516845290915281205460ff1661117c57600083815260076020908152604080832073ffffffffffffffffffffffffffffffffffffffff86168452909152902080547fffffffffffffffffffffffffffffffffffffffffffffffffffffffffffffff0016600117905561111a3390565b73ffffffffffffffffffffffffffffffffffffffff168273ffffffffffffffffffffffffffffffffffffffff16847f2f8788117e7eff1d82e926ec794901d17c78024a50270940304540a733656f0d60405160405180910390a4506001610584565b506000610584565b600082815260076020908152604080832073ffffffffffffffffffffffffffffffffffffffff8516845290915281205460ff161561117c57600083815260076020908152604080832073ffffffffffffffffffffffffffffffffffffffff8616808552925280832080547fffffffffffffffffffffffffffffffffffffffffffffffffffffffffffffff0016905551339286917ff6391f5c32d9c69d2a47ea670b442974b53935d1edc7fd64eb21e047a839171b9190a4506001610584565b60008060008061125588888888611998565b9250925092506112658282611a92565b50909695505050505050565b61065d828260405180602001604052806000815250611b96565b73ffffffffffffffffffffffffffffffffffffffff82166112f0576040517f5b08ba1800000000000000000000000000000000000000000000000000000000815273ffffffffffffffffffffffffffffffffffffffff831660048201526024016106ad565b73ffffffffffffffffffffffffffffffffffffffff83811660008181526005602090815260408083209487168084529482529182902080547fffffffffffffffffffffffffffffffffffffffffffffffffffffffffffffff001686151590811790915591519182527f17307eab39ab6107e8899845ad3d59bd9653f200f220920489ca2b5937696c31910160405180910390a3505050565b73ffffffffffffffffffffffffffffffffffffffff83163b1561157a576040517f150b7a0200000000000000000000000000000000000000000000000000000000815273ffffffffffffffffffffffffffffffffffffffff84169063150b7a02906113fd9088908890879087906004016126ef565b6020604051808303816000875af1925050508015611456575060408051601f3d9081017fffffffffffffffffffffffffffffffffffffffffffffffffffffffffffffffe016820190925261145391810190612738565b60015b6114e5573d808015611484576040519150601f19603f3d011682016040523d82523d6000602084013e611489565b606091505b5080516000036114dd576040517f64a0ae9200000000000000000000000000000000000000000000000000000000815273ffffffffffffffffffffffffffffffffffffffff851660048201526024016106ad565b805181602001fd5b7fffffffff0000000000000000000000000000000000000000000000000000000081167f150b7a020000000000000000000000000000000000000000000000000000000014611578576040517f64a0ae9200000000000000000000000000000000000000000000000000000000815273ffffffffffffffffffffffffffffffffffffffff851660048201526024016106ad565b505b5050505050565b6060600061158e83611bae565b600101905060008167ffffffffffffffff8111156115ae576115ae612092565b6040519080825280601f01601f1916602001820160405280156115d8576020820181803683370190505b5090508181016020015b7fffffffffffffffffffffffffffffffffffffffffffffffffffffffffffffffff017f3031323334353637383961626364656600000000000000000000000000000000600a86061a8153600a85049450846115e257509392505050565b60007fffffffff0000000000000000000000000000000000000000000000000000000082167f49064906000000000000000000000000000000000000000000000000000000001480610584575061058482611c90565b80806116b6575073ffffffffffffffffffffffffffffffffffffffff821615155b1561180b5760006116c684610e8e565b905073ffffffffffffffffffffffffffffffffffffffff83161580159061171957508273ffffffffffffffffffffffffffffffffffffffff168173ffffffffffffffffffffffffffffffffffffffff1614155b8015611758575073ffffffffffffffffffffffffffffffffffffffff80821660009081526005602090815260408083209387168352929052205460ff16155b156117a7576040517fa9fbf51f00000000000000000000000000000000000000000000000000000000815273ffffffffffffffffffffffffffffffffffffffff841660048201526024016106ad565b811561180957838573ffffffffffffffffffffffffffffffffffffffff168273ffffffffffffffffffffffffffffffffffffffff167f8c5be1e5ebec7d5bd14f71427d1e84f3dd0314c0f7b2291e5b200ac8c7c3b92560405160405180910390a45b505b5050600090815260046020526040902080547fffffffffffffffffffffffff00000000000000000000000000000000000000001673ffffffffffffffffffffffffffffffffffffffff92909216919091179055565b61186b838383611d73565b6107d55773ffffffffffffffffffffffffffffffffffffffff83166118bf576040517f7e273289000000000000000000000000000000000000000000000000000000008152600481018290526024016106ad565b6040517f177e802f00000000000000000000000000000000000000000000000000000000815273ffffffffffffffffffffffffffffffffffffffff83166004820152602481018290526044016106ad565b600082815260076020908152604080832073ffffffffffffffffffffffffffffffffffffffff8516845290915290205460ff1661065d576040517fe2517d3f00000000000000000000000000000000000000000000000000000000815273ffffffffffffffffffffffffffffffffffffffff82166004820152602481018390526044016106ad565b600080807f7fffffffffffffffffffffffffffffff5d576e7357a4501ddfe92f46681b20a08411156119d35750600091506003905082611a88565b604080516000808252602082018084528a905260ff891692820192909252606081018790526080810186905260019060a0016020604051602081039080840390855afa158015611a27573d6000803e3d6000fd5b50506040517fffffffffffffffffffffffffffffffffffffffffffffffffffffffffffffffe0015191505073ffffffffffffffffffffffffffffffffffffffff8116611a7e57506000925060019150829050611a88565b9250600091508190505b9450945094915050565b6000826003811115611aa657611aa66125aa565b03611aaf575050565b6001826003811115611ac357611ac36125aa565b03611afa576040517ff645eedf00000000000000000000000000000000000000000000000000000000815260040160405180910390fd5b6002826003811115611b0e57611b0e6125aa565b03611b48576040517ffce698f7000000000000000000000000000000000000000000000000000000008152600481018290526024016106ad565b6003826003811115611b5c57611b5c6125aa565b0361065d576040517fd78bce0c000000000000000000000000000000000000000000000000000000008152600481018290526024016106ad565b611ba08383611e3a565b6107d5336000858585611388565b6000807a184f03e93ff9f4daa797ed6e38ed64bf6a1f0100000000000000008310611bf7577a184f03e93ff9f4daa797ed6e38ed64bf6a1f010000000000000000830492506040015b6d04ee2d6d415b85acef81000000008310611c23576d04ee2d6d415b85acef8100000000830492506020015b662386f26fc100008310611c4157662386f26fc10000830492506010015b6305f5e1008310611c59576305f5e100830492506008015b6127108310611c6d57612710830492506004015b60648310611c7f576064830492506002015b600a83106105845760010192915050565b60007fffffffff0000000000000000000000000000000000000000000000000000000082167f80ac58cd000000000000000000000000000000000000000000000000000000001480611d2357507fffffffff0000000000000000000000000000000000000000000000000000000082167f5b5e139f00000000000000000000000000000000000000000000000000000000145b8061058457507f01ffc9a7000000000000000000000000000000000000000000000000000000007fffffffff00000000000000000000000000000000000000000000000000000000831614610584565b600073ffffffffffffffffffffffffffffffffffffffff831615801590611e3257508273ffffffffffffffffffffffffffffffffffffffff168473ffffffffffffffffffffffffffffffffffffffff161480611e01575073ffffffffffffffffffffffffffffffffffffffff80851660009081526005602090815260408083209387168352929052205460ff165b80611e32575060008281526004602052604090205473ffffffffffffffffffffffffffffffffffffffff8481169116145b949350505050565b73ffffffffffffffffffffffffffffffffffffffff8216611e8a576040517f64a0ae92000000000000000000000000000000000000000000000000000000008152600060048201526024016106ad565b6000611e9883836000610efa565b905073ffffffffffffffffffffffffffffffffffffffff8116156107d5576040517f73c6ac6e000000000000000000000000000000000000000000000000000000008152600060048201526024016106ad565b7fffffffff000000000000000000000000000000000000000000000000000000008116811461108157600080fd5b600060208284031215611f2b57600080fd5b8135611f3681611eeb565b9392505050565b60005b83811015611f58578181015183820152602001611f40565b50506000910152565b60008151808452611f79816020860160208601611f3d565b601f017fffffffffffffffffffffffffffffffffffffffffffffffffffffffffffffffe0169290920160200192915050565b602081526000611f366020830184611f61565b600060208284031215611fd057600080fd5b5035919050565b803573ffffffffffffffffffffffffffffffffffffffff81168114611ffb57600080fd5b919050565b6000806040838503121561201357600080fd5b61201c83611fd7565b946020939093013593505050565b60008060006060848603121561203f57600080fd5b61204884611fd7565b925061205660208501611fd7565b9150604084013590509250925092565b6000806040838503121561207957600080fd5b8235915061208960208401611fd7565b90509250929050565b7f4e487b7100000000000000000000000000000000000000000000000000000000600052604160045260246000fd5b600067ffffffffffffffff808411156120dc576120dc612092565b604051601f85017fffffffffffffffffffffffffffffffffffffffffffffffffffffffffffffffe0908116603f0116810190828211818310171561212257612122612092565b8160405280935085815286868601111561213b57600080fd5b858560208301376000602087830101525050509392505050565b60006020828403121561216757600080fd5b813567ffffffffffffffff81111561217e57600080fd5b8201601f8101841361218f57600080fd5b611e32848235602084016120c1565b600080600080600080600060e0888a0312156121b957600080fd5b6121c288611fd7565b9650602088013595506040880135945060608801359350608088013560ff811681146121ed57600080fd5b9699959850939692959460a0840135945060c09093013592915050565b60006020828403121561221c57600080fd5b611f3682611fd7565b6000806040838503121561223857600080fd5b61224183611fd7565b91506020830135801515811461225657600080fd5b809150509250929050565b6000806000806080858703121561227757600080fd5b61228085611fd7565b935061228e60208601611fd7565b925060408501359150606085013567ffffffffffffffff8111156122b157600080fd5b8501601f810187136122c257600080fd5b6122d1878235602084016120c1565b91505092959194509250565b600080604083850312156122f057600080fd5b6122f983611fd7565b915061208960208401611fd7565b600181811c9082168061231b57607f821691505b602082108103612354577f4e487b7100000000000000000000000000000000000000000000000000000000600052602260045260246000fd5b50919050565b601f8211156107d557600081815260208120601f850160051c810160208610156123815750805b601f850160051c820191505b818110156115785782815560010161238d565b815167ffffffffffffffff8111156123ba576123ba612092565b6123ce816123c88454612307565b8461235a565b602080601f83116001811461242157600084156123eb5750858301515b7fffffffffffffffffffffffffffffffffffffffffffffffffffffffffffffffff600386901b1c1916600185901b178555611578565b6000858152602081207fffffffffffffffffffffffffffffffffffffffffffffffffffffffffffffffe08616915b8281101561246e5788860151825594840194600190910190840161244f565b50858210156124aa57878501517fffffffffffffffffffffffffffffffffffffffffffffffffffffffffffffffff600388901b60f8161c191681555b5050505050600190811b01905550565b600081546124c781612307565b600182811680156124df576001811461251257612541565b7fffffffffffffffffffffffffffffffffffffffffffffffffffffffffffffff0084168752821515830287019450612541565b8560005260208060002060005b858110156125385781548a82015290840190820161251f565b50505082870194505b5050505092915050565b7f697066733a2f2f000000000000000000000000000000000000000000000000008152600061257d60078301846124ba565b7f2f636f6e74726163744d657461646174612e6a736f6e0000000000000000000081526016019392505050565b7f4e487b7100000000000000000000000000000000000000000000000000000000600052602160045260246000fd5b858152602081018590526040810184905273ffffffffffffffffffffffffffffffffffffffff8316606082015260a0810160038310612641577f4e487b7100000000000000000000000000000000000000000000000000000000600052602160045260246000fd5b8260808301529695505050505050565b7f697066733a2f2f000000000000000000000000000000000000000000000000008152600061268360078301856124ba565b7f2f6d657461646174612f00000000000000000000000000000000000000000000815283516126b981600a840160208801611f3d565b7f2e6a736f6e000000000000000000000000000000000000000000000000000000600a9290910191820152600f01949350505050565b600073ffffffffffffffffffffffffffffffffffffffff80871683528086166020840152508360408301526080606083015261272e6080830184611f61565b9695505050505050565b60006020828403121561274a57600080fd5b8151611f3681611eeb56fea26469706673582212209fbc7d8ecdaf6b333588e3e33cc2c28a071a52226f4be6c259dbfe4fa3523bfd64736f6c634300081500336101606040523480156200001257600080fd5b50604051620023ae380380620023ae833981016040819052620000359162000340565b604051806040016040528060088152602001674469616d6f6e647360c01b81525080604051806040016040528060018152602001603160f81b815250604051806040016040528060088152602001674469616d6f6e647360c01b815250604051806040016040528060078152602001661112505353d39160ca1b8152508160039081620000c391906200042f565b506004620000d282826200042f565b50620000e491508390506006620001ec565b61012052620000f5816007620001ec565b61014052815160208084019190912060e052815190820120610100524660a0526200018360e05161010051604080517f8b73c3c69bb8fe3d512ecc4cf759cc79239f7b179b0ffacaa9a75d522b39400f60208201529081019290925260608201524660808201523060a082015260009060c00160405160208183030381529060405280519060200120905090565b60805250503060c05250600980546001600160a01b0319166001600160a01b038516179055620001b560008362000225565b50620001e27f9f2df0fed2c77648de5860a4cc508cd0818c85b8b8a1ab4ceeef8d981c8956a68262000225565b5050505062000570565b60006020835110156200020c576200020483620002d7565b90506200021f565b816200021984826200042f565b5060ff90505b92915050565b60008281526005602090815260408083206001600160a01b038516845290915281205460ff16620002ce5760008381526005602090815260408083206001600160a01b03861684529091529020805460ff19166001179055620002853390565b6001600160a01b0316826001600160a01b0316847f2f8788117e7eff1d82e926ec794901d17c78024a50270940304540a733656f0d60405160405180910390a45060016200021f565b5060006200021f565b600080829050601f815111156200030e578260405163305a27a960e01b8152600401620003059190620004fb565b60405180910390fd5b80516200031b826200054b565b179392505050565b80516001600160a01b03811681146200033b57600080fd5b919050565b6000806000606084860312156200035657600080fd5b620003618462000323565b9250620003716020850162000323565b9150620003816040850162000323565b90509250925092565b634e487b7160e01b600052604160045260246000fd5b600181811c90821680620003b557607f821691505b602082108103620003d657634e487b7160e01b600052602260045260246000fd5b50919050565b601f8211156200042a57600081815260208120601f850160051c81016020861015620004055750805b601f850160051c820191505b81811015620004265782815560010162000411565b5050505b505050565b81516001600160401b038111156200044b576200044b6200038a565b62000463816200045c8454620003a0565b84620003dc565b602080601f8311600181146200049b5760008415620004825750858301515b600019600386901b1c1916600185901b17855562000426565b600085815260208120601f198616915b82811015620004cc57888601518255948401946001909101908401620004ab565b5085821015620004eb5787850151600019600388901b60f8161c191681555b5050505050600190811b01905550565b600060208083528351808285015260005b818110156200052a578581018301518582016040015282016200050c565b506000604082860101526040601f19601f8301168501019250505092915050565b80516020808301519190811015620003d65760001960209190910360031b1b16919050565b60805160a05160c05160e051610100516101205161014051611de3620005cb6000396000611285015260006112580152600061105b0152600061103301526000610f8e01526000610fb801526000610fe20152611de36000f3fe608060405234801561001057600080fd5b50600436106101c45760003560e01c806370a08231116100f9578063a9059cbb11610097578063d505accf11610071578063d505accf146103ec578063d5391393146103ff578063d547741f14610426578063dd62ed3e1461043957600080fd5b8063a9059cbb146103ae578063af95f9fb146103c1578063cd8b73cb146103e457600080fd5b806384b0196e116100d357806384b0196e1461033d57806391d148541461035857806395d89b411461039e578063a217fddf146103a657600080fd5b806370a08231146102e157806379cc6790146103175780637ecebe001461032a57600080fd5b8063301440f11161016657806336568abe1161014057806336568abe1461029557806342966c68146102a857806347e7ef24146102bb5780635f3317a0146102ce57600080fd5b8063301440f114610276578063313ce5671461027e5780633644e5151461028d57600080fd5b806318160ddd116101a257806318160ddd1461021957806323b872dd1461022b578063248a9ca31461023e5780632f2ff15d1461026157600080fd5b806301ffc9a7146101c957806306fdde03146101f1578063095ea7b314610206575b600080fd5b6101dc6101d7366004611997565b61047f565b60405190151581526020015b60405180910390f35b6101f9610518565b6040516101e89190611a44565b6101dc610214366004611a80565b6105aa565b6002545b6040519081526020016101e8565b6101dc610239366004611aaa565b6105c2565b61021d61024c366004611ae6565b60009081526005602052604090206001015490565b61027461026f366004611aff565b6105e6565b005b61021d600481565b604051601281526020016101e8565b61021d610611565b6102746102a3366004611aff565b610620565b6102746102b6366004611ae6565b61067e565b6102746102c9366004611a80565b61068b565b6102746102dc366004611b3c565b6106e8565b61021d6102ef366004611b9f565b73ffffffffffffffffffffffffffffffffffffffff1660009081526020819052604090205490565b610274610325366004611a80565b610a63565b61021d610338366004611b9f565b610a78565b610345610aa3565b6040516101e89796959493929190611bba565b6101dc610366366004611aff565b600091825260056020908152604080842073ffffffffffffffffffffffffffffffffffffffff93909316845291905290205460ff1690565b6101f9610b05565b61021d600081565b6101dc6103bc366004611a80565b610b14565b6101dc6103cf366004611ae6565b600a6020526000908152604090205460ff1681565b61021d600381565b6102746103fa366004611c79565b610b22565b61021d7f9f2df0fed2c77648de5860a4cc508cd0818c85b8b8a1ab4ceeef8d981c8956a681565b610274610434366004611aff565b610cc3565b61021d610447366004611cc7565b73ffffffffffffffffffffffffffffffffffffffff918216600090815260016020908152604080832093909416825291909152205490565b60007fffffffff0000000000000000000000000000000000000000000000000000000082167f7965db0b00000000000000000000000000000000000000000000000000000000148061051257507f01ffc9a7000000000000000000000000000000000000000000000000000000007fffffffff000000000000000000000000000000000000000000000000000000008316145b92915050565b60606003805461052790611cf1565b80601f016020809104026020016040519081016040528092919081815260200182805461055390611cf1565b80156105a05780601f10610575576101008083540402835291602001916105a0565b820191906000526020600020905b81548152906001019060200180831161058357829003601f168201915b5050505050905090565b6000336105b8818585610ce8565b5060019392505050565b6000336105d0858285610cf5565b6105db858585610dbf565b506001949350505050565b60008281526005602052604090206001015461060181610e6a565b61060b8383610e74565b50505050565b600061061b610f74565b905090565b73ffffffffffffffffffffffffffffffffffffffff8116331461066f576040517f6697b23200000000000000000000000000000000000000000000000000000000815260040160405180910390fd5b61067982826110ac565b505050565b610688338261116b565b50565b6040805173ffffffffffffffffffffffffffffffffffffffff84168152602081018390527fa0de46d9102820311637a381d79b7d6de6e1b72a4324d8011ecab7a17a597622910160405180910390a16106e4828261116b565b5050565b73ffffffffffffffffffffffffffffffffffffffff8716331461076c576040517f08c379a000000000000000000000000000000000000000000000000000000000815260206004820152600d60248201527f57726f6e672077616c6c65742e0000000000000000000000000000000000000060448201526064015b60405180910390fd5b6000868152600a602052604090205460ff16156107e5576040517f08c379a000000000000000000000000000000000000000000000000000000000815260206004820152601760248201527f4d696e74207061737320616c726561647920757365642e0000000000000000006044820152606401610763565b60408051602081018890529081018690526060810185905273ffffffffffffffffffffffffffffffffffffffff88166080820152600460a082015260009060c00160405160208183030381529060405280519060200120905060008160405160200161087d91907f19457468657265756d205369676e6564204d6573736167653a0a3332000000008152601c810191909152603c0190565b60405160208183030381529060405280519060200120905060006108a3828787876111c7565b73ffffffffffffffffffffffffffffffffffffffff811660009081527f15a28d26fa1bf736cf7edc9922607171ccb09c3c73b808e7772a3013e068a522602052604090205490915060ff16610954576040517f08c379a000000000000000000000000000000000000000000000000000000000815260206004820152601860248201527f4d757374206265207369676e6564206279206d696e74657200000000000000006044820152606401610763565b864211156109be576040517f08c379a000000000000000000000000000000000000000000000000000000000815260206004820152600860248201527f457870697265642e0000000000000000000000000000000000000000000000006044820152606401610763565b6000898152600a602090815260409182902080547fffffffffffffffffffffffffffffffffffffffffffffffffffffffffffffff00166001179055815173ffffffffffffffffffffffffffffffffffffffff8d1681529081018b90529081018990527f6e6164e9bbef467f7f8a1f5712dfaf149ebf1622810ec53e99e131b1687fed4b9060600160405180910390a1610a578a896111f5565b50505050505050505050565b610a6e823383610cf5565b6106e4828261116b565b73ffffffffffffffffffffffffffffffffffffffff8116600090815260086020526040812054610512565b600060608060008060006060610ab7611251565b610abf61127e565b604080516000808252602082019092527f0f000000000000000000000000000000000000000000000000000000000000009b939a50919850469750309650945092509050565b60606004805461052790611cf1565b6000336105b8818585610dbf565b83421115610b5f576040517f6279130200000000000000000000000000000000000000000000000000000000815260048101859052602401610763565b60007f6e71edae12b1b97f4d1f60370fef10105fa2faae0126114a169c64845d6126c9888888610bb98c73ffffffffffffffffffffffffffffffffffffffff16600090815260086020526040902080546001810190915590565b60408051602081019690965273ffffffffffffffffffffffffffffffffffffffff94851690860152929091166060840152608083015260a082015260c0810186905260e0016040516020818303038152906040528051906020012090506000610c21826112ab565b90506000610c31828787876111c7565b90508973ffffffffffffffffffffffffffffffffffffffff168173ffffffffffffffffffffffffffffffffffffffff1614610cb8576040517f4b800e4600000000000000000000000000000000000000000000000000000000815273ffffffffffffffffffffffffffffffffffffffff80831660048301528b166024820152604401610763565b610a578a8a8a610ce8565b600082815260056020526040902060010154610cde81610e6a565b61060b83836110ac565b61067983838360016112f3565b73ffffffffffffffffffffffffffffffffffffffff8381166000908152600160209081526040808320938616835292905220547fffffffffffffffffffffffffffffffffffffffffffffffffffffffffffffffff81101561060b5781811015610db0576040517ffb8f41b200000000000000000000000000000000000000000000000000000000815273ffffffffffffffffffffffffffffffffffffffff841660048201526024810182905260448101839052606401610763565b61060b848484840360006112f3565b73ffffffffffffffffffffffffffffffffffffffff8316610e0f576040517f96c6fd1e00000000000000000000000000000000000000000000000000000000815260006004820152602401610763565b73ffffffffffffffffffffffffffffffffffffffff8216610e5f576040517fec442f0500000000000000000000000000000000000000000000000000000000815260006004820152602401610763565b61067983838361143b565b61068881336115e6565b600082815260056020908152604080832073ffffffffffffffffffffffffffffffffffffffff8516845290915281205460ff16610f6c57600083815260056020908152604080832073ffffffffffffffffffffffffffffffffffffffff86168452909152902080547fffffffffffffffffffffffffffffffffffffffffffffffffffffffffffffff00166001179055610f0a3390565b73ffffffffffffffffffffffffffffffffffffffff168273ffffffffffffffffffffffffffffffffffffffff16847f2f8788117e7eff1d82e926ec794901d17c78024a50270940304540a733656f0d60405160405180910390a4506001610512565b506000610512565b60003073ffffffffffffffffffffffffffffffffffffffff7f000000000000000000000000000000000000000000000000000000000000000016148015610fda57507f000000000000000000000000000000000000000000000000000000000000000046145b1561100457507f000000000000000000000000000000000000000000000000000000000000000090565b61061b604080517f8b73c3c69bb8fe3d512ecc4cf759cc79239f7b179b0ffacaa9a75d522b39400f60208201527f0000000000000000000000000000000000000000000000000000000000000000918101919091527f000000000000000000000000000000000000000000000000000000000000000060608201524660808201523060a082015260009060c00160405160208183030381529060405280519060200120905090565b600082815260056020908152604080832073ffffffffffffffffffffffffffffffffffffffff8516845290915281205460ff1615610f6c57600083815260056020908152604080832073ffffffffffffffffffffffffffffffffffffffff8616808552925280832080547fffffffffffffffffffffffffffffffffffffffffffffffffffffffffffffff0016905551339286917ff6391f5c32d9c69d2a47ea670b442974b53935d1edc7fd64eb21e047a839171b9190a4506001610512565b73ffffffffffffffffffffffffffffffffffffffff82166111bb576040517f96c6fd1e00000000000000000000000000000000000000000000000000000000815260006004820152602401610763565b6106e48260008361143b565b6000806000806111d98888888861166e565b9250925092506111e98282611768565b50909695505050505050565b73ffffffffffffffffffffffffffffffffffffffff8216611245576040517fec442f0500000000000000000000000000000000000000000000000000000000815260006004820152602401610763565b6106e46000838361143b565b606061061b7f0000000000000000000000000000000000000000000000000000000000000000600661186c565b606061061b7f0000000000000000000000000000000000000000000000000000000000000000600761186c565b60006105126112b8610f74565b836040517f19010000000000000000000000000000000000000000000000000000000000008152600281019290925260228201526042902090565b73ffffffffffffffffffffffffffffffffffffffff8416611343576040517fe602df0500000000000000000000000000000000000000000000000000000000815260006004820152602401610763565b73ffffffffffffffffffffffffffffffffffffffff8316611393576040517f94280d6200000000000000000000000000000000000000000000000000000000815260006004820152602401610763565b73ffffffffffffffffffffffffffffffffffffffff8085166000908152600160209081526040808320938716835292905220829055801561060b578273ffffffffffffffffffffffffffffffffffffffff168473ffffffffffffffffffffffffffffffffffffffff167f8c5be1e5ebec7d5bd14f71427d1e84f3dd0314c0f7b2291e5b200ac8c7c3b9258460405161142d91815260200190565b60405180910390a350505050565b73ffffffffffffffffffffffffffffffffffffffff83166114735780600260008282546114689190611d44565b909155506115259050565b73ffffffffffffffffffffffffffffffffffffffff8316600090815260208190526040902054818110156114f9576040517fe450d38c00000000000000000000000000000000000000000000000000000000815273ffffffffffffffffffffffffffffffffffffffff851660048201526024810182905260448101839052606401610763565b73ffffffffffffffffffffffffffffffffffffffff841660009081526020819052604090209082900390555b73ffffffffffffffffffffffffffffffffffffffff821661154e5760028054829003905561157a565b73ffffffffffffffffffffffffffffffffffffffff821660009081526020819052604090208054820190555b8173ffffffffffffffffffffffffffffffffffffffff168373ffffffffffffffffffffffffffffffffffffffff167fddf252ad1be2c89b69c2b068fc378daa952ba7f163c4a11628f55a4df523b3ef836040516115d991815260200190565b60405180910390a3505050565b600082815260056020908152604080832073ffffffffffffffffffffffffffffffffffffffff8516845290915290205460ff166106e4576040517fe2517d3f00000000000000000000000000000000000000000000000000000000815273ffffffffffffffffffffffffffffffffffffffff8216600482015260248101839052604401610763565b600080807f7fffffffffffffffffffffffffffffff5d576e7357a4501ddfe92f46681b20a08411156116a9575060009150600390508261175e565b604080516000808252602082018084528a905260ff891692820192909252606081018790526080810186905260019060a0016020604051602081039080840390855afa1580156116fd573d6000803e3d6000fd5b50506040517fffffffffffffffffffffffffffffffffffffffffffffffffffffffffffffffe0015191505073ffffffffffffffffffffffffffffffffffffffff81166117545750600092506001915082905061175e565b9250600091508190505b9450945094915050565b600082600381111561177c5761177c611d7e565b03611785575050565b600182600381111561179957611799611d7e565b036117d0576040517ff645eedf00000000000000000000000000000000000000000000000000000000815260040160405180910390fd5b60028260038111156117e4576117e4611d7e565b0361181e576040517ffce698f700000000000000000000000000000000000000000000000000000000815260048101829052602401610763565b600382600381111561183257611832611d7e565b036106e4576040517fd78bce0c00000000000000000000000000000000000000000000000000000000815260048101829052602401610763565b606060ff83146118865761187f83611917565b9050610512565b81805461189290611cf1565b80601f01602080910402602001604051908101604052809291908181526020018280546118be90611cf1565b801561190b5780601f106118e05761010080835404028352916020019161190b565b820191906000526020600020905b8154815290600101906020018083116118ee57829003601f168201915b50505050509050610512565b6060600061192483611956565b604080516020808252818301909252919250600091906020820181803683375050509182525060208101929092525090565b600060ff8216601f811115610512576040517fb3512b0c00000000000000000000000000000000000000000000000000000000815260040160405180910390fd5b6000602082840312156119a957600080fd5b81357fffffffff00000000000000000000000000000000000000000000000000000000811681146119d957600080fd5b9392505050565b6000815180845260005b81811015611a06576020818501810151868301820152016119ea565b5060006020828601015260207fffffffffffffffffffffffffffffffffffffffffffffffffffffffffffffffe0601f83011685010191505092915050565b6020815260006119d960208301846119e0565b803573ffffffffffffffffffffffffffffffffffffffff81168114611a7b57600080fd5b919050565b60008060408385031215611a9357600080fd5b611a9c83611a57565b946020939093013593505050565b600080600060608486031215611abf57600080fd5b611ac884611a57565b9250611ad660208501611a57565b9150604084013590509250925092565b600060208284031215611af857600080fd5b5035919050565b60008060408385031215611b1257600080fd5b82359150611b2260208401611a57565b90509250929050565b803560ff81168114611a7b57600080fd5b600080600080600080600060e0888a031215611b5757600080fd5b611b6088611a57565b9650602088013595506040880135945060608801359350611b8360808901611b2b565b925060a0880135915060c0880135905092959891949750929550565b600060208284031215611bb157600080fd5b6119d982611a57565b7fff00000000000000000000000000000000000000000000000000000000000000881681526000602060e081840152611bf660e084018a6119e0565b8381036040850152611c08818a6119e0565b6060850189905273ffffffffffffffffffffffffffffffffffffffff8816608086015260a0850187905284810360c0860152855180825283870192509083019060005b81811015611c6757835183529284019291840191600101611c4b565b50909c9b505050505050505050505050565b600080600080600080600060e0888a031215611c9457600080fd5b611c9d88611a57565b9650611cab60208901611a57565b95506040880135945060608801359350611b8360808901611b2b565b60008060408385031215611cda57600080fd5b611ce383611a57565b9150611b2260208401611a57565b600181811c90821680611d0557607f821691505b602082108103611d3e577f4e487b7100000000000000000000000000000000000000000000000000000000600052602260045260246000fd5b50919050565b80820180821115610512577f4e487b7100000000000000000000000000000000000000000000000000000000600052601160045260246000fd5b7f4e487b7100000000000000000000000000000000000000000000000000000000600052602160045260246000fdfea264697066735822122006d8da4b375e8475556134003d234c8e08388c9ef8ad88f8b6da0759b33f832864736f6c63430008150033",
  "linkReferences": {},
  "deployedLinkReferences": {}
}