{
  "_format": "hh3-artifact-1",
  "contractName": "Universe",
  "sourceName": "contracts/Universe.sol",
  "abi": [
    {
      "inputs": [
        {
          "internalType": "address",
          "name": "defaultAdmin",
          "type": "address"
        },
        {
          "internalType": "address",
          "name": "minter",
          "type": "address"
        },
        {
          "internalType": "string",
          "name": "ipfsCid",
          "type": "string"
        }
      ],
      "stateMutability": "nonpayable",
      "type": "constructor"
    },
    {
      "inputs": [],
      "name": "AccessControlBadConfirmation",
      "type": "error"
    },
    {
      "inputs": [
        {
          "internalType": "address",
          "name": "account",
          "type": "address"
        },
        {
          "internalType": "bytes32",
          "name": "neededRole",
          "type": "bytes32"
        }
      ],
      "name": "AccessControlUnauthorizedAccount",
      "type": "error"
    },
    {
      "inputs": [],
      "name": "ECDSAInvalidSignature",
      "type": "error"
    },
    {
      "inputs": [
        {
          "internalType": "uint256",
          "name": "length",
          "type": "uint256"
        }
      ],
      "name": "ECDSAInvalidSignatureLength",
      "type": "error"
    },
    {
      "inputs": [
        {
          "internalType": "bytes32",
          "name": "s",
          "type": "bytes32"
        }
      ],
      "name": "ECDSAInvalidSignatureS",
      "type": "error"
    },
    {
      "inputs": [
        {
          "internalType": "address",
          "name": "sender",
          "type": "address"
        },
        {
          "internalType": "uint256",
          "name": "tokenId",
          "type": "uint256"
        },
        {
          "internalType": "address",
          "name": "owner",
          "type": "address"
        }
      ],
      "name": "ERC721IncorrectOwner",
      "type": "error"
    },
    {
      "inputs": [
        {
          "internalType": "address",
          "name": "operator",
          "type": "address"
        },
        {
          "internalType": "uint256",
          "name": "tokenId",
          "type": "uint256"
        }
      ],
      "name": "ERC721InsufficientApproval",
      "type": "error"
    },
    {
      "inputs": [
        {
          "internalType": "address",
          "name": "approver",
          "type": "address"
        }
      ],
      "name": "ERC721InvalidApprover",
      "type": "error"
    },
    {
      "inputs": [
        {
          "internalType": "address",
          "name": "operator",
          "type": "address"
        }
      ],
      "name": "ERC721InvalidOperator",
      "type": "error"
    },
    {
      "inputs": [
        {
          "internalType": "address",
          "name": "owner",
          "type": "address"
        }
      ],
      "name": "ERC721InvalidOwner",
      "type": "error"
    },
    {
      "inputs": [
        {
          "internalType": "address",
          "name": "receiver",
          "type": "address"
        }
      ],
      "name": "ERC721InvalidReceiver",
      "type": "error"
    },
    {
      "inputs": [
        {
          "internalType": "address",
          "name": "sender",
          "type": "address"
        }
      ],
      "name": "ERC721InvalidSender",
      "type": "error"
    },
    {
      "inputs": [
        {
          "internalType": "uint256",
          "name": "tokenId",
          "type": "uint256"
        }
      ],
      "name": "ERC721NonexistentToken",
      "type": "error"
    },
    {
      "anonymous": false,
      "inputs": [
        {
          "indexed": true,
          "internalType": "address",
          "name": "owner",
          "type": "address"
        },
        {
          "indexed": true,
          "internalType": "address",
          "name": "approved",
          "type": "address"
        },
        {
          "indexed": true,
          "internalType": "uint256",
          "name": "tokenId",
          "type": "uint256"
        }
      ],
      "name": "Approval",
      "type": "event"
    },
    {
      "anonymous": false,
      "inputs": [
        {
          "indexed": true,
          "internalType": "address",
          "name": "owner",
          "type": "address"
        },
        {
          "indexed": true,
          "internalType": "address",
          "name": "operator",
          "type": "address"
        },
        {
          "indexed": false,
          "internalType": "bool",
          "name": "approved",
          "type": "bool"
        }
      ],
      "name": "ApprovalForAll",
      "type": "event"
    },
    {
      "anonymous": false,
      "inputs": [
        {
          "indexed": false,
          "internalType": "uint256",
          "name": "_fromTokenId",
          "type": "uint256"
        },
        {
          "indexed": false,
          "internalType": "uint256",
          "name": "_toTokenId",
          "type": "uint256"
        }
      ],
      "name": "BatchMetadataUpdate",
      "type": "event"
    },
    {
      "anonymous": false,
      "inputs": [
        {
          "indexed": false,
          "internalType": "uint256",
          "name": "_tokenId",
          "type": "uint256"
        }
      ],
      "name": "MetadataUpdate",
      "type": "event"
    },
    {
      "anonymous": false,
      "inputs": [
        {
          "indexed": true,
          "internalType": "bytes32",
          "name": "role",
          "type": "bytes32"
        },
        {
          "indexed": true,
          "internalType": "bytes32",
          "name": "previousAdminRole",
          "type": "bytes32"
        },
        {
          "indexed": true,
          "internalType": "bytes32",
          "name": "newAdminRole",
          "type": "bytes32"
        }
      ],
      "name": "RoleAdminChanged",
      "type": "event"
    },
    {
      "anonymous": false,
      "inputs": [
        {
          "indexed": true,
          "internalType": "bytes32",
          "name": "role",
          "type": "bytes32"
        },
        {
          "indexed": true,
          "internalType": "address",
          "name": "account",
          "type": "address"
        },
        {
          "indexed": true,
          "internalType": "address",
          "name": "sender",
          "type": "address"
        }
      ],
      "name": "RoleGranted",
      "type": "event"
    },
    {
      "anonymous": false,
      "inputs": [
        {
          "indexed": true,
          "internalType": "bytes32",
          "name": "role",
          "type": "bytes32"
        },
        {
          "indexed": true,
          "internalType": "address",
          "name": "account",
          "type": "address"
        },
        {
          "indexed": true,
          "internalType": "address",
          "name": "sender",
          "type": "address"
        }
      ],
      "name": "RoleRevoked",
      "type": "event"
    },
    {
      "anonymous": false,
      "inputs": [
        {
          "indexed": true,
          "internalType": "address",
          "name": "from",
          "type": "address"
        },
        {
          "indexed": true,
          "internalType": "address",
          "name": "to",
          "type": "address"
        },
        {
          "indexed": true,
          "internalType": "uint256",
          "name": "tokenId",
          "type": "uint256"
        }
      ],
      "name": "Transfer",
      "type": "event"
    },
    {
      "inputs": [],
      "name": "DEFAULT_ADMIN_ROLE",
      "outputs": [
        {
          "internalType": "bytes32",
          "name": "",
          "type": "bytes32"
        }
      ],
      "stateMutability": "view",
      "type": "function"
    },
    {
      "inputs": [],
      "name": "MINTER_ROLE",
      "outputs": [
        {
          "internalType": "bytes32",
          "name": "",
          "type": "bytes32"
        }
      ],
      "stateMutability": "view",
      "type": "function"
    },
    {
      "inputs": [
        {
          "internalType": "address",
          "name": "to",
          "type": "address"
        },
        {
          "internalType": "uint256",
          "name": "tokenId",
          "type": "uint256"
        }
      ],
      "name": "approve",
      "outputs": [],
      "stateMutability": "nonpayable",
      "type": "function"
    },
    {
      "inputs": [
        {
          "internalType": "address",
          "name": "owner",
          "type": "address"
        }
      ],
      "name": "balanceOf",
      "outputs": [
        {
          "internalType": "uint256",
          "name": "",
          "type": "uint256"
        }
      ],
      "stateMutability": "view",
      "type": "function"
    },
    {
      "inputs": [],
      "name": "contractURI",
      "outputs": [
        {
          "internalType": "string",
          "name": "",
          "type": "string"
        }
      ],
      "stateMutability": "view",
      "type": "function"
    },
    {
      "inputs": [
        {
          "internalType": "uint256",
          "name": "tokenId",
          "type": "uint256"
        }
      ],
      "name": "getApproved",
      "outputs": [
        {
          "internalType": "address",
          "name": "",
          "type": "address"
        }
      ],
      "stateMutability": "view",
      "type": "function"
    },
    {
      "inputs": [],
      "name": "getDiamondAddress",
      "outputs": [
        {
          "internalType": "address",
          "name": "",
          "type": "address"
        }
      ],
      "stateMutability": "view",
      "type": "function"
    },
    {
      "inputs": [],
      "name": "getIpfsCid",
      "outputs": [
        {
          "internalType": "string",
          "name": "",
          "type": "string"
        }
      ],
      "stateMutability": "view",
      "type": "function"
    },
    {
      "inputs": [
        {
          "internalType": "bytes32",
          "name": "role",
          "type": "bytes32"
        }
      ],
      "name": "getRoleAdmin",
      "outputs": [
        {
          "internalType": "bytes32",
          "name": "",
          "type": "bytes32"
        }
      ],
      "stateMutability": "view",
      "type": "function"
    },
    {
      "inputs": [
        {
          "internalType": "bytes32",
          "name": "role",
          "type": "bytes32"
        },
        {
          "internalType": "address",
          "name": "account",
          "type": "address"
        }
      ],
      "name": "grantRole",
      "outputs": [],
      "stateMutability": "nonpayable",
      "type": "function"
    },
    {
      "inputs": [
        {
          "internalType": "bytes32",
          "name": "role",
          "type": "bytes32"
        },
        {
          "internalType": "address",
          "name": "account",
          "type": "address"
        }
      ],
      "name": "hasRole",
      "outputs": [
        {
          "internalType": "bool",
          "name": "",
          "type": "bool"
        }
      ],
      "stateMutability": "view",
      "type": "function"
    },
    {
      "inputs": [
        {
          "internalType": "address",
          "name": "owner",
          "type": "address"
        },
        {
          "internalType": "address",
          "name": "operator",
          "type": "address"
        }
      ],
      "name": "isApprovedForAll",
      "outputs": [
        {
          "internalType": "bool",
          "name": "",
          "type": "bool"
        }
      ],
      "stateMutability": "view",
      "type": "function"
    },
    {
      "inputs": [
        {
          "internalType": "address",
          "name": "to",
          "type": "address"
        },
        {
          "internalType": "uint256",
          "name": "tokenId",
          "type": "uint256"
        },
        {
          "internalType": "uint256",
          "name": "cost",
          "type": "uint256"
        },
        {
          "internalType": "uint256",
          "name": "expires",
          "type": "uint256"
        },
        {
          "internalType": "uint8",
          "name": "v",
          "type": "uint8"
        },
        {
          "internalType": "bytes32",
          "name": "r",
          "type": "bytes32"
        },
        {
          "internalType": "bytes32",
          "name": "s",
          "type": "bytes32"
        }
      ],
      "name": "mint",
      "outputs": [],
      "stateMutability": "payable",
      "type": "function"
    },
    {
      "inputs": [],
      "name": "name",
      "outputs": [
        {
          "internalType": "string",
          "name": "",
          "type": "string"
        }
      ],
      "stateMutability": "view",
      "type": "function"
    },
    {
      "inputs": [
        {
          "internalType": "uint256",
          "name": "tokenId",
          "type": "uint256"
        }
      ],
      "name": "ownerOf",
      "outputs": [
        {
          "internalType": "address",
          "name": "",
          "type": "address"
        }
      ],
      "stateMutability": "view",
      "type": "function"
    },
    {
      "inputs": [
        {
          "internalType": "bytes32",
          "name": "role",
          "type": "bytes32"
        },
        {
          "internalType": "address",
          "name": "callerConfirmation",
          "type": "address"
        }
      ],
      "name": "renounceRole",
      "outputs": [],
      "stateMutability": "nonpayable",
      "type": "function"
    },
    {
      "inputs": [
        {
          "internalType": "bytes32",
          "name": "role",
          "type": "bytes32"
        },
        {
          "internalType": "address",
          "name": "account",
          "type": "address"
        }
      ],
      "name": "revokeRole",
      "outputs": [],
      "stateMutability": "nonpayable",
      "type": "function"
    },
    {
      "inputs": [
        {
          "internalType": "address",
          "name": "from",
          "type": "address"
        },
        {
          "internalType": "address",
          "name": "to",
          "type": "address"
        },
        {
          "internalType": "uint256",
          "name": "tokenId",
          "type": "uint256"
        }
      ],
      "name": "safeTransferFrom",
      "outputs": [],
      "stateMutability": "nonpayable",
      "type": "function"
    },
    {
      "inputs": [
        {
          "internalType": "address",
          "name": "from",
          "type": "address"
        },
        {
          "internalType": "address",
          "name": "to",
          "type": "address"
        },
        {
          "internalType": "uint256",
          "name": "tokenId",
          "type": "uint256"
        },
        {
          "internalType": "bytes",
          "name": "data",
          "type": "bytes"
        }
      ],
      "name": "safeTransferFrom",
      "outputs": [],
      "stateMutability": "nonpayable",
      "type": "function"
    },
    {
      "inputs": [
        {
          "internalType": "address",
          "name": "operator",
          "type": "address"
        },
        {
          "internalType": "bool",
          "name": "approved",
          "type": "bool"
        }
      ],
      "name": "setApprovalForAll",
      "outputs": [],
      "stateMutability": "nonpayable",
      "type": "function"
    },
    {
      "inputs": [
        {
          "internalType": "bytes4",
          "name": "interfaceId",
          "type": "bytes4"
        }
      ],
      "name": "supportsInterface",
      "outputs": [
        {
          "internalType": "bool",
          "name": "",
          "type": "bool"
        }
      ],
      "stateMutability": "view",
      "type": "function"
    },
    {
      "inputs": [],
      "name": "symbol",
      "outputs": [
        {
          "internalType": "string",
          "name": "",
          "type": "string"
        }
      ],
      "stateMutability": "view",
      "type": "function"
    },
    {
      "inputs": [
        {
          "internalType": "uint256",
          "name": "tokenId",
          "type": "uint256"
        }
      ],
      "name": "tokenURI",
      "outputs": [
        {
          "internalType": "string",
          "name": "",
          "type": "string"
        }
      ],
      "stateMutability": "view",
      "type": "function"
    },
    {
      "inputs": [
        {
          "internalType": "address",
          "name": "from",
          "type": "address"
        },
        {
          "internalType": "address",
          "name": "to",
          "type": "address"
        },
        {
          "internalType": "uint256",
          "name": "tokenId",
          "type": "uint256"
        }
      ],
      "name": "transferFrom",
      "outputs": [],
      "stateMutability": "nonpayable",
      "type": "function"
    },
    {
      "inputs": [
        {
          "internalType": "string",
          "name": "ipfsCid",
          "type": "string"
        }
      ],
      "name": "update",
      "outputs": [],
      "stateMutability": "nonpayable",
      "type": "function"
    },
    {
      "inputs": [],
      "name": "withdraw",
      "outputs": [],
      "stateMutability": "payable",
      "type": "function"
    }
  ],
  "bytecode": "0x608060405234801562000010575f80fd5b5060405162004f9438038062004f9483398101604081905262000033916200028a565b6040518060400160405280601881526020017f457468657265756d204261736562616c6c204c656167756500000000000000008152506040518060400160405280600381526020016211509360ea1b815250815f908162000095919062000408565b506001620000a4828262000408565b50620000b591505f9050846200019c565b50620000e27f9f2df0fed2c77648de5860a4cc508cd0818c85b8b8a1ab4ceeef8d981c8956a6836200019c565b50600a620000f1828262000408565b50600a604051602001620001069190620004d0565b6040516020818303038152906040526009908162000125919062000408565b5030838360405162000137906200024c565b6001600160a01b03938416815291831660208301529091166040820152606001604051809103905ff08015801562000171573d5f803e3d5ffd5b50600880546001600160a01b0319166001600160a01b03929092169190911790555062000587915050565b5f8281526007602090815260408083206001600160a01b038516845290915281205460ff1662000243575f8381526007602090815260408083206001600160a01b03861684529091529020805460ff19166001179055620001fa3390565b6001600160a01b0316826001600160a01b0316847f2f8788117e7eff1d82e926ec794901d17c78024a50270940304540a733656f0d60405160405180910390a450600162000246565b505f5b92915050565b6123208062002c7483390190565b80516001600160a01b038116811462000271575f80fd5b919050565b634e487b7160e01b5f52604160045260245ffd5b5f805f606084860312156200029d575f80fd5b620002a8846200025a565b92506020620002b98186016200025a565b60408601519093506001600160401b0380821115620002d6575f80fd5b818701915087601f830112620002ea575f80fd5b815181811115620002ff57620002ff62000276565b604051601f8201601f19908116603f011681019083821181831017156200032a576200032a62000276565b816040528281528a8684870101111562000342575f80fd5b5f93505b8284101562000365578484018601518185018701529285019262000346565b5f8684830101528096505050505050509250925092565b600181811c908216806200039157607f821691505b602082108103620003b057634e487b7160e01b5f52602260045260245ffd5b50919050565b601f82111562000403575f81815260208120601f850160051c81016020861015620003de5750805b601f850160051c820191505b81811015620003ff57828155600101620003ea565b5050505b505050565b81516001600160401b0381111562000424576200042462000276565b6200043c816200043584546200037c565b84620003b6565b602080601f83116001811462000472575f84156200045a5750858301515b5f19600386901b1c1916600185901b178555620003ff565b5f85815260208120601f198616915b82811015620004a25788860151825594840194600190910190840162000481565b5085821015620004c057878501515f19600388901b60f8161c191681555b5050505050600190811b01905550565b66697066733a2f2f60c81b81525f60075f8454620004ee816200037c565b60018281168015620005095760018114620005235762000555565b60ff19841688870152821515830288018601945062000555565b885f526020805f205f5b858110156200054a5781548b82018a01529084019082016200052d565b505050858389010194505b50507f2f636f6e74726163744d657461646174612e6a736f6e0000000000000000000083525050601601949350505050565b6126df80620005955f395ff3fe608060405260043610610199575f3560e01c80636013c44c116100dc578063a22cb46511610087578063d539139311610062578063d53913931461049a578063d547741f146104cd578063e8a3d485146104ec578063e985e9c514610500575f80fd5b8063a22cb4651461043d578063b88d4fde1461045c578063c87b56dd1461047b575f80fd5b806391d14854116100b757806391d14854146103c557806395d89b4114610416578063a217fddf1461042a575f80fd5b80636013c44c1461035d5780636352211e1461038757806370a08231146103a6575f80fd5b80632f2ff15d116101475780633d7403a3116101225780633d7403a3146102f857806342842e0e1461031757806354181ded146103365780635f3317a01461034a575f80fd5b80632f2ff15d146102b257806336568abe146102d15780633ccfd60b146102f0575f80fd5b8063095ea7b311610177578063095ea7b31461023657806323b872dd14610257578063248a9ca314610276575f80fd5b806301ffc9a71461019d57806306fdde03146101d1578063081812fc146101f2575b5f80fd5b3480156101a8575f80fd5b506101bc6101b7366004611eaa565b610554565b60405190151581526020015b60405180910390f35b3480156101dc575f80fd5b506101e5610564565b6040516101c89190611f37565b3480156101fd575f80fd5b5061021161020c366004611f49565b6105f3565b60405173ffffffffffffffffffffffffffffffffffffffff90911681526020016101c8565b348015610241575f80fd5b50610255610250366004611f88565b610627565b005b348015610262575f80fd5b50610255610271366004611fb0565b610636565b348015610281575f80fd5b506102a4610290366004611f49565b5f9081526007602052604090206001015490565b6040519081526020016101c8565b3480156102bd575f80fd5b506102556102cc366004611fe9565b61072a565b3480156102dc575f80fd5b506102556102eb366004611fe9565b61074e565b6102556107ac565b348015610303575f80fd5b506102556103123660046120d1565b610807565b348015610322575f80fd5b50610255610331366004611fb0565b6108ca565b348015610341575f80fd5b506101e56108e4565b610255610358366004612116565b6108f3565b348015610368575f80fd5b5060085473ffffffffffffffffffffffffffffffffffffffff16610211565b348015610392575f80fd5b506102116103a1366004611f49565b610c2b565b3480156103b1575f80fd5b506102a46103c036600461217c565b610c35565b3480156103d0575f80fd5b506101bc6103df366004611fe9565b5f91825260076020908152604080842073ffffffffffffffffffffffffffffffffffffffff93909316845291905290205460ff1690565b348015610421575f80fd5b506101e5610cad565b348015610435575f80fd5b506102a45f81565b348015610448575f80fd5b50610255610457366004612195565b610cbc565b348015610467575f80fd5b506102556104763660046121ce565b610cc7565b348015610486575f80fd5b506101e5610495366004611f49565b610cdf565b3480156104a5575f80fd5b506102a47f9f2df0fed2c77648de5860a4cc508cd0818c85b8b8a1ab4ceeef8d981c8956a681565b3480156104d8575f80fd5b506102556104e7366004611fe9565b610dc4565b3480156104f7575f80fd5b506101e5610de8565b34801561050b575f80fd5b506101bc61051a366004612245565b73ffffffffffffffffffffffffffffffffffffffff9182165f90815260056020908152604080832093909416825291909152205460ff1690565b5f61055e82610df7565b92915050565b60605f80546105729061226d565b80601f016020809104026020016040519081016040528092919081815260200182805461059e9061226d565b80156105e95780601f106105c0576101008083540402835291602001916105e9565b820191905f5260205f20905b8154815290600101906020018083116105cc57829003601f168201915b5050505050905090565b5f6105fd82610e4c565b505f8281526004602052604090205473ffffffffffffffffffffffffffffffffffffffff1661055e565b610632828233610eaa565b5050565b73ffffffffffffffffffffffffffffffffffffffff821661068a576040517f64a0ae920000000000000000000000000000000000000000000000000000000081525f60048201526024015b60405180910390fd5b5f610696838333610eb7565b90508373ffffffffffffffffffffffffffffffffffffffff168173ffffffffffffffffffffffffffffffffffffffff1614610724576040517f64283d7b00000000000000000000000000000000000000000000000000000000815273ffffffffffffffffffffffffffffffffffffffff80861660048301526024820184905282166044820152606401610681565b50505050565b5f828152600760205260409020600101546107448161102e565b610724838361103b565b73ffffffffffffffffffffffffffffffffffffffff8116331461079d576040517f6697b23200000000000000000000000000000000000000000000000000000000815260040160405180910390fd5b6107a78282611138565b505050565b5f6107b68161102e565b6040515f90339047908381818185875af1925050503d805f81146107f5576040519150601f19603f3d011682016040523d82523d5f602084013e6107fa565b606091505b5050905080610632575f80fd5b7f9f2df0fed2c77648de5860a4cc508cd0818c85b8b8a1ab4ceeef8d981c8956a66108318161102e565b600a61083d8382612303565b50600a60405160200161085091906124a8565b6040516020818303038152906040526009908161086d9190612303565b50604080515f81527fffffffffffffffffffffffffffffffffffffffffffffffffffffffffffffffff60208201527f6bd5c950a8d8df17f772f5af37cb3655737899cbf903264b9795592da439661c910160405180910390a15050565b6107a783838360405180602001604052805f815250610cc7565b6060600a80546105729061226d565b73ffffffffffffffffffffffffffffffffffffffff87163314610972576040517f08c379a000000000000000000000000000000000000000000000000000000000815260206004820152600d60248201527f57726f6e672077616c6c65742e000000000000000000000000000000000000006044820152606401610681565b5f8681526002602052604090205473ffffffffffffffffffffffffffffffffffffffff16156109fd576040517f08c379a000000000000000000000000000000000000000000000000000000000815260206004820152601760248201527f546f6b656e20697320616c7265616479206f776e65642e0000000000000000006044820152606401610681565b5f8686868a5f604051602001610a17959493929190612533565b6040516020818303038152906040528051906020012090505f81604051602001610a6d91907f19457468657265756d205369676e6564204d6573736167653a0a3332000000008152601c810191909152603c0190565b6040516020818303038152906040528051906020012090505f610a92828787876111f5565b73ffffffffffffffffffffffffffffffffffffffff81165f9081527fa4bfd7afe708e2e87e7f0e2ad9b4d545417e0f795f57b5c5ab5d799c565a04f4602052604090205490915060ff16610b42576040517f08c379a000000000000000000000000000000000000000000000000000000000815260206004820152601860248201527f4d757374206265207369676e6564206279206d696e74657200000000000000006044820152606401610681565b873414610bab576040517f08c379a000000000000000000000000000000000000000000000000000000000815260206004820152600e60248201527f53656e64206578616374204554480000000000000000000000000000000000006044820152606401610681565b86421115610c15576040517f08c379a000000000000000000000000000000000000000000000000000000000815260206004820152600860248201527f457870697265642e0000000000000000000000000000000000000000000000006044820152606401610681565b610c1f8a8a611221565b50505050505050505050565b5f61055e82610e4c565b5f73ffffffffffffffffffffffffffffffffffffffff8216610c85576040517f89c62b640000000000000000000000000000000000000000000000000000000081525f6004820152602401610681565b5073ffffffffffffffffffffffffffffffffffffffff165f9081526003602052604090205490565b6060600180546105729061226d565b61063233838361123a565b610cd2848484610636565b6107243385858585611336565b5f8181526002602052604090205460609073ffffffffffffffffffffffffffffffffffffffff16610d92576040517f08c379a000000000000000000000000000000000000000000000000000000000815260206004820152602f60248201527f4552433732314d657461646174613a2055524920717565727920666f72206e6f60448201527f6e6578697374656e7420746f6b656e00000000000000000000000000000000006064820152608401610681565b600a610d9d8361152c565b604051602001610dae9291906125a9565b6040516020818303038152906040529050919050565b5f82815260076020526040902060010154610dde8161102e565b6107248383611138565b6060600980546105729061226d565b5f7fffffffff0000000000000000000000000000000000000000000000000000000082167f7965db0b00000000000000000000000000000000000000000000000000000000148061055e575061055e826115e8565b5f8181526002602052604081205473ffffffffffffffffffffffffffffffffffffffff168061055e576040517f7e27328900000000000000000000000000000000000000000000000000000000815260048101849052602401610681565b6107a7838383600161163d565b5f8281526002602052604081205473ffffffffffffffffffffffffffffffffffffffff90811690831615610ef057610ef0818486611805565b73ffffffffffffffffffffffffffffffffffffffff811615610f6357610f185f855f8061163d565b73ffffffffffffffffffffffffffffffffffffffff81165f90815260036020526040902080547fffffffffffffffffffffffffffffffffffffffffffffffffffffffffffffffff0190555b73ffffffffffffffffffffffffffffffffffffffff851615610fab5773ffffffffffffffffffffffffffffffffffffffff85165f908152600360205260409020805460010190555b5f8481526002602052604080822080547fffffffffffffffffffffffff00000000000000000000000000000000000000001673ffffffffffffffffffffffffffffffffffffffff89811691821790925591518793918516917fddf252ad1be2c89b69c2b068fc378daa952ba7f163c4a11628f55a4df523b3ef91a4949350505050565b61103881336118b5565b50565b5f82815260076020908152604080832073ffffffffffffffffffffffffffffffffffffffff8516845290915281205460ff16611131575f83815260076020908152604080832073ffffffffffffffffffffffffffffffffffffffff86168452909152902080547fffffffffffffffffffffffffffffffffffffffffffffffffffffffffffffff001660011790556110cf3390565b73ffffffffffffffffffffffffffffffffffffffff168273ffffffffffffffffffffffffffffffffffffffff16847f2f8788117e7eff1d82e926ec794901d17c78024a50270940304540a733656f0d60405160405180910390a450600161055e565b505f61055e565b5f82815260076020908152604080832073ffffffffffffffffffffffffffffffffffffffff8516845290915281205460ff1615611131575f83815260076020908152604080832073ffffffffffffffffffffffffffffffffffffffff8616808552925280832080547fffffffffffffffffffffffffffffffffffffffffffffffffffffffffffffff0016905551339286917ff6391f5c32d9c69d2a47ea670b442974b53935d1edc7fd64eb21e047a839171b9190a450600161055e565b5f805f806112058888888861193c565b9250925092506112158282611a2f565b50909695505050505050565b610632828260405180602001604052805f815250611b32565b73ffffffffffffffffffffffffffffffffffffffff821661129f576040517f5b08ba1800000000000000000000000000000000000000000000000000000000815273ffffffffffffffffffffffffffffffffffffffff83166004820152602401610681565b73ffffffffffffffffffffffffffffffffffffffff8381165f8181526005602090815260408083209487168084529482529182902080547fffffffffffffffffffffffffffffffffffffffffffffffffffffffffffffff001686151590811790915591519182527f17307eab39ab6107e8899845ad3d59bd9653f200f220920489ca2b5937696c31910160405180910390a3505050565b73ffffffffffffffffffffffffffffffffffffffff83163b15611525576040517f150b7a0200000000000000000000000000000000000000000000000000000000815273ffffffffffffffffffffffffffffffffffffffff84169063150b7a02906113ab908890889087908790600401612646565b6020604051808303815f875af1925050508015611403575060408051601f3d9081017fffffffffffffffffffffffffffffffffffffffffffffffffffffffffffffffe01682019092526114009181019061268e565b60015b611490573d808015611430576040519150601f19603f3d011682016040523d82523d5f602084013e611435565b606091505b5080515f03611488576040517f64a0ae9200000000000000000000000000000000000000000000000000000000815273ffffffffffffffffffffffffffffffffffffffff85166004820152602401610681565b805181602001fd5b7fffffffff0000000000000000000000000000000000000000000000000000000081167f150b7a020000000000000000000000000000000000000000000000000000000014611523576040517f64a0ae9200000000000000000000000000000000000000000000000000000000815273ffffffffffffffffffffffffffffffffffffffff85166004820152602401610681565b505b5050505050565b60605f61153883611b49565b60010190505f8167ffffffffffffffff81111561155757611557612013565b6040519080825280601f01601f191660200182016040528015611581576020820181803683370190505b5090508181016020015b7fffffffffffffffffffffffffffffffffffffffffffffffffffffffffffffffff017f3031323334353637383961626364656600000000000000000000000000000000600a86061a8153600a850494508461158b57509392505050565b5f7fffffffff0000000000000000000000000000000000000000000000000000000082167f4906490600000000000000000000000000000000000000000000000000000000148061055e575061055e82611c2a565b808061165e575073ffffffffffffffffffffffffffffffffffffffff821615155b156117b1575f61166d84610e4c565b905073ffffffffffffffffffffffffffffffffffffffff8316158015906116c057508273ffffffffffffffffffffffffffffffffffffffff168173ffffffffffffffffffffffffffffffffffffffff1614155b80156116fe575073ffffffffffffffffffffffffffffffffffffffff8082165f9081526005602090815260408083209387168352929052205460ff16155b1561174d576040517fa9fbf51f00000000000000000000000000000000000000000000000000000000815273ffffffffffffffffffffffffffffffffffffffff84166004820152602401610681565b81156117af57838573ffffffffffffffffffffffffffffffffffffffff168273ffffffffffffffffffffffffffffffffffffffff167f8c5be1e5ebec7d5bd14f71427d1e84f3dd0314c0f7b2291e5b200ac8c7c3b92560405160405180910390a45b505b50505f90815260046020526040902080547fffffffffffffffffffffffff00000000000000000000000000000000000000001673ffffffffffffffffffffffffffffffffffffffff92909216919091179055565b611810838383611d0c565b6107a75773ffffffffffffffffffffffffffffffffffffffff8316611864576040517f7e27328900000000000000000000000000000000000000000000000000000000815260048101829052602401610681565b6040517f177e802f00000000000000000000000000000000000000000000000000000000815273ffffffffffffffffffffffffffffffffffffffff8316600482015260248101829052604401610681565b5f82815260076020908152604080832073ffffffffffffffffffffffffffffffffffffffff8516845290915290205460ff16610632576040517fe2517d3f00000000000000000000000000000000000000000000000000000000815273ffffffffffffffffffffffffffffffffffffffff8216600482015260248101839052604401610681565b5f80807f7fffffffffffffffffffffffffffffff5d576e7357a4501ddfe92f46681b20a084111561197557505f91506003905082611a25565b604080515f808252602082018084528a905260ff891692820192909252606081018790526080810186905260019060a0016020604051602081039080840390855afa1580156119c6573d5f803e3d5ffd5b50506040517fffffffffffffffffffffffffffffffffffffffffffffffffffffffffffffffe0015191505073ffffffffffffffffffffffffffffffffffffffff8116611a1c57505f925060019150829050611a25565b92505f91508190505b9450945094915050565b5f826003811115611a4257611a42612506565b03611a4b575050565b6001826003811115611a5f57611a5f612506565b03611a96576040517ff645eedf00000000000000000000000000000000000000000000000000000000815260040160405180910390fd5b6002826003811115611aaa57611aaa612506565b03611ae4576040517ffce698f700000000000000000000000000000000000000000000000000000000815260048101829052602401610681565b6003826003811115611af857611af8612506565b03610632576040517fd78bce0c00000000000000000000000000000000000000000000000000000000815260048101829052602401610681565b611b3c8383611dd0565b6107a7335f858585611336565b5f807a184f03e93ff9f4daa797ed6e38ed64bf6a1f0100000000000000008310611b91577a184f03e93ff9f4daa797ed6e38ed64bf6a1f010000000000000000830492506040015b6d04ee2d6d415b85acef81000000008310611bbd576d04ee2d6d415b85acef8100000000830492506020015b662386f26fc100008310611bdb57662386f26fc10000830492506010015b6305f5e1008310611bf3576305f5e100830492506008015b6127108310611c0757612710830492506004015b60648310611c19576064830492506002015b600a831061055e5760010192915050565b5f7fffffffff0000000000000000000000000000000000000000000000000000000082167f80ac58cd000000000000000000000000000000000000000000000000000000001480611cbc57507fffffffff0000000000000000000000000000000000000000000000000000000082167f5b5e139f00000000000000000000000000000000000000000000000000000000145b8061055e57507f01ffc9a7000000000000000000000000000000000000000000000000000000007fffffffff0000000000000000000000000000000000000000000000000000000083161461055e565b5f73ffffffffffffffffffffffffffffffffffffffff831615801590611dc857508273ffffffffffffffffffffffffffffffffffffffff168473ffffffffffffffffffffffffffffffffffffffff161480611d98575073ffffffffffffffffffffffffffffffffffffffff8085165f9081526005602090815260408083209387168352929052205460ff165b80611dc857505f8281526004602052604090205473ffffffffffffffffffffffffffffffffffffffff8481169116145b949350505050565b73ffffffffffffffffffffffffffffffffffffffff8216611e1f576040517f64a0ae920000000000000000000000000000000000000000000000000000000081525f6004820152602401610681565b5f611e2b83835f610eb7565b905073ffffffffffffffffffffffffffffffffffffffff8116156107a7576040517f73c6ac6e0000000000000000000000000000000000000000000000000000000081525f6004820152602401610681565b7fffffffff0000000000000000000000000000000000000000000000000000000081168114611038575f80fd5b5f60208284031215611eba575f80fd5b8135611ec581611e7d565b9392505050565b5f5b83811015611ee6578181015183820152602001611ece565b50505f910152565b5f8151808452611f05816020860160208601611ecc565b601f017fffffffffffffffffffffffffffffffffffffffffffffffffffffffffffffffe0169290920160200192915050565b602081525f611ec56020830184611eee565b5f60208284031215611f59575f80fd5b5035919050565b803573ffffffffffffffffffffffffffffffffffffffff81168114611f83575f80fd5b919050565b5f8060408385031215611f99575f80fd5b611fa283611f60565b946020939093013593505050565b5f805f60608486031215611fc2575f80fd5b611fcb84611f60565b9250611fd960208501611f60565b9150604084013590509250925092565b5f8060408385031215611ffa575f80fd5b8235915061200a60208401611f60565b90509250929050565b7f4e487b71000000000000000000000000000000000000000000000000000000005f52604160045260245ffd5b5f67ffffffffffffffff8084111561205a5761205a612013565b604051601f85017fffffffffffffffffffffffffffffffffffffffffffffffffffffffffffffffe0908116603f011681019082821181831017156120a0576120a0612013565b816040528093508581528686860111156120b8575f80fd5b858560208301375f602087830101525050509392505050565b5f602082840312156120e1575f80fd5b813567ffffffffffffffff8111156120f7575f80fd5b8201601f81018413612107575f80fd5b611dc884823560208401612040565b5f805f805f805f60e0888a03121561212c575f80fd5b61213588611f60565b9650602088013595506040880135945060608801359350608088013560ff8116811461215f575f80fd5b9699959850939692959460a0840135945060c09093013592915050565b5f6020828403121561218c575f80fd5b611ec582611f60565b5f80604083850312156121a6575f80fd5b6121af83611f60565b9150602083013580151581146121c3575f80fd5b809150509250929050565b5f805f80608085870312156121e1575f80fd5b6121ea85611f60565b93506121f860208601611f60565b925060408501359150606085013567ffffffffffffffff81111561221a575f80fd5b8501601f8101871361222a575f80fd5b61223987823560208401612040565b91505092959194509250565b5f8060408385031215612256575f80fd5b61225f83611f60565b915061200a60208401611f60565b600181811c9082168061228157607f821691505b6020821081036122b8577f4e487b71000000000000000000000000000000000000000000000000000000005f52602260045260245ffd5b50919050565b601f8211156107a7575f81815260208120601f850160051c810160208610156122e45750805b601f850160051c820191505b81811015611523578281556001016122f0565b815167ffffffffffffffff81111561231d5761231d612013565b6123318161232b845461226d565b846122be565b602080601f831160018114612383575f841561234d5750858301515b7fffffffffffffffffffffffffffffffffffffffffffffffffffffffffffffffff600386901b1c1916600185901b178555611523565b5f858152602081207fffffffffffffffffffffffffffffffffffffffffffffffffffffffffffffffe08616915b828110156123cf578886015182559484019460019091019084016123b0565b508582101561240b57878501517fffffffffffffffffffffffffffffffffffffffffffffffffffffffffffffffff600388901b60f8161c191681555b5050505050600190811b01905550565b5f81546124278161226d565b6001828116801561243f57600181146124725761249e565b7fffffffffffffffffffffffffffffffffffffffffffffffffffffffffffffff008416875282151583028701945061249e565b855f526020805f205f5b858110156124955781548a82015290840190820161247c565b50505082870194505b5050505092915050565b7f697066733a2f2f0000000000000000000000000000000000000000000000000081525f6124d9600783018461241b565b7f2f636f6e74726163744d657461646174612e6a736f6e0000000000000000000081526016019392505050565b7f4e487b71000000000000000000000000000000000000000000000000000000005f52602160045260245ffd5b858152602081018590526040810184905273ffffffffffffffffffffffffffffffffffffffff8316606082015260a0810160038310612599577f4e487b71000000000000000000000000000000000000000000000000000000005f52602160045260245ffd5b8260808301529695505050505050565b7f697066733a2f2f0000000000000000000000000000000000000000000000000081525f6125da600783018561241b565b7f2f6d657461646174612f000000000000000000000000000000000000000000008152835161261081600a840160208801611ecc565b7f2e6a736f6e000000000000000000000000000000000000000000000000000000600a9290910191820152600f01949350505050565b5f73ffffffffffffffffffffffffffffffffffffffff8087168352808616602084015250836040830152608060608301526126846080830184611eee565b9695505050505050565b5f6020828403121561269e575f80fd5b8151611ec581611e7d56fea26469706673582212206f6fd721afffd87d5e9bd8a76828d9c51198cdf692cf787066ca752b17d6bfc564736f6c6343000815003361016060405234801562000011575f80fd5b506040516200232038038062002320833981016040819052620000349162000321565b604051806060016040528060218152602001620022ff6021913980604051806040016040528060018152602001603160f81b815250604051806060016040528060218152602001620022ff602191396040805180820190915260048152631150931160e21b60208201526003620000ac838262000408565b506004620000bb828262000408565b50620000cd91508390506006620001d3565b61012052620000de816007620001d3565b61014052815160208084019190912060e052815190820120610100524660a0526200016b60e05161010051604080517f8b73c3c69bb8fe3d512ecc4cf759cc79239f7b179b0ffacaa9a75d522b39400f60208201529081019290925260608201524660808201523060a08201525f9060c00160405160208183030381529060405280519060200120905090565b60805250503060c05250600980546001600160a01b0319166001600160a01b0385161790556200019c5f836200020b565b50620001c97f9f2df0fed2c77648de5860a4cc508cd0818c85b8b8a1ab4ceeef8d981c8956a6826200020b565b5050505062000541565b5f602083511015620001f257620001ea83620002ba565b905062000205565b81620001ff848262000408565b5060ff90505b92915050565b5f8281526005602090815260408083206001600160a01b038516845290915281205460ff16620002b2575f8381526005602090815260408083206001600160a01b03861684529091529020805460ff19166001179055620002693390565b6001600160a01b0316826001600160a01b0316847f2f8788117e7eff1d82e926ec794901d17c78024a50270940304540a733656f0d60405160405180910390a450600162000205565b505f62000205565b5f80829050601f81511115620002f0578260405163305a27a960e01b8152600401620002e79190620004d0565b60405180910390fd5b8051620002fd826200051d565b179392505050565b80516001600160a01b03811681146200031c575f80fd5b919050565b5f805f6060848603121562000334575f80fd5b6200033f8462000305565b92506200034f6020850162000305565b91506200035f6040850162000305565b90509250925092565b634e487b7160e01b5f52604160045260245ffd5b600181811c908216806200039157607f821691505b602082108103620003b057634e487b7160e01b5f52602260045260245ffd5b50919050565b601f82111562000403575f81815260208120601f850160051c81016020861015620003de5750805b601f850160051c820191505b81811015620003ff57828155600101620003ea565b5050505b505050565b81516001600160401b0381111562000424576200042462000368565b6200043c816200043584546200037c565b84620003b6565b602080601f83116001811462000472575f84156200045a5750858301515b5f19600386901b1c1916600185901b178555620003ff565b5f85815260208120601f198616915b82811015620004a25788860151825594840194600190910190840162000481565b5085821015620004c057878501515f19600388901b60f8161c191681555b5050505050600190811b01905550565b5f6020808352835180828501525f5b81811015620004fd57858101830151858201604001528201620004df565b505f604082860101526040601f19601f8301168501019250505092915050565b80516020808301519190811015620003b0575f1960209190910360031b1b16919050565b60805160a05160c05160e051610100516101205161014051611d6c620005935f395f61124c01525f61121f01525f61102b01525f61100301525f610f5e01525f610f8801525f610fb20152611d6c5ff3fe608060405234801561000f575f80fd5b50600436106101bb575f3560e01c806370a08231116100f3578063a9059cbb11610093578063d505accf1161006e578063d505accf146103dd578063d5391393146103f0578063d547741f14610417578063dd62ed3e1461042a575f80fd5b8063a9059cbb146103a0578063af95f9fb146103b3578063cd8b73cb146103d5575f80fd5b806384b0196e116100ce57806384b0196e1461033157806391d148541461034c57806395d89b4114610391578063a217fddf14610399575f80fd5b806370a08231146102d657806379cc67901461030b5780637ecebe001461031e575f80fd5b8063301440f11161015e57806336568abe1161013957806336568abe1461028a57806342966c681461029d57806347e7ef24146102b05780635f3317a0146102c3575f80fd5b8063301440f11461026b578063313ce567146102735780633644e51514610282575f80fd5b806318160ddd1161019957806318160ddd1461020f57806323b872dd14610221578063248a9ca3146102345780632f2ff15d14610256575f80fd5b806301ffc9a7146101bf57806306fdde03146101e7578063095ea7b3146101fc575b5f80fd5b6101d26101cd366004611948565b61046f565b60405190151581526020015b60405180910390f35b6101ef610507565b6040516101de91906119ef565b6101d261020a366004611a29565b610597565b6002545b6040519081526020016101de565b6101d261022f366004611a51565b6105ae565b610213610242366004611a8a565b5f9081526005602052604090206001015490565b610269610264366004611aa1565b6105d1565b005b610213600481565b604051601281526020016101de565b6102136105fb565b610269610298366004611aa1565b610609565b6102696102ab366004611a8a565b610667565b6102696102be366004611a29565b610674565b6102696102d1366004611adb565b6106d1565b6102136102e4366004611b39565b73ffffffffffffffffffffffffffffffffffffffff165f9081526020819052604090205490565b610269610319366004611a29565b610a46565b61021361032c366004611b39565b610a5b565b610339610a85565b6040516101de9796959493929190611b52565b6101d261035a366004611aa1565b5f91825260056020908152604080842073ffffffffffffffffffffffffffffffffffffffff93909316845291905290205460ff1690565b6101ef610ae3565b6102135f81565b6101d26103ae366004611a29565b610af2565b6101d26103c1366004611a8a565b600a6020525f908152604090205460ff1681565b610213600381565b6102696103eb366004611c0f565b610aff565b6102137f9f2df0fed2c77648de5860a4cc508cd0818c85b8b8a1ab4ceeef8d981c8956a681565b610269610425366004611aa1565b610c9c565b610213610438366004611c58565b73ffffffffffffffffffffffffffffffffffffffff9182165f90815260016020908152604080832093909416825291909152205490565b5f7fffffffff0000000000000000000000000000000000000000000000000000000082167f7965db0b00000000000000000000000000000000000000000000000000000000148061050157507f01ffc9a7000000000000000000000000000000000000000000000000000000007fffffffff000000000000000000000000000000000000000000000000000000008316145b92915050565b60606003805461051690611c80565b80601f016020809104026020016040519081016040528092919081815260200182805461054290611c80565b801561058d5780601f106105645761010080835404028352916020019161058d565b820191905f5260205f20905b81548152906001019060200180831161057057829003601f168201915b5050505050905090565b5f336105a4818585610cc0565b5060019392505050565b5f336105bb858285610ccd565b6105c6858585610d95565b506001949350505050565b5f828152600560205260409020600101546105eb81610e3e565b6105f58383610e48565b50505050565b5f610604610f45565b905090565b73ffffffffffffffffffffffffffffffffffffffff81163314610658576040517f6697b23200000000000000000000000000000000000000000000000000000000815260040160405180910390fd5b610662828261107b565b505050565b6106713382611138565b50565b6040805173ffffffffffffffffffffffffffffffffffffffff84168152602081018390527fa0de46d9102820311637a381d79b7d6de6e1b72a4324d8011ecab7a17a597622910160405180910390a16106cd8282611138565b5050565b73ffffffffffffffffffffffffffffffffffffffff87163314610755576040517f08c379a000000000000000000000000000000000000000000000000000000000815260206004820152600d60248201527f57726f6e672077616c6c65742e0000000000000000000000000000000000000060448201526064015b60405180910390fd5b5f868152600a602052604090205460ff16156107cd576040517f08c379a000000000000000000000000000000000000000000000000000000000815260206004820152601760248201527f4d696e74207061737320616c726561647920757365642e000000000000000000604482015260640161074c565b60408051602081018890529081018690526060810185905273ffffffffffffffffffffffffffffffffffffffff88166080820152600460a08201525f9060c0016040516020818303038152906040528051906020012090505f8160405160200161086391907f19457468657265756d205369676e6564204d6573736167653a0a3332000000008152601c810191909152603c0190565b6040516020818303038152906040528051906020012090505f61088882878787611192565b73ffffffffffffffffffffffffffffffffffffffff81165f9081527f15a28d26fa1bf736cf7edc9922607171ccb09c3c73b808e7772a3013e068a522602052604090205490915060ff16610938576040517f08c379a000000000000000000000000000000000000000000000000000000000815260206004820152601860248201527f4d757374206265207369676e6564206279206d696e7465720000000000000000604482015260640161074c565b864211156109a2576040517f08c379a000000000000000000000000000000000000000000000000000000000815260206004820152600860248201527f457870697265642e000000000000000000000000000000000000000000000000604482015260640161074c565b5f898152600a602090815260409182902080547fffffffffffffffffffffffffffffffffffffffffffffffffffffffffffffff00166001179055815173ffffffffffffffffffffffffffffffffffffffff8d1681529081018b90529081018990527f6e6164e9bbef467f7f8a1f5712dfaf149ebf1622810ec53e99e131b1687fed4b9060600160405180910390a1610a3a8a896111be565b50505050505050505050565b610a51823383610ccd565b6106cd8282611138565b73ffffffffffffffffffffffffffffffffffffffff81165f90815260086020526040812054610501565b5f6060805f805f6060610a96611218565b610a9e611245565b604080515f808252602082019092527f0f000000000000000000000000000000000000000000000000000000000000009b939a50919850469750309650945092509050565b60606004805461051690611c80565b5f336105a4818585610d95565b83421115610b3c576040517f627913020000000000000000000000000000000000000000000000000000000081526004810185905260240161074c565b5f7f6e71edae12b1b97f4d1f60370fef10105fa2faae0126114a169c64845d6126c9888888610b948c73ffffffffffffffffffffffffffffffffffffffff165f90815260086020526040902080546001810190915590565b60408051602081019690965273ffffffffffffffffffffffffffffffffffffffff94851690860152929091166060840152608083015260a082015260c0810186905260e0016040516020818303038152906040528051906020012090505f610bfb82611272565b90505f610c0a82878787611192565b90508973ffffffffffffffffffffffffffffffffffffffff168173ffffffffffffffffffffffffffffffffffffffff1614610c91576040517f4b800e4600000000000000000000000000000000000000000000000000000000815273ffffffffffffffffffffffffffffffffffffffff80831660048301528b16602482015260440161074c565b610a3a8a8a8a610cc0565b5f82815260056020526040902060010154610cb681610e3e565b6105f5838361107b565b61066283838360016112b9565b73ffffffffffffffffffffffffffffffffffffffff8381165f908152600160209081526040808320938616835292905220547fffffffffffffffffffffffffffffffffffffffffffffffffffffffffffffffff8110156105f55781811015610d87576040517ffb8f41b200000000000000000000000000000000000000000000000000000000815273ffffffffffffffffffffffffffffffffffffffff84166004820152602481018290526044810183905260640161074c565b6105f584848484035f6112b9565b73ffffffffffffffffffffffffffffffffffffffff8316610de4576040517f96c6fd1e0000000000000000000000000000000000000000000000000000000081525f600482015260240161074c565b73ffffffffffffffffffffffffffffffffffffffff8216610e33576040517fec442f050000000000000000000000000000000000000000000000000000000081525f600482015260240161074c565b6106628383836113fe565b61067181336115a5565b5f82815260056020908152604080832073ffffffffffffffffffffffffffffffffffffffff8516845290915281205460ff16610f3e575f83815260056020908152604080832073ffffffffffffffffffffffffffffffffffffffff86168452909152902080547fffffffffffffffffffffffffffffffffffffffffffffffffffffffffffffff00166001179055610edc3390565b73ffffffffffffffffffffffffffffffffffffffff168273ffffffffffffffffffffffffffffffffffffffff16847f2f8788117e7eff1d82e926ec794901d17c78024a50270940304540a733656f0d60405160405180910390a4506001610501565b505f610501565b5f3073ffffffffffffffffffffffffffffffffffffffff7f000000000000000000000000000000000000000000000000000000000000000016148015610faa57507f000000000000000000000000000000000000000000000000000000000000000046145b15610fd457507f000000000000000000000000000000000000000000000000000000000000000090565b610604604080517f8b73c3c69bb8fe3d512ecc4cf759cc79239f7b179b0ffacaa9a75d522b39400f60208201527f0000000000000000000000000000000000000000000000000000000000000000918101919091527f000000000000000000000000000000000000000000000000000000000000000060608201524660808201523060a08201525f9060c00160405160208183030381529060405280519060200120905090565b5f82815260056020908152604080832073ffffffffffffffffffffffffffffffffffffffff8516845290915281205460ff1615610f3e575f83815260056020908152604080832073ffffffffffffffffffffffffffffffffffffffff8616808552925280832080547fffffffffffffffffffffffffffffffffffffffffffffffffffffffffffffff0016905551339286917ff6391f5c32d9c69d2a47ea670b442974b53935d1edc7fd64eb21e047a839171b9190a4506001610501565b73ffffffffffffffffffffffffffffffffffffffff8216611187576040517f96c6fd1e0000000000000000000000000000000000000000000000000000000081525f600482015260240161074c565b6106cd825f836113fe565b5f805f806111a28888888861162c565b9250925092506111b2828261171f565b50909695505050505050565b73ffffffffffffffffffffffffffffffffffffffff821661120d576040517fec442f050000000000000000000000000000000000000000000000000000000081525f600482015260240161074c565b6106cd5f83836113fe565b60606106047f00000000000000000000000000000000000000000000000000000000000000006006611822565b60606106047f00000000000000000000000000000000000000000000000000000000000000006007611822565b5f61050161127e610f45565b836040517f19010000000000000000000000000000000000000000000000000000000000008152600281019290925260228201526042902090565b73ffffffffffffffffffffffffffffffffffffffff8416611308576040517fe602df050000000000000000000000000000000000000000000000000000000081525f600482015260240161074c565b73ffffffffffffffffffffffffffffffffffffffff8316611357576040517f94280d620000000000000000000000000000000000000000000000000000000081525f600482015260240161074c565b73ffffffffffffffffffffffffffffffffffffffff8085165f90815260016020908152604080832093871683529290522082905580156105f5578273ffffffffffffffffffffffffffffffffffffffff168473ffffffffffffffffffffffffffffffffffffffff167f8c5be1e5ebec7d5bd14f71427d1e84f3dd0314c0f7b2291e5b200ac8c7c3b925846040516113f091815260200190565b60405180910390a350505050565b73ffffffffffffffffffffffffffffffffffffffff8316611435578060025f82825461142a9190611cd1565b909155506114e59050565b73ffffffffffffffffffffffffffffffffffffffff83165f90815260208190526040902054818110156114ba576040517fe450d38c00000000000000000000000000000000000000000000000000000000815273ffffffffffffffffffffffffffffffffffffffff85166004820152602481018290526044810183905260640161074c565b73ffffffffffffffffffffffffffffffffffffffff84165f9081526020819052604090209082900390555b73ffffffffffffffffffffffffffffffffffffffff821661150e57600280548290039055611539565b73ffffffffffffffffffffffffffffffffffffffff82165f9081526020819052604090208054820190555b8173ffffffffffffffffffffffffffffffffffffffff168373ffffffffffffffffffffffffffffffffffffffff167fddf252ad1be2c89b69c2b068fc378daa952ba7f163c4a11628f55a4df523b3ef8360405161159891815260200190565b60405180910390a3505050565b5f82815260056020908152604080832073ffffffffffffffffffffffffffffffffffffffff8516845290915290205460ff166106cd576040517fe2517d3f00000000000000000000000000000000000000000000000000000000815273ffffffffffffffffffffffffffffffffffffffff821660048201526024810183905260440161074c565b5f80807f7fffffffffffffffffffffffffffffff5d576e7357a4501ddfe92f46681b20a084111561166557505f91506003905082611715565b604080515f808252602082018084528a905260ff891692820192909252606081018790526080810186905260019060a0016020604051602081039080840390855afa1580156116b6573d5f803e3d5ffd5b50506040517fffffffffffffffffffffffffffffffffffffffffffffffffffffffffffffffe0015191505073ffffffffffffffffffffffffffffffffffffffff811661170c57505f925060019150829050611715565b92505f91508190505b9450945094915050565b5f82600381111561173257611732611d09565b0361173b575050565b600182600381111561174f5761174f611d09565b03611786576040517ff645eedf00000000000000000000000000000000000000000000000000000000815260040160405180910390fd5b600282600381111561179a5761179a611d09565b036117d4576040517ffce698f70000000000000000000000000000000000000000000000000000000081526004810182905260240161074c565b60038260038111156117e8576117e8611d09565b036106cd576040517fd78bce0c0000000000000000000000000000000000000000000000000000000081526004810182905260240161074c565b606060ff831461183c57611835836118cb565b9050610501565b81805461184890611c80565b80601f016020809104026020016040519081016040528092919081815260200182805461187490611c80565b80156118bf5780601f10611896576101008083540402835291602001916118bf565b820191905f5260205f20905b8154815290600101906020018083116118a257829003601f168201915b50505050509050610501565b60605f6118d783611908565b6040805160208082528183019092529192505f91906020820181803683375050509182525060208101929092525090565b5f60ff8216601f811115610501576040517fb3512b0c00000000000000000000000000000000000000000000000000000000815260040160405180910390fd5b5f60208284031215611958575f80fd5b81357fffffffff0000000000000000000000000000000000000000000000000000000081168114611987575f80fd5b9392505050565b5f81518084525f5b818110156119b257602081850181015186830182015201611996565b505f6020828601015260207fffffffffffffffffffffffffffffffffffffffffffffffffffffffffffffffe0601f83011685010191505092915050565b602081525f611987602083018461198e565b803573ffffffffffffffffffffffffffffffffffffffff81168114611a24575f80fd5b919050565b5f8060408385031215611a3a575f80fd5b611a4383611a01565b946020939093013593505050565b5f805f60608486031215611a63575f80fd5b611a6c84611a01565b9250611a7a60208501611a01565b9150604084013590509250925092565b5f60208284031215611a9a575f80fd5b5035919050565b5f8060408385031215611ab2575f80fd5b82359150611ac260208401611a01565b90509250929050565b803560ff81168114611a24575f80fd5b5f805f805f805f60e0888a031215611af1575f80fd5b611afa88611a01565b9650602088013595506040880135945060608801359350611b1d60808901611acb565b925060a0880135915060c0880135905092959891949750929550565b5f60208284031215611b49575f80fd5b61198782611a01565b7fff00000000000000000000000000000000000000000000000000000000000000881681525f602060e081840152611b8d60e084018a61198e565b8381036040850152611b9f818a61198e565b6060850189905273ffffffffffffffffffffffffffffffffffffffff8816608086015260a0850187905284810360c086015285518082528387019250908301905f5b81811015611bfd57835183529284019291840191600101611be1565b50909c9b505050505050505050505050565b5f805f805f805f60e0888a031215611c25575f80fd5b611c2e88611a01565b9650611c3c60208901611a01565b95506040880135945060608801359350611b1d60808901611acb565b5f8060408385031215611c69575f80fd5b611c7283611a01565b9150611ac260208401611a01565b600181811c90821680611c9457607f821691505b602082108103611ccb577f4e487b71000000000000000000000000000000000000000000000000000000005f52602260045260245ffd5b50919050565b80820180821115610501577f4e487b71000000000000000000000000000000000000000000000000000000005f52601160045260245ffd5b7f4e487b71000000000000000000000000000000000000000000000000000000005f52602160045260245ffdfea2646970667358221220444d316fe8b4f7384d548eeac1ee51e41c4444a5db38c8f2de51142fe90760a664736f6c63430008150033457468657265756d204261736562616c6c204c6561677565204469616d6f6e6473",
  "linkReferences": {},
  "deployedLinkReferences": {},
  "immutableReferences": {},
  "inputSourceName": "project/contracts/Universe.sol",
  "buildInfoId": "solc-0_8_21-7ed3fb779807fba1bec9d809ede5627eae58f126"
}